:0400000013EF00F00A
:060008005D827CEF95F023
:100018005D80E0CF01F001C0E0FF5D901000C5EF0A
:0200280093F053
:10F8EA000030313233343536373839616263646512
:10F8FA006604F90912FA0521FB010D0A564C353343
:10F90A00204D454E55450000000000000000000053
:10F91A00000000000000000020312E564C35335FF5
:10F92A00494E495400000000000000000000000099
:10F93A0000000000000020322E434F4E5449494F28
:10F94A0055532052414E47494E47000000000000DF
:10F95A000000000020332E53494E474C45205241A7
:10F96A004E47494E4700000000000000000000001A
:10F97A00000020342E53494E474C452052414E47F1
:10F98A00494E4720484100000000000000000000E6
:10F99A0020352E53494E474C452052414E47494E39
:10F9AA0047204853000000000000000000002036F5
:10F9BA002E53494E474C452052414E47494E472007
:10F9CA004C520000000000000000000020372E56B4
:10F9DA004C3533204461746120444953504C415999
:10F9EA000000000000000000000020722E45584967
:10F9FA0054000000000000000000000000000000A9
:10FA0A0000000000000000000D0A5253343835206F
:10FA1A004D454E5545000000000000000000000062
:10FA2A0000000000000020312E5258204D4F44455E
:10FA3A0000000000000000000000000000000000BC
:10FA4A000000000020322E5458204D4F444500003B
:10FA5A00000000000000000000000000000000009C
:10FA6A00000020332E4F5645522052554E20455203
:10FA7A00524F5220434C5200000000000000000088
:10FA8A0020722E4558495400000000000000000072
:10FA9A0000000000000000000000000000000072EA
:10FAAA007463000000000000000172656700000036
:10FABA000000000002693263000000000000000339
:10FACA00766C3533000000000000047062320000DA
:10FADA000000000000056C6F6700000000000000D5
:10FAEA00066C6F676F666600000000076C6F676FD1
:10FAFA006E0000000000086C6F67636C7200000003
:10FB0A000009727334383500000000000A6E6F6E07
:10FB1A00650000000000000D0A52533438352054A5
:10FB2A0058203D20000000000000000000000000F6
:10FB3A0000000000002050494520202020203D20C0
:10FB4A003078253032782C203078253032782C20C5
:10FB5A003078253032782C203078253032782C20B5
:10FB6A003078253032780D0A002050495220202062
:10FB7A0020203D203078253032782C2030782530EE
:10FB8A0032782C203078253032782C203078253085
:10FB9A0032782C203078253032780D0A00204950EE
:10FBAA005220202020203D203078253032782C2009
:10FBBA003078253032782C203078253032782C2055
:10FBCA003078253032782C203078253032780D0A7A
:10FBDA0000533D253032782C43313D253032782C84
:10FBEA0043323D253032782C42463D25303278204A
:10FBFA00002A2A2A204F5343494C4C41544F522041
:10FC0A002A2A2A2A2A2A2A2A2A2A2A2A0D0A002AB1
:10FC1A002A2A20494E54455252555054202A2A2AFB
:10FC2A002A2A2A2A2A2A2A2A2A0D0A000A2A2A2AB1
:10FC3A00205541525431202A2A2A2A2A2A2A2A2A93
:10FC4A002A2A2A0D0A000A2A2A2A205541525432FF
:10FC5A00202A2A2A2A2A2A2A2A2A2A2A2A0D0A006B
:10FC6A0020535042524731202020203D2030782511
:10FC7A00303278253032780D0A00205350425247EC
:10FC8A0032202020203D203078253032782530322D
:10FC9A00780D0A002A2A2A20504F5254202A2A2A4A
:10FCAA002A2A2A2A2A2A2A2A2A0D0A002A2A2A201B
:10FCBA00493243202A2A2A2A2A2A2A2A2A2A2A2A64
:10FCCA000D0A00205353503141444420203D203036
:10FCDA0078253032780D0A0A0020535350324144B5
:10FCEA004420203D203078253032780D0A0A00431E
:10FCFA006F6D6D616E64206E6F7420666F756E64D1
:10FD0A002E200D0A002A2A2A2055534152542053E4
:10FD1A0065747570202A2A2A0D0A0020524353540A
:10FD2A004131202020203D203078253032780D0ABC
:10FD3A000020545853544131202020203D2030784F
:10FD4A00253032780D0A002054585354413220206D
:10FD5A0020203D203078253032780D0A0020524389
:10FD6A0053544133202020203D20307825303278EA
:10FD7A000D0A002042415544434F4E3120203D2078
:10FD8A003078253032780D0A002042415544434FDD
:10FD9A004E3220203D203078253032780D0A00433B
:10FDAA003D25642C696E6465783D25642C666C6714
:10FDBA003D25642000204F534354554E45203D2095
:10FDCA003078253032780D0A0A00205353503143D7
:10FDDA004F4E31203D203078253032780D0A0020F0
:10FDEA0053535032434F4E31203D20307825303224
:10FDFA00780D0A002053535031434F4E32203D2094
:10FE0A003078253032780D0A002053535032434F50
:10FE1A004E32203D203078253032780D0A002053AA
:10FE2A0053503153544154203D2030782530327894
:10FE3A000D0A00205353503253544154203D203070
:10FE4A0078253032780D0A00205452495345202033
:10FE5A003D203078253032780D0A0A002052434F6F
:10FE6A004E202020203D203078253032780D0A009F
:10FE7A00204F5343434F4E20203D203078253032C7
:10FE8A00780D0A0020494E54434F4E20203D203021
:10FE9A0078253032780D0A00204F5343434F4E32B3
:10FEAA00203D203078253032780D0A0020494E5402
:10FEBA00434F4E32203D203078253032780D0A00EB
:10FECA0020494E54434F4E33203D2030782530325E
:10FEDA00780D0A006C6F67696E666F5F62756620DF
:10FEEA003D2025700D0A0020545249534120203DDF
:10FEFA00203078253032780D0A0020545249534276
:10FF0A0020203D203078253032780D0A00205452C6
:10FF1A0049534320203D203078253032780D0A009D
:10FF2A0020545249534420203D20307825303278DD
:10FF3A000D0A0075696E7476616C75653D256C787D
:10FF4A000D0A005750543D25642C5250543D2564E7
:10FF5A000D0A00616263646566672E2E2E2E2E0DD1
:10FF6A000A004461746120696E2E2E2E2E2E0D0A0F
:10FF7A00004C4F47204F4646203D2025640D0A007D
:10FF8A00443D25642C696E6465783D2564200075BE
:10FF9A00696E743332203D2025700D0A004C4F479C
:10FFAA00204F4E203D2025640D0A00253032642E54
:10FFBA00253033642E256420004352454E20524595
:10FFCA005345540D0A004C4F4720434C4541520DAE
:10FFDA000A004C4F472053544F5000554152543E4B
:10FFEA002000533D2564200025730D0A006C6C73B4
:06FFFA00000820080000D1
:020000040001F9
:1000000033C0D9FF34C0DAFFDECFF6FFDDCFF7FF14
:10001000000EF86E0800F550250AD8A412EF80F003
:1000200014EF80F04FEF82F033C0D9FF34C0DAFF15
:10003000DE2A000EDD22000E0001616F000E606FEF
:1000400060C05CF062696369000E3C6E000E3B6E3E
:1000500056EF80F05C8233C0D9FF34C0DAFFDE2A6D
:10006000000EDD2256EF80F0000E3C6E010E3B6E5E
:1000700056EF80F033C0D9FF34C0DAFFDECFF6FF91
:10008000DDCFF7FF000EF86E0800F550376E386AC6
:100090003850000AD8B44FEF80F034EF80F037507A
:1000A000300AD8B42AEF80F034EF80F03B503C1097
:1000B000D8B45DEF80F05FEF80F03AEF80F033C0AE
:1000C00008F034C009F035C00AF036C00BF0BFECC0
:1000D00091F008C060F009C061F0000161BF75EFE8
:1000E00080F073EF80F07AEF80F05C80606D611FCC
:1000F000D8B0612B33C0D9FF34C0DAFFDECF44F073
:10010000DDCF45F044C0F6FF45C0F7FF000EF86EA6
:100110000800F5CF43F099EF80F0444A452AB6EF46
:1001200080F0690E436EB6EF80F0000E436EB6EFBE
:1001300080F04350376E386A3850000AD8B4A3EFC5
:1001400080F095EF80F03750640AD8B491EF80F0DA
:100150000D0AD8B491EF80F0050AD8B48DEF80F085
:10016000140AD8B491EF80F095EF80F044C0F6FF08
:1001700045C0F7FF000EF86E0800F550640AD8B4C9
:10018000C4EF80F0C6EF80F00DEF81F044C0F6FFC1
:1001900045C0F7FF000EF86E0800F550690AD8A4B4
:1001A000D4EF80F0D6EF80F040EF81F00DEF81F0DA
:1001B00035C0D9FF36C0DAFFDFCF37F0020EDE26BA
:1001C000DFCF38F0000EDD2237C0D9FF38C0DAFFAC
:1001D000DECF3FF0DDCF40F0000E40BEFF0E416E9F
:1001E000426E22EF81F035C0D9FF36C0DAFFDFCF93
:1001F00037F0040EDE26DFCF38F0000EDD2237C0E8
:10020000D9FF38C0DAFFDECF3FF0DECF40F0DECFDF
:1002100041F0DECF42F022EF81F04350376E386A72
:100220003850000AD8B417EF81F022EF81F0375030
:10023000690AD8B4D8EF80F0050AD8B4F3EF80F09B
:1002400022EF81F0010E4424376E000E4520386EF7
:1002500033C0D9FF34C0DAFF37C0DEFF38C0DDFF5E
:1002600031C01EF032C01FF03FC020F040C021F06E
:1002700041C022F042C023F0D8EC89F065EF82F053
:1002800044C0F6FF45C0F7FF000EF86E0800F550B9
:10029000780AD8A44EEF81F050EF81F0D5EF81F0CD
:1002A00088EF81F035C0D9FF36C0DAFFDFCF37F0F5
:1002B000020EDE26DFCF38F0000EDD2237C0D9FF78
:1002C00038C0DAFFDECF39F0DDCF3AF039C03FF089
:1002D0003AC040F0416A426A9DEF81F035C0D9FFD3
:1002E00036C0DAFFDFCF37F0040EDE26DFCF38F07E
:1002F000000EDD2237C0D9FF38C0DAFFDECF3FF075
:10030000DECF40F0DECF41F0DECF42F09DEF81F056
:100310004350376E386A3850000AD8B492EF81F0F3
:100320009DEF81F03750690AD8B452EF81F0050A89
:10033000D8B46EEF81F09DEF81F0010E4424376E4A
:10034000000E4520386E33C0D9FF34C0DAFF37C005
:10035000DEFF38C0DDFFBDEF81F031C01EF032C0DE
:100360001FF03FC020F040C021F041C022F042C049
:1003700023F056EC8DF065EF82F044C0F6FF45C0E7
:10038000F7FF000EF86E0800F550376E386A3850E7
:10039000000AD8B4CEEF81F0D5EF81F03750780A5B
:1003A000D8B4ADEF81F0D5EF81F033C0D9FF34C0C0
:1003B000DAFFDECFF6FFDDCFF7FF000EF86E0800A4
:1003C000F550730AD8B4E7EF81F0E9EF81F004EF5C
:1003D00082F033C0D9FF34C0DAFFDECF02F0DDCFC8
:1003E00003F0F70E046EFF0E056E000E076E030E8F
:1003F000066ECEEC90F002500310D8A402EF82F00B
:1004000004EF82F046EF82F033C0D9FF34C0DAFF48
:10041000DECFF6FFDDCFF7FF000EF86E0800F550D7
:10042000730AD8B416EF82F018EF82F01EEF82F054
:10043000000E3E6E030E3D6E22EF82F0000E3E6E09
:10044000010E3D6E33C0D9FF34C0DAFF3D50DE26C9
:100450003E50DD2231C00CF032C00DF035C0D9FF66
:1004600036C0DAFFDFCF37F0020EDE26DFCF38F0FE
:10047000000EDD2237C0D9FF38C0DAFFDECF0EF024
:10048000DDCF0FF08DEC8CF065EF82F033C0D9FF3B
:1004900034C0DAFFDE2A000EDD2265EF82F033C0C1
:1004A000D9FF34C0DAFFDECFF6FFDDCFF7FF000E55
:1004B000F86E0800F550036E046A31C005F032C0D2
:1004C00006F026EC92F046EF82F012000550800B09
:1004D0000E6E05500524106E04AE71EF82F073EFBE
:1004E00082F074EF82F010801050D8B47AEF82F06E
:1004F0007CEF82F091EF82F01028D8A482EF82F096
:1005000084EF82F08CEF82F0000E026E000E036E1C
:10051000000E046E000E056E048E000E056E99EF3F
:1005200082F0000E026E000E036E000E046E000ECE
:10053000056E0950800B0F6E0E500F18D8B4A3EF44
:1005400082F0A5EF82F0A6EF82F00E8C095009240C
:100550000F6E08AEAEEF82F0B0EF82F0B1EF82F036
:100560000F800F50D8B4B7EF82F0B9EF82F0CEEF22
:1005700082F00F28D8A4BFEF82F0C1EF82F0C9EF5C
:1005800082F0000E066E000E076E000E086E000E62
:10059000096E088E000E096ED6EF82F0000E066E10
:1005A000000E076E000E086E000E096E10500F5CF4
:1005B000D8B0DDEF82F0DFEF82F006EF83F00EAC13
:1005C000E4EF82F0E6EF82F0E8EF82F0800E0E1AA0
:1005D00010C011F00FC010F011C00FF002C011F0E8
:1005E00006C002F011C006F003C011F007C003F00E
:1005F00011C007F004C011F008C004F011C008F0E9
:1006000005C011F009C005F011C009F0000E116E0F
:1006100010500FC00AF00B6A0A5E000E0B5A0BBE98
:100620001BEF83F00B5009E11A0E0A5CD8A01BEFF8
:1006300083F01DEF83F054EF83F002500310041099
:100640000510D8A426EF83F029EF83F0010E2AEFDE
:1006500083F0000E116E000E026E000E036E000E8F
:10066000046E000E056E0FC010F05DEF83F011A058
:100670003CEF83F03EEF83F044EF83F0D8901130ED
:100680000109116E46EF83F0D890113202A04BEFB2
:1006900083F04DEF83F04EEF83F0118E0534053279
:1006A000043203320232102A0F50105CD8A05BEFE4
:1006B00083F05DEF83F037EF83F00EBC62EF83F0E1
:1006C00064EF83F0A4EF83F01050D8A46AEF83F0B6
:1006D0006CEF83F076EF83F0000E026E000E036E77
:1006E000000E046E000E056EC5EF84F00650022663
:1006F00007500322085004220950052205A083EF69
:1007000083F085EF83F031EF84F011A08AEF83F05E
:100710008CEF83F092EF83F0D89011300109116EC5
:1007200094EF83F0D890113202A099EF83F09BEF01
:1007300083F09CEF83F0118E0534053204320332CE
:100740000232102A31EF84F00650025C0750035841
:10075000085004580550800A0A6E0950800A0A5849
:10076000D8B0B5EF83F0B7EF83F0E2EF83F002503B
:10077000065C0A6E035007580B6E045008580C6E46
:10078000055009580D6EFF0E0A24026EFF0E0B2055
:10079000036EFF0E0C20046EFF0E0D20056E800E02
:1007A0000E1A116C1150D8A4D8EF83F0DAEF83F051
:1007B000EAEF83F0010E0226000E03220422052236
:1007C000EAEF83F00650025E0750035A0850045ABD
:1007D0000950055A0250031004100510D8A4F3EF75
:1007E00083F0F5EF83F02AEF84F01150D8A4FBEFEB
:1007F00083F0FDEF83F02AEF84F0000E026E000E0E
:10080000036E000E046E000E056EC5EF84F0D890E6
:10081000023603360436053611AE11EF84F013EFBD
:1008200084F014EF84F0028011A019EF84F01BEF24
:1008300084F01FEF84F0D880113621EF84F0D89037
:1008400011361050D8B427EF84F029EF84F02AEF46
:1008500084F0100604AE2FEF84F031EF84F007EF40
:1008600084F0000E0F6E11AE38EF84F03AEF84F092
:1008700052EF84F011C00AF07F0E0A16D8B443EF8D
:1008800084F045EF84F049EF84F0010E0F6E52EFD3
:1008900084F002A04EEF84F050EF84F052EF84F029
:1008A00045EF84F00F50D8B458EF84F05AEF84F03D
:1008B00085EF84F0010E0226000E03220422052299
:1008C00005A065EF84F067EF84F085EF84F002C047
:1008D0000AF003C00BF004C00CF005C00DF00D349D
:1008E0000D320C320B320A320AC002F00BC003F098
:1008F0000CC004F00DC005F01028D8B482EF84F0CD
:1009000084EF84F085EF84F0102A1028D8B48BEFA0
:1009100084F08DEF84F095EF84F01050D8A493EF1D
:1009200084F095EF84F0A7EF84F0000E026E000EC5
:10093000036E000E046E000E056E1050D8A4A3EFD7
:1009400084F0A5EF84F0A7EF84F0000E0E6E10A0E7
:10095000ACEF84F0AEEF84F0B1EF84F0048EB2EF30
:1009600084F0049ED8901030056E0EAEBAEF84F07D
:10097000BCEF84F0BDEF84F0058E02C002F003C02E
:1009800003F004C004F005C005F012000550800B10
:100990000E6E05500524146E04AED1EF84F0D3EF33
:1009A00084F0D4EF84F014801450D8B4DAEF84F0DB
:1009B000DCEF84F0EFEF84F01428D8A4E2EF84F0A9
:1009C000E4EF84F0ECEF84F0000E026E000E036E94
:1009D000000E046E000E056E048EF7EF84F0000E1C
:1009E000026E000E036E000E046E000E056E0950BE
:1009F000800B0E1A09500924136E08AE02EF85F021
:100A000004EF85F005EF85F013801350D8B40BEF99
:100A100085F00DEF85F020EF85F01328D8A413EFB3
:100A200085F015EF85F01DEF85F0000E066E000EC7
:100A3000076E000E086E000E096E088E28EF85F016
:100A4000000E066E000E076E000E086E000E096E98
:100A50001350D8B42EEF85F030EF85F038EF85F0E5
:100A60001450D8A436EF85F038EF85F042EF85F0CA
:100A7000000E026E000E036E000E046E000E056E78
:100A8000DAEF86F008500202F3CF19F0F4CF1AF033
:100A900019500F6E106A116A126A1A50156E166A92
:100AA000176A186A07500302F3CF19F0F4CF1AF04F
:100AB00019500F26000E1022112212221A5015264C
:100AC000000E16221722182206500402F3CF19F046
:100AD000F4CF1AF019500F26000E10221122122204
:100AE0001A501526000E16221722182211C012F0D5
:100AF00010C011F00FC010F00F6A06500302F3CFC0
:100B000019F0F4CF1AF019500F261A501022000EC7
:100B10001122000E122207500202F3CF19F0F4CF77
:100B20001AF019500F261A501022000E1122000E32
:100B3000122211C012F010C011F00FC010F00F6A95
:100B400006500202F3CF19F0F4CF1AF019500F2615
:100B50001A501022000E1122000E12220850030219
:100B6000F3CF19F0F4CF1AF0195015261A501622A7
:100B7000000E1722000E182207500402F3CF19F0BE
:100B8000F4CF1AF0195015261A501622000E17220B
:100B9000000E182208500402F3CF19F0F4CF1AF017
:100BA00019500A6E1A500B6E0C6A0D6A0CC00DF0CB
:100BB0000BC00CF00AC00BF00A6A0A5015260B5045
:100BC00016220C5017220D5018220FC00AF010C028
:100BD0000BF011C00CF012C00DF0190EF5EF85F0FE
:100BE000D8900D320C320B320A32E82EF0EF85F03D
:100BF0000A5015260B5016220C5017220D501822A1
:100C000011C012F010C011F00FC010F00F6A135095
:100C100014C00AF00B6A0A26000E0B22820E0A2468
:100C2000196EFF0E0B201A6E2BEF86F0D89015363A
:100C300016361736183612AE20EF86F022EF86F001
:100C400023EF86F01580D8900F3610361136123605
:100C50001906D8A01A0617AE30EF86F032EF86F0EC
:100C600016EF86F0000E136E12AE39EF86F03BEFF2
:100C700086F05FEF86F0FF0E0F140A6EFF0E101461
:100C80000B6EFF0E11140C6E7F0E12140D6E0A50B7
:100C90000B100C100D10D8B450EF86F052EF86F008
:100CA00056EF86F0010E136E5FEF86F015A05BEF36
:100CB00086F05DEF86F05FEF86F052EF86F013501E
:100CC000D8B465EF86F067EF86F08BEF86F0010E03
:100CD0001526000E16221722182218A072EF86F091
:100CE00074EF86F08BEF86F015C00AF016C00BF09B
:100CF00017C00CF018C00DF00D340D320C320B3251
:100D00000A320AC015F00BC016F00CC017F00DC067
:100D100018F0194A1A2A1ABE96EF86F01A5008E1FE
:100D20001928D8A096EF86F098EF86F0A2EF86F00B
:100D3000000E156E000E166E800E176E7F0E186E6A
:100D4000D0EF86F01ABEAFEF86F01A5006E1190414
:100D5000D8B0ADEF86F0AFEF86F0BBEF86F0000EB7
:100D6000156E000E166E000E176E000E186E000E39
:100D70000E6ED0EF86F019C014F0FF0E1516FF0EA0
:100D800016167F0E1716000E181614A0CAEF86F05E
:100D9000CCEF86F0CDEF86F0178ED8901430186E19
:100DA0000E50181215C002F016C003F017C004F060
:100DB00018C005F0120069EF88F002C007F003C008
:100DC00008F00C0E096ED89008320732092EE3EFB6
:100DD00086F00F0E0716000E0816EB0E0724F66EAF
:100DE000F80E0820F76EF86A000EF82205C0D9FF49
:100DF00006C0DAFF0800F5CFDFFF054A062A02C069
:100E000007F003C008F008C007F0086A0F0E0716C5
:100E1000000E0816EB0E0724F66EF80E0820F76E8B
:100E2000F86A000EF82205C0D9FF06C0DAFF0800F4
:100E3000F5CFDFFF054A062A02C007F003C008F01D
:100E4000040E096ED89008320732092E22EF87F07F
:100E50000F0E0716000E0816EB0E0724F66EF80E9E
:100E60000820F76EF86A000EF82205C0D9FF06C008
:100E7000DAFF0800F5CFDFFF054A062A0F0E02143D
:100E8000076E000E0314086EEB0E0724F66EF80EC4
:100E90000820F76EF86A000EF82205C0D9FF06C0D8
:100EA000DAFF0800F5CFDFFF054A062A82EF88F057
:100EB00002C007F003C008F0040E096ED890083293
:100EC0000732092E5EEF87F00F0E0716000E081688
:100ED000EB0E0724F66EF80E0820F76EF86A000E87
:100EE000F82205C0D9FF06C0DAFF0800F5CFDFFF02
:100EF000054A062A0F0E0214076E000E0314086E30
:100F0000EB0E0724F66EF80E0820F76EF86A000E56
:100F1000F82205C0D9FF06C0DAFF0800F5CFDFFFD1
:100F2000054A062A82EF88F0000E0A6E02C007F01A
:100F300003C008F00C0E096ED89008320732092E53
:100F40009CEF87F00F0E0716000E081607500810CA
:100F5000D8B4ADEF87F0AFEF87F0D3EF87F002C0E2
:100F600007F003C008F00C0E096ED8900832073263
:100F7000092EB5EF87F00F0E0716000E0816EB0EC0
:100F80000724F66EF80E0820F76EF86A000EF822B5
:100F900005C0D9FF06C0DAFF0800F5CFDFFF054A1C
:100FA000062A010E0A6E0A04D8B4D9EF87F0DBEFE7
:100FB00087F0EFEF87F002C007F003C008F008C029
:100FC00007F0086A0F0E0716000E081607500810E3
:100FD000D8B4EDEF87F0EFEF87F00EEF88F002C0A6
:100FE00007F003C008F008C007F0086A0F0E0716E4
:100FF000000E0816EB0E0724F66EF80E0820F76EAA
:10100000F86A000EF82205C0D9FF06C0DAFF080012
:10101000F5CFDFFF054A062A010E0A6E0A04D8B48E
:1010200014EF88F016EF88F02FEF88F002C007F079
:1010300003C008F0040E096ED89008320732092E5A
:101040001CEF88F00F0E0716000E08160750081048
:10105000D8B42DEF88F02FEF88F051EF88F002C060
:1010600007F003C008F0040E096ED890083207326A
:10107000092E35EF88F00F0E0716000E0816EB0E3E
:101080000724F66EF80E0820F76EF86A000EF822B4
:1010900005C0D9FF06C0DAFF0800F5CFDFFF054A1B
:1010A000062A0F0E0214076E000E0314086EEB0ED4
:1010B0000724F66EF80E0820F76EF86A000EF82284
:1010C00005C0D9FF06C0DAFF0800F5CFDFFF54EFF7
:1010D00087F00450076E086A0850000AD8B473EF0E
:1010E00088F082EF88F00750000AD8B494EF87F0B8
:1010F000020AD8B458EF87F0060AD8B4DDEF86F0BC
:1011000082EF88F005C002F006C003F01200B50EB1
:101110000001C96F000ECA6F000ECB6F010ECC6FBD
:10112000BCEF89F0B3C0F6FFB4C0F7FF000EF86E55
:101130000800F550250AD8A4A0EF88F0A2EF88F0A7
:10114000A7EF89F0B34BB42B7FEF89F0C9C0D9FF6B
:10115000CAC0DAFFDECFBFF0DDCFC0F0020EC92774
:10116000000ECA23BFC00AF0C0C00BF0CBC00CF009
:10117000CCC00DF00EEC8EF00AC0CBF00BC0CCF062
:10118000B9EF89F0C9C0D9FFCAC0DAFFDECFBBF022
:10119000DECFBCF0DECFBDF0DECFBEF0040EC9273F
:1011A000000ECA23BBC01BF0BCC01CF0BDC01DF0AC
:1011B000BEC01EF0000E206E020E1F6ECBC021F0CE
:1011C000CCC022F0D8EC8AF01BC0CBF01CC0CCF015
:1011D000B9EF89F0C9C0D9FFCAC0DAFFDECFC1F0CC
:1011E000DDCFC2F0020EC927000ECA23C1C005F030
:1011F000C2C006F0CBC007F0CCC008F042EC93F0C0
:1012000005C0CBF006C0CCF0B9EF89F0C9C0D9FF5A
:10121000CAC0DAFFDECFC3F0DDCFC4F0020EC927AB
:10122000000ECA23C3C002F0C4C003F0000E046E57
:10123000CBC005F0CCC006F0DBEC86F002C0CBF0F2
:1012400003C0CCF0B9EF89F0C9C0D9FFCAC0DAFF3A
:10125000DECFC5F0DECFC6F0DECFC7F0DECFC8F000
:10126000040EC927000ECA233D0E4E6EFF0E4F6EB0
:10127000C5C050F0C6C051F0C7C052F0C8C053F04E
:1012800020EC95F0C5C002F0C6C003F0C7C004F062
:10129000C8C005F0CBC006F0CCC007F0B2EC8EF0B1
:1012A00002C0CBF003C0CCF0B9EF89F0250E056E7B
:1012B000000E066ECBC007F0CCC008F042EC93F0F5
:1012C00005C0CBF006C0CCF0B3C0F6FFB4C0F7FF4A
:1012D000000EF86E0800F5500001B96FBA6BB9C086
:1012E00005F0BAC006F0CBC007F0CCC008F042EC65
:1012F00093F005C0CBF006C0CCF0B9EF89F0B3C0D5
:10130000F6FFB4C0F7FF000EF86E0800F550B96F95
:10131000BA6BBA51000AD8B490EF89F056EF89F051
:10132000B951640AD8B4A6EF88F0020AD8B4C2EF63
:1013300088F0160AD8B424EF89F0030AD8B4EAEF8B
:1013400088F00B0AD8B406EF89F056EF89F0CBC0CD
:1013500002F0CCC003F0B3C0F6FFB4C0F7FF000E3C
:10136000F86E0800F55057EC95F002C0CBF003C0C2
:10137000CCF00001B34BB42BB3C0F6FFB4C0F7FF01
:10138000000EF86E0800F5500009D8A4CAEF89F0E5
:10139000CCEF89F092EF88F0CBC0D9FFCCC0DAFF58
:1013A000DF6A000E036E010E046E84EC93F01200EF
:1013B00023BEDDEF89F0E0EF89F0010EE1EF89F067
:1013C000000E2C6E2C50D8B4E8EF89F0EAEF89F0CB
:1013D000F2EF89F0231E221E211E206C000E212216
:1013E00022222322000163BFF8EF89F0FAEF89F08F
:1013F000FBEF89F05C9263BF02EF8AF000EF8AF0A6
:1014000008EF8AF0000E276E010E266E0CEF8AF0B0
:1014100062C026F063C027F060C028F061C029F0E8
:101420002C50D8B416EF8AF018EF8AF02FEF8AF01C
:101430002806D8A029062C50D8A421EF8AF023EF43
:101440008AF029EF8AF0000E256E2B0E246E2DEF08
:101450008AF0000E256E2D0E246E24C02CF0000E96
:101460002B6E1F0E2A6E000EB06F7BEF8AF02A06DD
:10147000D8A02B06910E2A24D96E000E2B20DA6EEE
:1014800020C002F021C003F022C004F023C005F008
:101490000A0E066E000E076E000E086E000E096E34
:1014A00049EC91F002C00CF003C00DF0B3EC94F0E5
:1014B0000C50300FDF6E2606D8A027062806D8A0CD
:1014C000290620C002F021C003F022C004F023C08E
:1014D00005F00A0E066E000E076E000E086E000E76
:1014E000096E47EC8FF002C020F003C021F004C069
:1014F00022F005C023F02BBE86EF8AF02B5008E1C6
:101500002A04D8A086EF8AF088EF8AF0B4EF8AF038
:101510002050211022102310D8A491EF8AF093EFCD
:101520008AF037EF8AF027BEA0EF8AF0275006E155
:101530002604D8B09EEF8AF0A0EF8AF037EF8AF049
:1015400029BEABEF8AF0295008E12804D8A0ABEF00
:101550008AF0ADEF8AF0B4EF8AF05CB2B2EF8AF0B5
:10156000B4EF8AF037EF8AF02C50D8B4BAEF8AF093
:10157000BCEF8AF0C7EF8AF02A06D8A02B06910E9E
:101580002A24D96E000E2B20DA6E2CC0DFFF1EC07D
:1015900013F01FC014F0910E2A24156E000E2B209C
:1015A000166E28C017F029C018F0EDEC92F012006A
:1015B0001BC002F01CC003F01DC004F01EC005F0EB
:1015C000CDEC8FF002C026F003C027F026C00AF051
:1015D00027C00BF021C00CF022C00DF00EEC8EF0F5
:1015E0000AC021F00BC022F021C0D9FF22C0DAFFCF
:1015F0002E0EDF6E214A222A1BC012F01CC013F0EF
:101600001DC014F01EC015F026C002F027C003F064
:10161000000E03BEFF0E046E056E010EB3EC8BF0E0
:1016200002C016F003C017F004C018F005C019F08E
:101630006EEC94F012C02AF013C02BF014C02CF002
:1016400015C02DF02DBE29EF8BF027EF8BF03BEF6F
:101650008BF02AC002F02BC003F02CC004F02DC088
:1016600005F0D3EC94F002C02AF003C02BF004C0C4
:101670002CF005C02DF0000E256E000E246E9AEFA2
:101680008BF02AC002F02BC003F02CC004F02DC058
:1016900005F0000E066E000E076E200E086E410E5D
:1016A000096EC6EC84F002C02AF003C02BF004C01F
:1016B0002CF005C02DF02AC002F02BC003F02CC086
:1016C00004F02DC005F0CDEC8FF002C028F003C06F
:1016D00029F02850300F21C0D9FF22C0DAFFDF6E79
:1016E000214A222A2AC012F02BC013F02CC014F079
:1016F0002DC015F028C002F029C003F0000E03BE73
:10170000FF0E046E056E010EB3EC8BF002C016F0F6
:1017100003C017F004C018F005C019F06EEC94F087
:1017200012C02AF013C02BF014C02CF015C02DF0FD
:10173000244A252A1F50245C2550800A236E2050FD
:10174000800A2358D8A0A7EF8BF0A9EF8BF041EFC8
:101750008BF021C0D9FF22C0DAFFDF6A21C01BF065
:1017600022C01CF012000A6E0A50D8B4BAEF8BF0F7
:10177000BCEF8BF0DEEF8BF005BEC3EF8BF0C1EF5B
:101780008BF0DEEF8BF002C006F003C007F004C060
:1017900008F005C009F0061E071E081E091E062ACD
:1017A000000E07220822092206C00CF007C00DF027
:1017B00008C00EF009C00FF0E6EF8BF002C00CF08D
:1017C00003C00DF004C00EF005C00FF0025003106E
:1017D00004100510D8A4EFEF8BF0F1EF8BF0FBEFC6
:1017E0008BF0000E026E000E036E000E046E000EF3
:1017F000056E8CEF8CF0960E0B6E05EF8CF00B2ABD
:10180000D8900F320E320D320C32000E0C14066ED0
:10181000000E0D14076E000E0E14086EFE0E0F144F
:10182000096E0650071008100910D8A41AEF8CF0A2
:101830001CEF8CF0FFEF8BF02AEF8CF00B2A010EDF
:101840000C26000E0D220E220F22D8900F320E32DF
:101850000D320C32000E0C14066E000E0D14076EC5
:10186000000E0E14086EFF0E0F14096E06500710BE
:1018700008100910D8A43FEF8CF041EF8CF01EEF58
:101880008CF049EF8CF00B06D8900C360D360E36E6
:101890000F360EBE4EEF8CF050EF8CF058EF8CF000
:1018A000020E0B6056EF8CF058EF8CF043EF8CF08B
:1018B0000BB05DEF8CF05FEF8CF060EF8CF00E9E64
:1018C000D8900B320BC006F0076A086A096A06C096
:1018D00009F0086A076A066A06500C1207500D12D2
:1018E00008500E1209500F120A50D8B47AEF8CF03B
:1018F0007CEF8CF084EF8CF005BE83EF8CF081EFF1
:101900008CF084EF8CF00F8E0CC002F00DC003F051
:101910000EC004F00FC005F0120020EEDFF010EE54
:1019200011F0060EDBCFE3FFE806FCE20EC01CF070
:101930000FC01DF01C501D10D8A4A1EF8CF0A3EF18
:101940008CF0A7EF8CF0110E1C6E000E1D6E1CC0EB
:1019500002F01DC003F046EC94F002C020F003C07A
:1019600021F062C01EF063C01FF01FBEBAEF8CF002
:10197000BCEF8CF0D1EF8CF020501E5C1F50800A21
:10198000106E2150800A1058D8A0C9EF8CF0CBEF10
:101990008CF0CDEF8CF0D1EF8CF01EC020F01FC08A
:1019A00021F020C01EF021C01FF060C01AF061C0FD
:1019B0001BF05CB0DEEF8CF0E0EF8CF0FDEF8CF014
:1019C000EEEF8CF0000E046E200E036E0CC005F0DE
:1019D0000DC006F026EC92F0204A212A1A50205C15
:1019E0002150800A106E1B50800A1058D8A0FBEFBF
:1019F0008CF0FDEF8CF0E2EF8CF0000E196E000E13
:101A0000186E22EF8DF01CC0F6FF1DC0F7FF000E10
:101A1000F86E0F0EF76403D00800F55005D0F6CF2E
:101A2000E9FFF7CFEAFFEF50106E1050036E046A23
:101A30000CC005F00DC006F026EC92F01C4A1D2AE1
:101A4000184A192A1E50185C1950800A106E1F502F
:101A5000800A1058D8A02FEF8DF031EF8DF003EFF2
:101A60008DF05CA036EF8DF038EF8DF055EF8DF0F6
:101A700046EF8DF0000E046E200E036E0CC005F0D4
:101A80000DC006F026EC92F0204A212A1A50205C64
:101A90002150800A106E1B50800A1058D8A053EFB6
:101AA0008DF055EF8DF03AEF8DF01200000163BF1D
:101AB0005CEF8DF05EEF8DF05FEF8DF05C9263BFB9
:101AC00066EF8DF064EF8DF06CEF8DF0000E2B6EF5
:101AD000010E2A6E70EF8DF062C02AF063C02BF009
:101AE00060C02CF061C02DF0000E2F6E1F0E2E6E08
:101AF000000EB06FC3EF8DF02E06D8A02F06205039
:101B00000F0B306E090E306488EF8DF08AEF8DF088
:101B100092EF8DF0570E3024286E296A000E29228C
:101B200098EF8DF0300E3024286E296A000E29229D
:101B300028C030F0910E2E24D96E000E2F20DA6EC0
:101B400030C0DFFF2A06D8A02B062C06D8A02D0611
:101B500020C024F021C025F022C026F023C027F0A9
:101B6000050EB8EF8DF0D890273226322532243278
:101B7000E82EB3EF8DF024C020F025C021F026C060
:101B800022F027C023F02FBECFEF8DF02F5009E1B8
:101B9000020E2E5CD8A0CFEF8DF0D1EF8DF0FDEFCF
:101BA0008DF02050211022102310D8A4DAEF8DF0F0
:101BB000DCEF8DF07CEF8DF02BBEE9EF8DF02B503C
:101BC00006E12A04D8B0E7EF8DF0E9EF8DF07CEF65
:101BD0008DF02DBEF4EF8DF02D5008E12C04D8A02F
:101BE000F4EF8DF0F6EF8DF0FDEF8DF05CB2FBEFD2
:101BF0008DF0FDEF8DF07CEF8DF01EC013F01FC057
:101C000014F0910E2E24156E000E2F20166E2CC08F
:101C100017F02DC018F0EDEC92F012000BBE15EF8E
:101C20008EF013EF8EF021EF8EF00CC0D9FF0DC0B7
:101C3000DAFF2D0EDF6E0C4A0D2A0A6C0B1ED8B08F
:101C40000B2A0AC00EF00BC00FF0000E116E010E31
:101C5000106E47EF8EF00AC002F00BC003F0000ECA
:101C6000056E0A0E046E8BEC92F002C00AF003C0FF
:101C70000BF010C002F011C003F0000E056E0A0E4A
:101C8000046E33EC95F002C010F003C011F00AC0EE
:101C900002F00BC003F0000E056E0A0E046E8BEC12
:101CA00092F002500310D8A458EF8EF05AEF8EF045
:101CB0002BEF8EF00EC00AF00FC00BF011BE6BEFD1
:101CC0008EF0115006E11004D8B069EF8EF06BEF82
:101CD0008EF06DEF8EF0ADEF8EF00AC002F00BC00B
:101CE00003F010C004F011C005F08BEC92F002C0BC
:101CF0000AF003C00BF00A50300F0CC0D9FF0DC022
:101D0000DAFFDF6E0C4A0D2A0CC0D9FF0DC0DAFFD6
:101D1000DF6A10C002F011C003F00AC004F00BC06B
:101D200005F033EC95F002500E5C0A6E03500F582C
:101D30000B6E0AC00EF00BC00FF010C002F011C005
:101D400003F0000E056E0A0E046E8BEC92F002C0DA
:101D500010F003C011F05EEF8EF00CC00AF00DC061
:101D60000BF01200000E116E1C0E126E1104D8B48E
:101D7000BCEF8EF0BEEF8EF0ECEF8EF012C008F0EC
:101D800002C009F003C00AF004C00BF005C00CF05B
:101D90000866CDEF8EF0D5EF8EF00C340C320B329E
:101DA0000A320932082EC8EF8EF00F0E09140D6E9C
:101DB000000E0A140E6E000E0B140F6E000E0C14A3
:101DC000106E0D500E100F101010D8B4EAEF8EF0F8
:101DD000ECEF8EF01BEF8FF012C008F002C009F09C
:101DE00003C00AF004C00BF005C00CF00866FBEF5E
:101DF0008EF003EF8FF00C340C320B320A320932C2
:101E0000082EF6EF8EF00F0E0916000E0A16EB0ED6
:101E10000924F66EF80E0A20F76EF86A000EF82212
:101E200006C0D9FF07C0DAFF0800F5CFDFFF064A7A
:101E3000072A010E116E040E125E1250D8A423EF71
:101E40008FF025EF8FF0B6EF8EF00F0E0214086EB4
:101E5000000E0314096EEB0E0824F66EF80E09202E
:101E6000F76EF86A000EF82206C0D9FF07C0DAFF45
:101E70000800F5CFDFFF064A072A06C0D9FF07C0D2
:101E8000DAFFDF6A06C002F007C003F01200000E9E
:101E90000B6E09BE50EF8FF04EEF8FF05AEF8FF0C0
:101EA000091E081E071E066C000E072208220922C2
:101EB000010E0B6E05BE61EF8FF05FEF8FF06BEFE1
:101EC0008FF0051E041E031E026C000E0322042266
:101ED0000522010E0B1A000E0C6E000E0D6E000E88
:101EE0000E6E000E0F6E0650071008100910D8B4C1
:101EF0007CEF8FF07EEF8FF0B4EF8FF0010E0A6E63
:101F000088EF8FF0D89006360736083609360A2A49
:101F100009AE8DEF8FF08FEF8FF082EF8FF0D890BA
:101F20000C360D360E360F360650025C075003583D
:101F30000850045809500558D8A0A1EF8FF0A3EF1E
:101F40008FF0ACEF8FF00650025E0750035A085036
:101F5000045A0950055A0C80D890093208320732C9
:101F600006320A2E8FEF8FF00B50D8B4BAEF8FF0F5
:101F7000BCEF8FF0C4EF8FF00F1E0E1E0D1E0C6C09
:101F8000000E0D220E220F220CC002F00DC003F035
:101F90000EC004F00FC005F01200043405340B6EBF
:101FA0000B50D8A4D6EF8FF0D8EF8FF0E2EF8FF080
:101FB000000E026E000E036E000E046E000E056E23
:101FC0004FEF90F002C006F003C007F004C008F025
:101FD00005C009F0200EF2EF8FF0D89009320832D8
:101FE00007320632E82EEDEF8FF006500A6E048EAF
:101FF000FF0E0216FF0E0316FF0E0416000E051646
:10200000960E0B5E0BBE09EF90F007EF90F01FEFFE
:1020100090F00B50800A970FD8B011EF90F013EFAB
:1020200090F015EF90F0D8EF8FF0D8900532043291
:10203000033202320B3E15EF90F037EF90F01F0E97
:102040000B6425EF90F027EF90F02FEF90F0D8EF92
:102050008FF0D89002360336043605360B060B5047
:10206000D8A435EF90F037EF90F029EF90F00A50B8
:10207000D8B43DEF90F03FEF90F047EF90F0051EA1
:10208000041E031E026C000E03220422052202C05D
:1020900002F003C003F004C004F005C005F0120014
:1020A0009B8C0F013985F19E700ED36E1F0E486F09
:1020B0001F0E496F000E926E300E936E000E946EDE
:1020C0000F0E956E000E806E000E816E000E826EF9
:1020D000000E836E9290929292949394898089825A
:1020E00095869584000E036E0A0E026EEFEC94F056
:1020F000F1EC93F05D0E036EFF0E046E84EC93F032
:1021000046EC95F002C0CDF003C0CEF00001CD51F9
:10211000CE11D8B48EEF90F090EF90F080EF90F069
:102120006C0E036EFF0E046E84EC93F0990E0001AA
:10213000B36FFF0EB46FB10EB56F000EB66F87ECC4
:1021400088F0990E0001B36FFF0EB46FB10EB56F3A
:10215000000EB66F000EB76F000EB86F87EC88F0F8
:10216000DE0E0001B36FFE0EB46F000EB56F010EF0
:10217000B66F87EC88F0DE0E0001B36FFE0EB46F11
:10218000000EB56F010EB66F000EB76F000EB86F80
:1021900087EC88F080EF90F013EF00F002C009F0B8
:1021A00003C00AF004C00BF005C00CF00606D8A06E
:1021B0000706062806E10728D8A4E1EF90F0E3EF30
:1021C00090F0F0EF90F0000E036E000E026E48EFFC
:1021D00091F0094A0A2A0B4A0C2A0606D8A00706DB
:1021E00009C0F6FF0AC0F7FF000EF86E0800F550B0
:1021F0000009D8B4FEEF90F000EF91F032EF91F0CB
:102200000BC0F6FF0CC0F7FF000EF86E0800F5508B
:102210000009D8B40EEF91F010EF91F032EF91F089
:1022200006500710D8B417EF91F019EF91F032EF84
:1022300091F009C0F6FF0AC0F7FF000EF86E080023
:10224000F5CF08F00BC0F6FF0CC0F7FF000EF86EDC
:102250000800F5500818D8B430EF91F032EF91F043
:10226000E9EF90F009C0F6FF0AC0F7FF000EF86E24
:102270000800F5CF08F00BC0F6FF0CC0F7FF000E0A
:10228000F86E0800F550085C026E036AD8A00306D9
:102290001200000E0B6E05BE52EF91F050EF91F060
:1022A0005CEF91F0051E041E031E026C000E03225B
:1022B00004220522010E0B6E09BE63EF91F061EF5F
:1022C00091F06BEF91F0091E081E071E066C000EC0
:1022D0000722082209220650071008100910D8B456
:1022E00074EF91F076EF91F0A6EF91F0010E0A6E87
:1022F00080EF91F0D89006360736083609360A2A5C
:1023000009AE85EF91F087EF91F07AEF91F00650EA
:10231000025C075003580850045809500558D8A0CB
:1023200094EF91F096EF91F09EEF91F00650025EDF
:102330000750035A0850045A0950055AD8900932D8
:102340000832073206320A2E87EF91F00B50D8B4CC
:10235000ACEF91F0AEEF91F0B6EF91F0051E041ED8
:10236000031E026C000E03220422052202C002F0AA
:1023700003C003F004C004F005C005F01200000E15
:10238000106E000E0F6E08C0D9FF09C0DAFFDECF55
:10239000F6FFDDCFF7FF000EF86E0800F5502A0AB1
:1023A000D8A4D5EF91F0D7EF91F00BEF92F008C0E1
:1023B000D9FF09C0DAFFDE2A000EDD220AC0D9FFEC
:1023C0000BC0DAFFDFCF0CF0020EDE26DFCF0DF000
:1023D000000EDD220CC0D9FF0DC0DAFFDECF0FF0FA
:1023E000DDCF10F021EF92F00FC002F010C003F02B
:1023F000000E056E0A0E046E33EC95F00E500224AA
:102400000F6E000E0320106E08C0D9FF09C0DAFF5E
:10241000DE2A000EDD2208C0D9FF09C0DAFFDECFB8
:10242000F6FFDDCFF7FF000EF86E0800F550D00F75
:102430000E6E090E0E641FEF92F021EF92F0F4EF92
:1024400091F00FC008F010C009F0120005500610FE
:10245000D8B42DEF92F02FEF92F038EF92F00550B4
:102460000610D8A436EF92F038EF92F03DEF92F0DC
:10247000035071EC95F08AEF92F020EE0AF00550CF
:10248000D9260650DA22DE50DE10D8B44AEF92F098
:102490004CEF92F067EF92F020EE0AF00550D9264B
:1024A0000650DA2210EE03F00550E1260650E22233
:1024B000DE50E65CE650800A0B6EDE50800A0B5858
:1024C000D8B065EF92F067EF92F08AEF92F020EECD
:1024D00003F00550D9260650DA22DECF07F0DDCF13
:1024E00008F005C0D9FF06C0DAFFDECF09F0DDCF66
:1024F0000AF007500924D96E08500A20DA6E03C08A
:10250000DFFF20EE03F00550D9260650DA22DE2A3E
:10251000000EDD221200000E076E05BE94EF92F051
:1025200092EF92F09AEF92F0046C051ED8B0052A53
:10253000010E076E03BEA1EF92F09FEF92F0A7EF9E
:1025400092F0026C031ED8B0032A010E071A000E87
:10255000096E000E086E04500510D8B4B2EF92F068
:10256000B4EF92F0DCEF92F0010E066EBCEF92F049
:10257000D89004360536062A05AEC1EF92F0C3EFB7
:1025800092F0B8EF92F0D890083609360450025C09
:1025900005500358D8A0CFEF92F0D1EF92F0D6EFCC
:1025A00092F00450025E0550035A0880D89005321C
:1025B0000432062EC3EF92F00750D8B4E2EF92F047
:1025C000E4EF92F0E8EF92F0086C091ED8B0092A07
:1025D00008C002F009C003F012005CA0F2EF92F014
:1025E000F4EF92F0FEEF92F015C00CF016C00DF073
:1025F00013C00EF014C00FF091EC94F018BE03EF6E
:1026000093F005EF93F00BEF93F017C01CF018C098
:102610001DF00FEF93F0000E1D6E000E1C6E000EED
:102620001B6E000E1A6E21EF93F0000E046E200E4A
:10263000036E13C005F014C006F026EC92F01A4A9F
:102640001B2A1C501A5C1B50800A196E1D50800AF0
:102650001958D8A02EEF93F030EF93F015EF93F0C8
:102660005CB035EF93F037EF93F041EF93F015C086
:102670000CF016C00DF013C00EF014C00FF091EC6A
:1026800094F0120061EF93F007C002F008C003F06D
:1026900005C0F6FF06C0F7FF000EF86E0F0EF764D8
:1026A00003D00800F55005D0F6CFE9FFF7CFEAFFD9
:1026B000EF5057EC95F002C007F003C008F0054A50
:1026C000062A05C0F6FF06C0F7FF000EF86E0F0ED3
:1026D000F76403D00800F55005D0F6CFE9FFF7CF37
:1026E000EAFFEF500009D8A478EF93F07AEF93F067
:1026F00044EF93F007C0D9FF08C0DAFFDF6A07C0D4
:1027000005F008C006F01200000E086E000E076EFD
:10271000A5EF93F007500324056E08500420066EC1
:1027200005C0F6FF06C0F7FF000EF86E0F0EF76447
:1027300003D00800F55005D0F6CFE9FFF7CFEAFF48
:10274000EF5071EC95F0074A082A07500324056EF4
:1027500008500420066E05C0F6FF06C0F7FF000E05
:10276000F86E0F0EF76403D00800F55005D0F6CFD1
:10277000E9FFF7CFEAFFEF500009D8A4C2EF93F0CA
:10278000C4EF93F08AEF93F01200CA0EF66E2A0E91
:10279000F76E010EF86E00EECFF010EE17F00900A4
:1027A000F5CFEEFFE550E150FAE101EE40F012EE18
:1027B00048F0EE6AE550E150FCE1E250FAE101EE4A
:1027C00000F0400EEE6AE806FDE100EE60F0530E08
:1027D000EE6AE806FDE15C6A5D905D92000150EFF3
:1027E00090F0550EA76EAA0EA76E0E01BF91160EA1
:1027F000F76F060ED76F550EA76EAA0EA76EBF8194
:10280000959C958A000EA86EA88AA894000E9C6ECE
:102810009C8E9C88000E7C6E7C96040E026E000ED0
:10282000036E0BEC95F005C07DFF06C0ABFF04B056
:1028300002D0A89401D0A884120048C04CF049C02E
:102840004DF031EF94F046C031F047C032F04C0EFD
:10285000336E000E346E4AC035F04BC036F000ECDB
:1028600080F04CC0F6FF4DC0F7FF000EF86E080078
:10287000F5500009D8A43FEF94F041EF94F023EF16
:1028800094F0000E476E000E466E120002C004F077
:1028900003C005F04EEF94F0024A032A02C0F6FF8F
:1028A00003C0F7FF000EF86E0F0EF76403D00800A8
:1028B000F55005D0F6CFE9FFF7CFEAFFEF5000095A
:1028C000D8A465EF94F067EF94F04CEF94F00450C7
:1028D000025C026E05500358036E1200000E161AB9
:1028E000000E171A000E181A800E191A12C002F0E4
:1028F00013C003F014C004F015C005F016C006F0B4
:1029000017C007F018C008F019C009F066EC82F093
:1029100002C012F003C013F004C014F005C015F09B
:102920001200000E126E000E116EA2EF94F010C095
:1029300003F0046A0EC005F00FC006F026EC92F01A
:10294000114A122A11500C24D96E12500D20DA6E41
:10295000DF50106E1050D8A4B0EF94F0B2EF94F0A6
:1029600097EF94F012000DBEC0EF94F00D5006E109
:102970000C04D8B0BEEF94F0C0EF94F0CEEF94F01A
:102980000CC00EF00DC00FF00E1E0F1E0E4A0F2AC7
:102990000EC00CF00FC00DF0D2EF94F00CC00CF094
:1029A0000DC00DF012000250031004100510D8B431
:1029B000DCEF94F0DEEF94F0E6EF94F0000E021AF4
:1029C000000E031A000E041A800E051A02C002F04F
:1029D00003C003F004C004F005C005F01200000EAF
:1029E000066E000E056EFFEF94F09C0E046ED70E7F
:1029F000E82EFED7042EFCD700F0054A062A025026
:102A0000055C03500658D8A008EF95F00AEF95F042
:102A1000F5EF94F0120002C0D9FF03C0DAFFDF6ABD
:102A200020EE01F00250D9260350DA22DF6A20EEB0
:102A300002F00250D9260350DA220C0EDF6E12008B
:102A4000500E5A6E000E5B6E000E466E000E476E04
:102A50004EC048F04FC049F05A0E4A6E000E4B6E01
:102A60001DEC94F0120002500402F3CF06F0F4CFF4
:102A700007F002500502F350072603500402F350FA
:102A8000072606C002F007C003F01200A4BA4BEFFD
:102A900095F04DEF95F053EF95F0000E036E000E9C
:102AA000026E56EF95F0AACF02F0036A1200046E90
:102AB00002C0D9FF03C0DAFF04C0DFFF024A032AC5
:102AC00002C002F003C003F012003031323334355B
:102AD00036373839616263646566286E756C6C29B7
:012AE00000F5
:102AE200026EA8A277EF95F079EF95F072EF95F06C
:0A2AF20002C0A9FF12005D9211005E
:08FFF80088F73DFF61FA81F971
:00000001FF
