:0400000009EF00F014
:100008005F82B8EF1EF05F921100B0EF1CF0F70EA0
:100018000201206FF70E216F60C222F261C223F243
:100028008CECFEF06A0E0201206FF80E216F20EEB4
:1000380017F06051D9266151DA22DECF22F2DDCFE6
:1000480023F28CECFEF0020120EE17F06051D92665
:100058006151DA22DECF91F0DDCF92F0000E00017F
:10006800946FA50E936F57C295F058C296F0B1ECF5
:100078000FF02D0E0201206FFB0E216F8CECFEF0AD
:10008800020120EE17F06051D9266151DA22DECF45
:1000980068F2DDCF69F220EE17F06051D926615180
:1000A800DA22DECF64F2DDCF65F25751642758516A
:1000B8006523FF0E6425666FFF0E6521676F20EECE
:1000C8001DF06051D9266151DA2266C2DEFF67C28F
:1000D800DDFF55515611D8B474EF00F076EF00F0FB
:1000E800C2EF00F0480E206FFB0E216F8CECFEF083
:1000F800000E02016C6F6C515525646F000E56217D
:10010800656F64C2F6FF65C2F7FF000EF86E6C51AA
:100118006025666F000E6121676F190E6625D96E1E
:10012800000E6721DA6E0800F5CFDFFF6C51552508
:10013800646F000E5621656F64C2F6FF65C2F7FF53
:10014800000EF86E0800F5500009D8A4AEEF00F0D4
:10015800B0EF00F0B2EF00F0BBEF00F06C2B030E35
:100168006C65B9EF00F0BBEF00F07FEF00F020EE18
:100178001CF06051D9266151DA22DF6A020E5D65F2
:10018800C8EF00F0CAEF00F0D4EF00F0900E206F37
:10019800F80E216F030E236FE60E226F8CECFEF033
:1001A800020E02015D65DBEF00F0DDEF00F0DFEF2E
:1001B80000F0020E5D6F20EE16F06051D9266151F5
:1001C800DA225DC2DFFF020E60250001916F000E8A
:1001D800020161210001926F24EC1FF00C0E020154
:1001E80060250001916F000E020161210001926FEC
:1001F80024EC1FF0020120EE08F06051D92661516D
:10020800DA2260C2DEFF61C2DDFF030E646F000EFA
:10021800656F5D51645F000E655B20EE0CF0605108
:10022800D9266151DA2264C2DEFF65C2DDFF20EE05
:1002380012F06051D9266151DA2260C2DEFF61C234
:10024800DDFF0A0EF2612BEF01F02DEF01F088EFD0
:1002580001F0BB0E6A6FFF0E6B6F46EF01F0A8A2AC
:1002680038EF01F03AEF01F033EF01F06AC2F6FF20
:100278006BC2F7FF000EF86E0800F5CFA9FF020168
:100288006A4B6B2B6AC2F6FF6BC2F7FF000EF86E63
:100298000800F5500009D8A454EF01F056EF01F01A
:1002A80033EF01F0A8A25BEF01F05DEF01F056EF2C
:1002B80001F0050EF66EF70EF76E000EF86E0800E8
:1002C800F5CFA9FFA8A26BEF01F06DEF01F066EF83
:1002D80001F0060EF66EF70EF76E000EF86E0800C7
:1002E800F5CFA9FFA8A27BEF01F07DEF01F076EF33
:1002F80001F00D0EA96EA8A284EF01F086EF01F0BF
:100308007FEF01F00A0EA96E68C241F269C242F29B
:1003180052C243F253C244F254C245F25BC246F29F
:100328005CC247F234ECF9F060C2D9FF61C2DAFF6F
:10033800020141C2DEFF42C2DDFF5E515F11D8B447
:10034800A8EF01F0AAEF01F0B2EF01F05EC2D9FF09
:100358005FC2DAFF60C2DEFF61C2DDFF1200000E7D
:10036800426E030E436E42C046F043C047F042500F
:100378004310D8B4C2EF01F0C4EF01F01AEF03F054
:100388002F0E446E000E456EFFEF02F02DC0F6FFF3
:100398002EC0F7FF000EF86E0800F550250AD8A405
:1003A800D8EF01F0DAEF01F0EBEF02F02D4A2E2A38
:1003B800BFEF02F044C0D9FF45C0DAFFDF50416EFD
:1003C800020E4426000E452246C001F047C002F046
:1003D8004150FFEC1EF001C046F002C047F0FDEFAF
:1003E80002F044C0D9FF45C0DAFFDECF3BF0DDCFD5
:1003F8003CF0020E4426000E45223BC009F03CC0EA
:100408000AF046C00BF047C00CF0C6EC11F009C06A
:1004180046F00AC047F0FDEF02F044C0D9FF45C0DE
:10042800DAFFDECF37F0DECF38F0DECF39F0DECFBF
:100438003AF0040E4426000E452237C01AF038C0A0
:100448001BF039C01CF03AC01DF0000E1F6E020EE2
:100458001E6E46C020F047C021F06EEC0CF01AC0AA
:1004680046F01BC047F0FDEF02F044C0D9FF45C07D
:10047800DAFFDECF3DF0DDCF3EF0020E4426000E5F
:1004880045223DC004F03EC005F046C006F047C016
:1004980007F007EC1DF004C046F005C047F0FDEF7B
:1004A80002F044C0D9FF45C0DAFFDECF3FF0DDCF10
:1004B80040F0020E4426000E45223FC001F040C025
:1004C80002F0000E036E46C004F047C005F0D9ECF8
:1004D800FCF001C046F002C047F0FDEF02F044C056
:1004E800D9FF45C0DAFFDECF33F0DECF34F0DECF00
:1004F80035F0DECF36F0040E4426000E452233C018
:1005080001F034C002F035C003F036C004F046C034
:1005180005F047C006F04FEC14F001C046F002C0E9
:1005280047F0FDEF02F0250E046E000E056E46C082
:1005380006F047C007F007EC1DF004C046F005C000
:1005480047F02DC0F6FF2EC0F7FF000EF86E08002A
:10055800F550316E326A31C004F032C005F046C041
:1005680006F047C007F007EC1DF004C046F005C0D0
:1005780047F0FDEF02F02DC0F6FF2EC0F7FF000E8A
:10058800F86E0800F550316E326A3250000AD8B45D
:10059800D0EF02F097EF02F03150630AD8B4DEEFE3
:1005A80001F0070AD8B4F5EF01F0020AD8B411EF48
:1005B80002F0160AD8B473EF02F0030AD8B439EF80
:1005C80002F00B0AD8B455EF02F097EF02F046C0DC
:1005D80001F047C002F02DC0F6FF2EC0F7FF000E55
:1005E800F86E0800F550FFEC1EF001C046F002C09E
:1005F80047F02D4A2E2A2DC0F6FF2EC0F7FF000E19
:10060800F86E0800F5500009D8A40DEF03F00FEFBD
:1006180003F0CAEF01F046C0D9FF47C0DAFFDF6A2E
:1006280042C002F043C003F030EC1BF01200A00EF1
:100638000201206FFA0E216F8CECFEF01D0E0201F4
:10064800206FF90E216F8CECFEF0280E0201206F4E
:10065800FE0E216F41C222F242C223F28CECFEF060
:100668001D0E0201206FF90E216F8CECFEF0210E99
:100678000201206FFD0E216F41C222F242C223F215
:100688008CECFEF0E70E0201206FFD0E216F190EB3
:100698004125226F000E4221236F8CECFEF0F50EEF
:1006A8000201206FFC0E216F20EE16F04151D92671
:1006B8004251DA22DF50436F4351226F236B8CEC97
:1006C800FEF0370E0201206FFD0E216F20EE17F0AD
:1006D8004151D9264251DA22DECF22F2DDCF23F270
:1006E8008CECFEF0A50E0201206FFD0E216F41C2B9
:1006F800D9FF42C2DAFFDECF22F2DDCF23F28CEC43
:10070800FEF08F0E0201206FFD0E216F20EE1DF00E
:100718004151D9264251DA22DECF22F2DDCF23F22F
:100728008CECFEF0BB0E0201206FFD0E216F020E55
:100738004125226F000E4221236F8CECFEF0790ECA
:100748000201206FFD0E216F20EE0AF04151D926DB
:100758004251DA22DECF22F2DDCF23F28CECFEF01A
:100768004D0E0201206FFD0E216F20EE08F0415161
:10077800D9264251DA22DECF22F2DDCF23F28CECE9
:10078800FEF00B0E0201206FFD0E216F20EE04F02B
:100798004151D9264251DA22DECF22F2DDCF23F2AF
:1007A8008CECFEF0630E0201206FFD0E216F20EE2F
:1007B80006F04151D9264251DA22DECF22F2DDCFAE
:1007C80023F28CECFEF0B00E0201206FFC0E216FBC
:1007D80020EE02F04151D9264251DA22DECF22F230
:1007E800DDCF23F28CECFEF0D10E0201206FFD0E5E
:1007F800216F0C0E4125226F000E4221236F8CECD5
:10080800FEF0820E0201206FFC0E216F20EE14F024
:100818004151D9264251DA22DECF22F2DDCF23F22E
:100828008CECFEF0540E0201206FFC0E216F20EEBE
:1008380012F04151D9264251DA22DECF22F2DDCF21
:1008480023F28CECFEF0990E0201206FFC0E216F52
:1008580020EE0EF04151D9264251DA22DECF22F2A3
:10086800DDCF23F28CECFEF06B0E0201206FFC0E44
:10087800216F20EE10F04151D9264251DA22DECF05
:1008880022F2DDCF23F28CECFEF0FD0E0201206F88
:10089800FD0E216F20EE0CF04151D9264251DA228B
:1008A800DECF22F2DDCF23F28CECFEF012008EC3F5
:1008B80041F28FC342F21BEC03F0F2CFE6FFF29E47
:1008C8000201F02B4F0E206FFA0E216FF0C222F2B8
:1008D800236B8CECFEF00201E351E411D8A477EF0E
:1008E80004F079EF04F090EF04F0B60E206FF80EE4
:1008F800216F8CECFEF08EC3E3F28FC3E4F20201A9
:10090800F005D8A48AEF04F08CEF04F0B9EF04F0F6
:10091800ACEC1AF0B9EF04F0D60E206FF80E216F88
:100928008CECFEF00201EE51D8A49DEF04F09FEF8D
:1009380004F0B9EF04F020EE16F0E351D926E451A3
:10094800DA22030110EE16F08E51E1268F51E222D1
:10095800DE50E65CD8A0B3EF04F0B5EF04F0B9EFD1
:1009680004F08EC3E3F28FC3E4F20201EC2B03011F
:1009780020EE1FF08E51D9268F51DA22ECC2DFFF0C
:1009880020EE16F08E51D9268F51DA22DE50020160
:10099800EF5DD8B0D2EF04F0D4EF04F0DEEF04F04E
:1009A800030120EE16F08E51D9268F51DA22DF503E
:1009B8000201EF6F030120EE16F08E51D9268F51F8
:1009C800DA22DF50906F9051090DAC0EF324D96EE6
:1009D800000EF420DA6EDECF93F3DDCF94F320EE31
:1009E80004F08E51D9268F51DA2293C3DEFF94C3C7
:1009F800DDFF20EE04F09351D9269451DA2210EE4F
:100A080006F08E51E1268F51E222DECFE6FFDDCFE0
:100A1800E5FF020E8E25906F000E8F21916F20EE5C
:100A280004F09351D9269451DA2210EE02F0DE50E8
:100A3800E126DD50E22290C3E6FF91C3E5FF020EF6
:100A48008E25906F000E8F21916F20EE04F0935148
:100A5800D9269451DA2290C3DEFF91C3DDFF20EE40
:100A680016F08E51D9268F51DA22DF50906F9051AF
:100A7800090DAB0EF324916F000EF420926F20EE57
:100A88000AF08E51D9268F51DA2291C3DEFF92C324
:100A9800DDFF20EE16F08E51D9268F51DA22DF5075
:100AA800906F9051090DAB0EF324D96E000EF4200F
:100AB800DA6EDF2AE552E7AE64EF05F066EF05F07F
:100AC80067EF05F0F28E0201EE51D8B46EEF05F033
:100AD80070EF05F089EF05F0030120EE16F08E5156
:100AE800D9268F51DA22020110EE16F0E351E126E1
:100AF800E451E222DE50E65CD8B085EF05F087EFDE
:100B080005F089EF05F0ACECAEF0E3C241F2E4C2C7
:100B180042F21BEC03F0000E0201DC6F000EDD6FE9
:100B280097EC05F01200F0C2DEF20201F051100D50
:100B3800F3CFB7F2F4CFB8F2CAEC06F0B7C2E1F2DD
:100B4800B8C2E2F2CD0E0201206FF70E216F8CECD5
:100B5800FEF06B0E0201206FFA0E216F8CECFEF096
:100B6800CF0E0201206FF70E216F8CECFEF0020110
:100B7800E151E211D8B4C3EF05F0C5EF05F0C9EFB4
:100B880006F0E1C2D3F2E2C2D4F2DEC2D5F2000E20
:100B9800D66F000ED76F0DEC13F00201DE6F000E5A
:100BA800E06FB4EF06F0580E0201DF6F31EF06F088
:100BB800520E0201DF6F31EF06F0420E0201DF6FC5
:100BC80031EF06F0530E0201DF6F31EF06F0440EED
:100BD8000201DF6F31EF06F0000E0201DF6F31EF27
:100BE80006F0E051100DF3CF80F3F4CF81F3030149
:100BF80080510201E1250301826F81510201E22146
:100C08000301836F050E8225D96E000E8321DA6EEB
:100C1800DF50846F856B8551000AD8B416EF06F053
:100C2800F0EF05F08451000AD8B4D7EF05F0010AB7
:100C3800D8B4DCEF05F0030AD8B4E1EF05F0010AF7
:100C4800D8B4E6EF05F0070AD8B4EBEF05F0010ACF
:100C5800D8B4F0EF05F0F0EF05F0FB0E206FFF0EB3
:100C6800216FE051100DF3CF80F3F4CF81F303012E
:100C780080510201E1250301826F81510201E221C5
:100C88000301836F020E8225D96E000E8321DA6E6E
:100C9800DECF22F2DDCF23F28CECFEF0950E0201BE
:100CA800206FFE0E216FDFC222F2236BE051100D80
:100CB800F3CF80F3F4CF81F3030180510201E125E2
:100CC8000301826F81510201E2210301836F060E45
:100CD8008225D96E000E8321DA6EDF50846F84512D
:100CE8000201246F256BE051100DF3CF85F3F4CF8B
:100CF80086F3030185510201E1250301876F8651BF
:100D08000201E2210301886F0E0E8725D96E000EBD
:100D18008821DA6EDECF26F2DDCF27F20201E0511C
:100D2800100DF3CF89F3F4CF8AF30301895102013F
:100D3800E12503018B6F8A510201E22103018C6FC7
:100D4800040E8B25D96E000E8C21DA6EDF508D6F64
:100D58008D510201286F296B8CECFEF00201E02B0B
:100D6800DE51E05DD8A0BBEF06F0BDEF06F0F5EF71
:100D780005F0CF0E206FF70E216F8CECFEF0E1C26C
:100D8800B7F2E2C2B8F272EC15F01200000E0201DE
:100D9800BB6F000EBC6FF9ECFFF00001A751A81162
:100DA800D8A4D9EF06F0DBEF06F0DDEF06F079EC1A
:100DB80018F00201B751B811D8B4E5EF06F0E7EF23
:100DC80006F0FCEF06F0FA0EB75DFF0EB859D8B082
:100DD800F0EF06F0F2EF06F0F8EF06F0060EB72790
:100DE800000EB823FCEF06F0000EB86F000EB76FC8
:100DF800B8BF01EF07F003EF07F0EEEF07F0B751C8
:100E0800B811D8B40AEF07F00CEF07F0EEEF07F0CF
:100E1800B7510001A55D0201B8510001A659D8A03B
:100E280018EF07F01AEF07F0EEEF07F0FC0E0201DB
:100E3800BF6F020EC06FFCC2C1F2FDC2C2F231EF39
:100E480007F0C1C2BFF2C2C2C0F2C1C2D9FFC2C25A
:100E5800DAFFDECFC1F2DDCFC2F220EE02F0C151DF
:100E6800D926C251DA22B751DE5CB851DE58D8B063
:100E780040EF07F042EF07F04FEF07F0C1C2D9FF8C
:100E8800C2C2DAFFDE50DE10D8A44DEF07F04FEFF4
:100E980007F025EF07F00001A7510201C1190BE186
:100EA8000001A8510201C219D8B45DEF07F05FEF45
:100EB80007F0EEEF07F0BFC2D9FFC0C2DAFFDECFFE
:100EC800B9F2DDCFBAF2050EB925BB6F000EBA2113
:100ED800BC6FC1C2D9FFC2C2DAFFBFC2E1FFC0C244
:100EE800E2FFDECFE6FFDDCFE5FF20EE02F0C151E5
:100EF800D926C251DA22DECFB9F2DDCFBAF2B75124
:100F0800B95FB851BA5BBA5109E10B0EB95DD8A007
:100F180090EF07F092EF07F0C0EF07F0B751C12547
:100F2800BD6FB851C221BE6F20EE02F0C151D92663
:100F3800C251DA22DECFB9F2DDCFBAF2B751B95FCA
:100F4800B851BA5B20EE02F0BD51D926BE51DA2263
:100F5800B9C2DEFFBAC2DDFF20EE02F0C151D926C8
:100F6800C251DA22B7C2DEFFB8C2DDFFBDC291F0BE
:100F7800BEC292F0AFEC0AF0020120EE02F0C151BD
:100F8800D926C251DA22DE500001A55FDD50A65BEA
:100F9800A351A55DA451A659D8B0D5EF07F0D7EF56
:100FA80007F0DBEF07F0A5C0A3F0A6C0A4F002018C
:100FB80020EE02F0C151D926C251DA22010EDB8E91
:100FC800C1C2D9FFC2C2DAFFDE6ADD6A584A592AAD
:100FD800EEEF07F008ECF5F0BBC2B7F2BCC2B8F20E
:100FE80012000201B751B811D8B4FDEF07F0FFEFB6
:100FF80007F005EF08F0B7C2BFF2B8C2C0F209EFB8
:1010080008F0E3C2BFF2E4C2C0F2B9C2D9FFBAC263
:10101800DAFFBFC2DEFFC0C2DDFF190EBF25BD6FFC
:10102800000EC021BE6F20EE02F0B951D926BA5188
:10103800DA22BDC2DEFFBEC2DDFF20EE16F0BF51D0
:10104800D926C051DA2210EE06F0B951E126BA517C
:10105800E222DFCFE7FF20EE17F0BF51D926C051BB
:10106800DA2210EE0CF0B951E126BA51E222DECFB5
:10107800E6FFDDCFE5FF20EE1FF0BF51D926C051B6
:10108800DA2210EE04F0B951E126BA51E222DFCF9C
:10109800E7FF20EE07F0B951D926BA51DA22DF6A04
:1010A80020EE08F0B951D926BA51DA22DE6ADE6A92
:1010B800DE6ADD6A050EBC19D8B465EF08F067EF83
:1010C80008F0ABEF08F0E351BF1907E1E451C0198C
:1010D800D8A471EF08F073EF08F07CEF08F020EE69
:1010E80005F0B951D926BA51DA22DF6ABBEF08F008
:1010F80020EE05F0B951D926BA51DA22BCC2DFFF79
:10110800030EBC19D8A48BEF08F08DEF08F0BBEFE5
:1011180008F0F9ECFFF0020120EE14F0BF51D926D7
:10112800C051DA22DE50DE10D8B49DEF08F09FEFF0
:1011380008F0A7EF08F020EE05F0B951D926BA510A
:10114800DA22020EDF6E08ECF5F0BBEF08F0BFC242
:1011580041F2C0C242F2EEEC0EF00201BD6F20EE89
:1011680005F0B951D926BA51DA22BDC2DFFF020112
:10117800BB51D8B4C2EF08F0C4EF08F0DEEF08F0B6
:1011880020EE1DF0BF51D926C051DA22DECF91F0F2
:10119800DDCF92F030EC1DF0020120EE0EF0B951D7
:1011A800D926BA51DA22000191C0DEFF92C0DDFFD4
:1011B800E6EF08F020EE0EF0B951D926BA51DA223E
:1011C800DE6ADD6A1200000E0201CE6FC3C2D9FFCB
:1011D800C4C2DAFFDF50D8B4F4EF08F0F6EF08F035
:1011E800CAEF09F0C3C2CFF2C4C2D0F220EE01F0B8
:1011F800CF51D926D051DA2210EE02F0DE50E12686
:10120800DD50E22220EE01F0CF51D926D051DA226A
:10121800E6CFDEFFE5CFDDFF030ECF25C66F000E5C
:10122800D021C76F20EE01F0CF51D926D051DA2254
:10123800C651DE1807E1C751DE18D8A426EF09F019
:1012480028EF09F03EEF09F020EE01F0CF51D92642
:10125800D051DA2210EE02F0DE50E126DD50E22213
:1012680020EE01F0CF51D926D051DA22E6CFDEFFA9
:10127800E5CFDDFF20EE01F0CF51D926D051DA229B
:1012880010EE06F0DE50E126DD50E222E6CFCAF28B
:10129800E5CFCBF2C3C2D1F2C4C2D2F220EE01F044
:1012A800D151D926D251DA2210EE02F0DE50E126D1
:1012B800DD50E22220EE01F0D151D926D251DA22B6
:1012C800E6CFDEFFE5CFDDFF030ED125C66F000EAA
:1012D800D221C76F20EE01F0D151D926D251DA229E
:1012E800C651DE1807E1C751DE18D8A47EEF09F011
:1012F80080EF09F096EF09F020EE01F0D151D926E0
:10130800D251DA2210EE02F0DE50E126DD50E22260
:1013180020EE01F0D151D926D251DA22E6CFDEFFF4
:10132800E5CFDDFF20EE01F0D151D926D251DA22E6
:1013380010EE06F0DE50E126DD50E222E6CFCCF2D8
:10134800E5CFCDF2CCC2B7F2CDC2B8F2CE51100D76
:10135800F3CFC6F2F4CFC7F2C651C125B96FC75152
:10136800C221BA6F010EBB6FC5C2BCF2F5EC07F023
:101378000201CE2BCA51CC1907E1CB51CD19D8A403
:10138800C8EF09F0CAEF09F04EEF09F0CE5112008C
:101398000DC291F00EC292F00FC293F010C294F0F9
:1013A80088EC16F091C018F292C019F218C299F0A0
:1013B80019C29AF013C29BF014C29CF06DEC10F0A5
:1013C80099C013F29AC014F213C2D9FF14C2DAFFFB
:1013D8002E0EDF6E0201134B142B0DC204F20EC247
:1013E80005F20FC206F210C207F218C291F019C234
:1013F80092F00001000E92BFFF0E936F946F010EE2
:1014080092EC0BF091C008F292C009F293C00AF274
:1014180094C00BF2A0EC1DF004C21CF205C21DF230
:1014280006C21EF207C21FF202011FBF20EF0AF018
:101438001EEF0AF032EF0AF01CC291F01DC292F0C2
:101448001EC293F01FC294F041EC1EF091C01CF232
:1014580092C01DF293C01EF294C01FF2000E02014A
:10146800176F000E166F96EF0AF01CC291F01DC29E
:1014780092F01EC293F01FC294F0000E0001956F07
:10148800000E966F200E976F410E986F7BECF0F070
:1014980091C01CF292C01DF293C01EF294C01FF2BC
:1014A8001CC291F01DC292F01EC293F01FC294F0AC
:1014B80088EC16F091C01AF292C01BF202011A5180
:1014C800300F13C2D9FF14C2DAFFDF6E134B142B8F
:1014D8001CC204F21DC205F21EC206F21FC207F2A8
:1014E8001AC291F01BC292F00001000E92BFFF0ECB
:1014F800936F946F010E92EC0BF091C008F292C0BA
:1015080009F293C00AF294C00BF2A0EC1DF004C2D9
:101518001CF205C21DF206C21EF207C21FF202012A
:10152800164B172B1151165D1751800A156F125162
:10153800800A1559D8A0A3EF0AF0A5EF0AF039EFF1
:101548000AF013C2D9FF14C2DAFFDF6A13C20DF220
:1015580014C20EF21200FC0E00019B6F020E9C6F6B
:10156800BEEF0AF09BC0D9FF9CC0DAFFDECF9BF02C
:10157800DDCF9CF09BC0D9FF9CC0DAFF9151DE5CA7
:101588009251DE58D8A0CBEF0AF0CDEF0AF0B6EFB3
:101598000AF09BC099F09CC09AF020EE02F09B5193
:1015A800D9269C51DA22DECF93F0DDCF94F0935107
:1015B8009925956F94519A21966F9151951907E144
:1015C80092519619D8A4EBEF0AF0EDEF0AF005EF67
:1015D8000BF020EE02F09151D9269251DA22DECF9B
:1015E80093F0DDCF94F020EE02F09B51D9269C5168
:1015F800DA229351DE269451DD229BC091F09CC0E3
:1016080092F091C099F092C09AF09BC0D9FF9CC00B
:10161800DAFF10EE02F09151E1269251E222E6CF74
:1016280095F0E5CF96F095519925976F96519A21A7
:10163800986FDE50971907E1DE509819D8A427EF64
:101648000BF029EF0BF071EF0BF09BC0D9FF9CC09A
:10165800DAFFA751DE1809E1A851DE18D8B437EF30
:101668000BF039EF0BF067EF0BF09BC0D9FF9CC074
:10167800DAFF10EE02F0DE50E126DD50E222E6CF7E
:1016880093F0E5CF94F020EE02F09151D9269251D3
:10169800DA229351DE269451DD229BC0D9FF9CC0EB
:1016A800DAFFDECF93F0DDCF94F093C0D9FF94C07A
:1016B800DAFF91C0E1FF92C0E2FFDECFE6FFDDCFA7
:1016C800E5FF7DEF0BF091C0D9FF92C0DAFFA7C00C
:1016D800DEFFA8C0DDFF7DEF0BF09BC0D9FF9CC0EB
:1016E800DAFF91C0E1FF92C0E2FFDECFE6FFDDCF77
:1016F800E5FF91519B1909E192519C19D8B487EFE4
:101708000BF089EF0BF091EF0BF09BC0D9FF9CC059
:10171800DAFF91C0DEFF92C0DDFF12000001996F71
:1017280000019951D8B49BEF0BF09DEF0BF0BFEF80
:101738000BF094BFA4EF0BF0A2EF0BF0BFEF0BF090
:1017480091C095F092C096F093C097F094C098F02D
:10175800951F961F971F981F952B000E962397236A
:10176800982395C09BF096C09CF097C09DF098C0B8
:101778009EF0C7EF0BF091C09BF092C09CF093C015
:101788009DF094C09EF09151921193119411D8A498
:10179800D0EF0BF0D2EF0BF0DCEF0BF0000E916FF7
:1017A800000E926F000E936F000E946F6DEF0CF0A9
:1017B800960E9A6FE6EF0BF09A2BD8909E339D33D6
:1017C8009C339B33000E9B15956F000E9C15966FEE
:1017D800000E9D15976FFE0E9E15986F95519611E8
:1017E80097119811D8A4FBEF0BF0FDEF0BF0E0EF89
:1017F8000BF00BEF0CF09A2B010E9B27000E9C238D
:101808009D239E23D8909E339D339C339B33000E9B
:101818009B15956F000E9C15966F000E9D15976F82
:10182800FF0E9E15986F9551961197119811D8A48F
:1018380020EF0CF022EF0CF0FFEF0BF02AEF0CF08A
:101848009A07D8909B379C379D379E379DBF2FEFBF
:101858000CF031EF0CF039EF0CF0020E9A6137EF13
:101868000CF039EF0CF024EF0CF09AB13EEF0CF0CD
:1018780040EF0CF041EF0CF09D9FD8909A339AC03E
:1018880095F0966B976B986B95C098F0976B966BE5
:10189800956B95519B1396519C1397519D13985195
:1018A8009E139951D8B45BEF0CF05DEF0CF065EF27
:1018B8000CF094BF64EF0CF062EF0CF065EF0CF0E5
:1018C8009E8F9BC091F09CC092F09DC093F09EC0EB
:1018D80094F012001AC001F01BC002F01CC003F003
:1018E8001DC004F00CEC17F001C025F002C026F072
:1018F80025C009F026C00AF020C00BF021C00CF06A
:10190800C6EC11F009C020F00AC021F020C0D9FFB0
:1019180021C0DAFF2E0EDF6E204A212A1AC011F0EC
:101928001BC012F01CC013F01DC014F025C001F03C
:1019380026C002F0000E02BEFF0E036E046E010EFA
:1019480049EC0DF001C015F002C016F003C017F005
:1019580004C018F0C4EC1DF011C029F012C02AF020
:1019680013C02BF014C02CF02CBEBFEF0CF0BDEF51
:101978000CF0D1EF0CF029C001F02AC002F02BC006
:1019880003F02CC004F05EEC1EF001C029F002C088
:101998002AF003C02BF004C02CF0000E246E000EB9
:1019A800236E30EF0DF029C001F02AC002F02BC0E1
:1019B80003F02CC004F0000E056E000E066E200E1B
:1019C800076E410E086E1FECF7F001C029F002C047
:1019D8002AF003C02BF004C02CF029C001F02AC063
:1019E80002F02BC003F02CC004F00CEC17F001C07F
:1019F80027F002C028F02750300F20C0D9FF21C09F
:101A0800DAFFDF6E204A212A29C011F02AC012F01D
:101A18002BC013F02CC014F027C001F028C002F02E
:101A2800000E02BEFF0E036E046E010E49EC0DF0AF
:101A380001C015F002C016F003C017F004C018F07A
:101A4800C4EC1DF011C029F012C02AF013C02BF00D
:101A580014C02CF0234A242A1E50235C2450800AE8
:101A6800226E1F50800A2258D8A03DEF0DF03FEF9C
:101A78000DF0D7EF0CF020C0D9FF21C0DAFFDF6AE4
:101A880020C01AF021C01BF01200096E0950D8B40A
:101A980050EF0DF052EF0DF074EF0DF004BE59EF5A
:101AA8000DF057EF0DF074EF0DF001C005F002C016
:101AB80006F003C007F004C008F0051E061E071E46
:101AC800081E052A000E06220722082205C00BF070
:101AD80006C00CF007C00DF008C00EF07CEF0DF04A
:101AE80001C00BF002C00CF003C00DF004C00EF0F2
:101AF8000150021003100410D8A485EF0DF087EFF1
:101B08000DF091EF0DF0000E016E000E026E000E4A
:101B1800036E000E046E22EF0EF0960E0A6E9BEF17
:101B28000DF00A2AD8900E320D320C320B32000E0C
:101B38000B14056E000E0C14066E000E0D14076EC5
:101B4800FE0E0E14086E0550061007100810D8A4D3
:101B5800B0EF0DF0B2EF0DF095EF0DF0C0EF0DF016
:101B68000A2A010E0B26000E0C220D220E22D890F6
:101B78000E320D320C320B32000E0B14056E000EB5
:101B88000C14066E000E0D14076EFF0E0E14086E70
:101B98000550061007100810D8A4D5EF0DF0D7EFA0
:101BA8000DF0B4EF0DF0DFEF0DF00A06D8900B360C
:101BB8000C360D360E360DBEE4EF0DF0E6EF0DF0E7
:101BC800EEEF0DF0020E0A60ECEF0DF0EEEF0DF007
:101BD800D9EF0DF00AB0F3EF0DF0F5EF0DF0F6EFD9
:101BE8000DF00D9ED8900A320AC005F0066A076A01
:101BF800086A05C008F0076A066A056A05500B12EC
:101C080006500C1207500D1208500E120950D8B485
:101C180010EF0EF012EF0EF01AEF0EF004BE19EFEF
:101C28000EF017EF0EF01AEF0EF00E8E0BC001F04B
:101C38000CC002F00DC003F00EC004F01200E9C29F
:101C480003F2EAC204F2020E0201E3250001916FD9
:101C5800000E0201E4210001926FEBEC18F0020182
:101C6800002906E10129D8A43CEF0EF03EEF0EF062
:101C7800A0EF0EF00251D8B444EF0EF046EF0EF08C
:101C8800A0EF0EF0C7C007F2C8C008F220EE04F0BB
:101C9800E351D926E451DA2207C2DEFF08C2DDFF8C
:101CA80020EE04F00751D9260851DA2210EE06F08A
:101CB800E351E126E451E222DECFE6FFDDCFE5FF86
:101CC800020EE32500019D6F000E0201E4210001D0
:101CD8009E6F020120EE04F00751D9260851DA223E
:101CE80010EE02F0DE50E126DD50E2229DC0E6FF54
:101CF8009EC0E5FF020EE32500019D6F000E020164
:101D0800E42100019E6F020120EE04F00751D9265C
:101D18000851DA229DC0DEFF9EC0DDFF20EE0AF0EA
:101D2800E351D926E451DA22C60EDE6E000EDD6ECE
:101D38000001C62BEDEF0EF000510325056F015190
:101D48000421066F20EE02F0E351D926E451DA228D
:101D580005C2DEFF06C2DDFF0351055D04510659C9
:101D6800D8B0B9EF0EF0BBEF0EF0CCEF0EF09FC07D
:101D780091F0A0C092F0020EE3250001936F000ECF
:101D88000201E4210001946FE4EC14F0EDEF0EF091
:101D9800A1C091F0A2C092F0020EE3250001936F5A
:101DA800000E0201E4210001946FE4EC14F002013A
:101DB800E551055DE6510659D8B0E5EF0EF0E7EFBD
:101DC8000EF0EDEF0EF005C2E5F206C2E6F2EDEF19
:101DD8000EF0120041C24EF242C24FF202014E51C1
:101DE8004F11D8A4FAEF0EF0FCEF0EF006EF0FF04B
:101DF800900E206FF80E216F060E236F060E226FCD
:101E08008CECFEF00201E3514E1907E1E4514F1941
:101E1800D8A411EF0FF013EF0FF017EF0FF0000E2B
:101E28004A6FAFEF0FF0F2CFE6FFF29E20EE0AF016
:101E38004E51D9264F51DA22DECF4CF2DDCF4DF28A
:101E4800A1C046F2A2C047F29FC048F2A0C049F222
:101E5800E552E7AE32EF0FF034EF0FF035EF0FF049
:101E6800F28E020146514C1909E147514D19D8B477
:101E780040EF0FF042EF0FF04EEF0FF048514C19C2
:101E880007E149514D19D8A44CEF0FF04EEF0FF070
:101E980052EF0FF0020E4A6FAFEF0FF0C60E4C195B
:101EA80007E1000E4D19D8A45CEF0FF05EEF0FF0BC
:101EB80094EF0FF020EE14F04E51D9264F51DA224C
:101EC800DE50DE10D8A46BEF0FF06DEF0FF04EEF81
:101ED8000FF0030E4A6F000E4B6F4B514E25436FA8
:101EE800000E4F21446F250E4325D96E000E442164
:101EF800DA6EDE04D8A483EF0FF085EF0FF087EFDA
:101F08000FF04EEF0FF04B2B4B51800A7F0FD8A0EC
:101F180090EF0FF092EF0FF071EF0FF0AFEF0FF0BF
:101F2800B00E4C1909E1010E4D19D8B49EEF0FF00F
:101F3800A0EF0FF0A9EF0FF04C514D11D8A4A7EF67
:101F48000FF0A9EF0FF0ADEF0FF0040E4A6FAFEFEF
:101F58000FF0010E4A6F4A51120091C09BF092C0D7
:101F68009CF0000195519611D8A4BDEF0FF0BFEF7A
:101F78000FF0C1EF0FF06CEF10F09BC0D9FF9CC0C1
:101F8800DAFF93C0DFFF95519B25976F96519C21EF
:101F9800986FFF0E9725D96EFF0E9821DA6E93C0C1
:101FA800DFFF965107E1030E955DD8B0DEEF0FF025
:101FB800E0EF0FF0E2EF0FF06CEF10F020EE01F021
:101FC8009B51D9269C51DA2293C0DFFF20EE02F004
:101FD8009B51D9269C51DA2293C0DFFF95519B254E
:101FE800976F96519C21986FFE0E9725D96EFF0E1C
:101FF8009821DA6E93C0DFFF95519B25976F965114
:102008009C21986FFD0E9725D96EFF0E9821DA6EE8
:1020180093C0DFFF965107E1070E955DD8B017EF23
:1020280010F019EF10F01BEF10F06CEF10F020EE2D
:1020380003F09B51D9269C51DA2293C0DFFF9551BA
:102048009B25976F96519C21986FFC0E9725D96E0A
:10205800FF0E9821DA6E93C0DFFF965107E1090E53
:10206800955DD8B03AEF10F03CEF10F03EEF10F06D
:102078006CEF10F09BC097F09CC098F0971F981FCA
:10208800974B982B030E9715996F9A6B99519B272D
:102098009A519C239951955F9A51965BFC0E95171E
:1020A800FF0E961763EF10F09BC0D9FF9CC0DAFFB4
:1020B80093C0DFFF9507D8A096079B4B9C2B9551A3
:1020C8009611D8A46AEF10F06CEF10F058EF10F0EA
:1020D800120000019ABF75EF10F073EF10F081EF56
:1020E80010F09BC0D9FF9CC0DAFF2D0EDF6E9B4B12
:1020F8009C2B996D9A1FD8B09A2B99C000F29AC060
:1021080001F2000E0201036F010E026FA9EF10F039
:1021180099C091F09AC092F0000E946F0A0E936FD6
:1021280057EC19F091C099F092C09AF002C291F060
:1021380003C292F0000E0001946F0A0E936FA4EC94
:102148001EF091C002F292C003F299C091F09AC0B9
:1021580092F0000E0001946F0A0E936F57EC19F07D
:10216800000191519211D8A4BCEF10F0BEEF10F00D
:102178008CEF10F000C299F001C29AF0020103BF7F
:10218800D0EF10F0035106E10205D8B0CEEF10F001
:10219800D0EF10F0D2EF10F018EF11F099C091F0D5
:1021A8009AC092F002C293F003C294F057EC19F06F
:1021B80091C099F092C09AF000019951300F9BC0DC
:1021C800D9FF9CC0DAFFDF6E9B4B9C2B9BC0D9FFCD
:1021D8009CC0DAFFDF6A02C291F003C292F099C094
:1021E80093F09AC094F0A4EC1EF000019151020102
:1021F800005D0001996F92510201015900019A6F27
:1022080099C000F29AC001F202C291F003C292F0A2
:10221800000E946F0A0E936F57EC19F091C002F2FA
:1022280092C003F2C2EF10F09BC099F09CC09AF0E4
:1022380012009B8C0F013985F19E700ED36E1F0E14
:10224800486F1F0E496F000E926E300E936E000E8F
:10225800946E0F0E956E000E806E000E816E000E4D
:10226800826E000E836E92909292929493948980DB
:10227800898295869584000E0001926F0A0E916FEF
:1022880005EC1EF082EC1CF0A00E0001926FFA0E15
:10229800936F68EC1AF01D0E0001926FF90E936FA0
:1022A80068EC1AF0130E0001926FFE0E936F68EC43
:1022B8001AF01D0E0001926FF90E936F68EC1AF078
:1022C800080E0301956F300E966F000E976FE30EA0
:1022D800986FFF0E996F010E9B6F000E9A6F000E9C
:1022E8009C6F000E9D6F010E9E6F000E9F6F000E7B
:1022F800A06FD8ECF2F0FFECE7F0000E0201DC6F03
:10230800000EDD6F97EC05F01E0E0301956F2F0E82
:10231800966F000E976FE70E986FFF0E996F010E7C
:102328009B6F000E9A6F000E9C6F000E9D6F020E41
:102338009E6F000E9F6F000EA06FD8ECF2F00301A5
:10234800AF6F3D0E0201206FFC0E216F020E236F4E
:102358004E0E226F0301AF510201246F256B24BF7B
:1023680025078CECFEF0FFECE7F0000E0201DC6FB5
:10237800000EDD6F97EC05F000EC16F0C2EF11F0DF
:1023880009EF00F00ABECDEF11F0CBEF11F0D9EF55
:1023980011F00BC0D9FF0CC0DAFF2D0EDF6E0B4A0F
:1023A8000C2A096C0A1ED8B00A2A09C00DF00AC006
:1023B8000EF0000E106E010E0F6EFFEF11F009C047
:1023C80001F00AC002F0000E046E0A0E036EBAECA9
:1023D80019F001C009F002C00AF00FC001F010C0E6
:1023E80002F0000E046E0A0E036ECCEC1EF001C063
:1023F8000FF002C010F009C001F00AC002F0000E90
:10240800046E0A0E036EBAEC19F001500210D8A43B
:1024180010EF12F012EF12F0E3EF11F00DC009F017
:102428000EC00AF010BE23EF12F0105006E10F04A0
:10243800D8B021EF12F023EF12F025EF12F065EF7C
:1024480012F009C001F00AC002F00FC003F010C07A
:1024580004F0BAEC19F001C009F002C00AF0095002
:10246800300F0BC0D9FF0CC0DAFFDF6E0B4A0C2A05
:102478000BC0D9FF0CC0DAFFDF6A0FC001F010C033
:1024880002F009C003F00AC004F0CCEC1EF00150C1
:102498000D5C096E02500E580A6E09C00DF00AC094
:1024A8000EF00FC001F010C002F0000E046E0A0E0C
:1024B800036EBAEC19F001C00FF002C010F016EF6D
:1024C80012F00BC009F00CC00AF01200000E066EE4
:1024D8000650020DA20EF324D96E010EF420DA6E16
:1024E800DECF04F0DDCF05F0000E076E0406D8A09D
:1024F8000506072A2F0E076484EF12F086EF12F004
:102508007AEF12F0000E076EA8A28DEF12F08FEF8F
:1025180012F088EF12F004C0D9FF05C0DAFFDF50CF
:10252800016E01380F0B0F0B026E036A050E0224B1
:10253800F66EF70E0320F76EF86A000EF822080010
:10254800F5CFA9FFA8A2ABEF12F0ADEF12F0A6EFFE
:1025580012F004C0D9FF05C0DAFFDF500F0B016E7F
:10256800026A050E0124F66EF70E0220F76EF86A6D
:10257800000EF8220800F5CFA9FFA8A2C6EF12F0B6
:10258800C8EF12F0C1EF12F0200EA96E07500F0B22
:102598000F0AD8A4D2EF12F0D4EF12F0E6EF12F03F
:1025A800A8A2D9EF12F0DBEF12F0D4EF12F00D0E63
:1025B800A96EA8A2E2EF12F0E4EF12F0DDEF12F03C
:1025C8000A0EA96E044A052A072A7F0E0764EFEF50
:1025D80012F0F1EF12F088EF12F0A8A2F6EF12F065
:1025E800F8EF12F0F1EF12F00D0EA96EA8A2FFEFAE
:1025F80012F001EF13F0FAEF12F00A0EA96E062A94
:10260800020E06640AEF13F00CEF13F06CEF12F0F1
:102618001200000E0201DB6F030EDA6FF9ECFFF017
:102628000201F051D55DD8A01CEF13F01EEF13F096
:10263800AAEF13F0DA07DB51100DF3CFD8F2F4CF7D
:10264800D9F2D851D325C16FD951D421C26FDA51EB
:10265800090DAB0EF324C36F000EF420C46F010EF6
:10266800C56FE7EC08F00201DB27DA51D8A43FEF89
:1026780013F041EF13F01EEF13F0DB51100DF3CF01
:10268800D8F2F4CFD9F2D851D325C16FD951D4217A
:10269800C26FA1C0C3F2A2C0C4F2020EC56FE7ECBC
:1026A80008F00201DB27DB51100DF3CFD8F2F4CF8D
:1026B800D9F2D851D325C16FD951D421C26F9FC047
:1026C800C3F2A0C0C4F2020EC56FE7EC08F0020125
:1026D800DB27DB51100DF3CFD8F2F4CFD9F2D85164
:1026E800D325C16FD951D421C26FB00EC36F010E6B
:1026F800C46F040EC56FE7EC08F00201DB27DB515D
:10270800100DF3CFD8F2F4CFD9F2D851D325C16F39
:10271800D951D421C26FC60EC36F000EC46F030E09
:10272800C56FE7EC08F00201DB27D651D711D8B402
:10273800A0EF13F0A2EF13F0AAEF13F0D6C2D9FF5F
:10274800D7C2DAFFDE6ADE6ADE6ADD6A08ECF5F017
:102758000201DB511200000E0001976F1C0E986FEA
:102768009705D8B4BAEF13F0BCEF13F0ECEF13F001
:1027780098C000F291C001F292C002F293C003F235
:1027880094C004F202010067CCEF13F0D4EF13F009
:1027980004350433033302330133002FC6EF13F03B
:1027A8000F0E02010115056F000E0215066F000ECF
:1027B8000315076F000E0415086F05510611071160
:1027C8000811D8B4EAEF13F0ECEF13F01EEF14F091
:1027D80098C000F291C001F292C002F293C003F2D5
:1027E80094C004F202010067FCEF13F004EF14F048
:1027F80004350433033302330133002FF6EF13F0AB
:102808000F0E02010117000E0217050E0125F66EC4
:10281800F70E0221F76EF86A000EF82295C0D9FF6C
:1028280096C0DAFF0800F5CFDFFF0001954B962B25
:10283800010E976F040E0001985F9851D8A427EFF6
:1028480014F029EF14F0B4EF13F00F0E91150201F4
:10285800006F000E000192150201016F050E0025A0
:10286800F66EF70E0121F76EF86A000EF82295C091
:10287800D9FF96C0DAFF0800F5CFDFFF0001954BBE
:10288800962B95C0D9FF96C0DAFFDF6A95C091F004
:1028980096C092F01200000E106E1C0E116E1004FD
:1028A800D8B459EF14F05BEF14F089EF14F011C0AD
:1028B80007F001C008F002C009F003C00AF004C024
:1028C8000BF007666AEF14F072EF14F00B340B325A
:1028D8000A3209320832072E65EF14F00F0E081479
:1028E8000C6E000E09140D6E000E0A140E6E000E0A
:1028F8000B140F6E0C500D100E100F10D8B487EF7C
:1029080014F089EF14F0B8EF14F011C007F001C00B
:1029180008F002C009F003C00AF004C00BF0076613
:1029280098EF14F0A0EF14F00B340B320A3209328E
:102938000832072E93EF14F00F0E0816000E091632
:10294800050E0824F66EF70E0920F76EF86A000ED9
:10295800F82205C0D9FF06C0DAFF0800F5CFDFFF6F
:10296800054A062A010E106E040E115E1150D8A4F5
:10297800C0EF14F0C2EF14F053EF14F00F0E01146F
:10298800076E000E0214086E050E0724F66EF70E89
:102998000820F76EF86A000EF82205C0D9FF06C0B5
:1029A800DAFF0800F5CFDFFF054A062A05C0D9FF80
:1029B80006C0DAFFDF6A05C001F006C002F01200A7
:1029C80093C0D9FF94C0DAFFDECF99F0DDCF9AF03B
:1029D8000001992906E19A29D8A4F5EF14F0F7EF38
:1029E80014F003EF15F020EE07F09151D92692511B
:1029F800DA22DECF9BF0DDCF9CF02EEF15F0030E30
:102A080091259B6F000E92219C6F15EF15F020EE1B
:102A180002F09B51D9269C51DA22DECF9BF0DDCF04
:102A28009CF020EE02F09B51D9269C51DA22DECF91
:102A380095F0DDCF96F095C0D9FF96C0DAFFDE504D
:102A4800995DDE509A59D8B02CEF15F02EEF15F09D
:102A58000BEF15F020EE02F09B51D9269C51DA229B
:102A680010EE02F09351E1269451E222DECFE6FF08
:102A7800DDCFE5FF20EE02F09351D9269451DA22FA
:102A880010EE04F0DE50E126DD50E22293C0E6FFAE
:102A980094C0E5FF20EE04F09351D9269451DA2230
:102AA8009BC0DEFF9CC0DDFF20EE02F09B51D926C3
:102AB8009C51DA2293C0DEFF94C0DDFF20EE08F0BF
:102AC8009351D9269451DA2291C0DEFF92C0DDFFDE
:102AD80091C0D9FF92C0DAFFDF2A1200B7C2BBF259
:102AE800B8C2BCF20201B751B811D8B47EEF15F0E4
:102AF80080EF15F0FFEF15F0050EBB5F000EBC5B15
:102B0800BBC2BDF2BCC2BEF220EE02F0BD51D92656
:102B1800BE51DA22DECFB9F2DDCFBAF2BABF97EFF3
:102B280015F099EF15F0A3EF15F0180E206FF70EBA
:102B3800216F010E236F2A0E226F8CECFEF0BDC2AE
:102B4800D9FFBEC2DAFFDE50DE10D8B4AEEF15F002
:102B5800B0EF15F0BBEF15F0180E0201206FF70E5D
:102B6800216F010E236F2B0E226F8CECFEF00201F9
:102B780020EE02F0BD51D926BE51DA22DECFB9F2DD
:102B8800DDCFBAF2BAAFCBEF15F0CDEF15F0FFEF0E
:102B980015F0BDC2D9FFBEC2DAFFDE50DE10D8A4E0
:102BA800D8EF15F0DAEF15F0FFEF15F020EE02F090
:102BB800BD51D926BE51DA22FF0EDE167F0EDD1674
:102BC800F9ECFFF0020120EE02F0BD51D926BE510A
:102BD800DA22DE500001A527DD50A623BDC291F000
:102BE800BEC292F0AFEC0AF00101AE4BAF2B08EC7D
:102BF800F5F0FFEF15F01200F70E0201206FFA0E44
:102C0800216F8CECFEF0120E0201206FFB0E216F7B
:102C18008CECFEF0BE0E0301956F3D0E966F000E14
:102C2800976FC00E986FFF0E996F000E9B6F800E06
:102C38009A6F000E9C6F000E9D6F000E9E6FCB0E5C
:102C48009F6F010EA06FD8ECF2F00301AE6F440E37
:102C58000201206FF80E216F0301AE510201226FAD
:102C6800236B22BF23078CECFEF00301AE05D8A42A
:102C780040EF16F042EF16F06DEF16F0C30E0201AA
:102C8800206FF90E216F8CECFEF0DF0E0201206F31
:102C9800F90E216F8CECFEF0F29E0201E569E669FF
:102CA800010EEE6F000EEA6F000EE96FFB0E206F4B
:102CB800F90E216F8CECFEF0170E0201206FFA0E50
:102CC800216F8CECFEF0FFECE7F054EC1CF080EF89
:102CD80016F0AE29D8A473EF16F075EF16F080EF52
:102CE80016F0900E0201206FF80E216F080E236F68
:102CF800D80E226F8CECFEF0330E0201206FFA0E14
:102D0800216F8CECFEF012000001933594359A6F18
:102D18009A51D8A492EF16F094EF16F09EEF16F0A1
:102D2800000E916F000E926F000E936F000E946F5D
:102D38000BEF17F091C095F092C096F093C097F002
:102D480094C098F0200EAEEF16F0D89098339733D1
:102D580096339533E82EA9EF16F09551996F938F16
:102D6800FF0E9117FF0E9217FF0E9317000E941780
:102D7800960E9A5F9ABFC5EF16F0C3EF16F0DBEF19
:102D880016F09A51800A970FD8B0CDEF16F0CFEF12
:102D980016F0D1EF16F094EF16F0D89094339333E1
:102DA800923391339A3FD1EF16F0F3EF16F01F0EDE
:102DB8009A65E1EF16F0E3EF16F0EBEF16F094EFFB
:102DC80016F0D89091379237933794379A079A51DB
:102DD800D8A4F1EF16F0F3EF16F0E5EF16F09951DD
:102DE800D8B4F9EF16F0FBEF16F003EF17F0941FC5
:102DF800931F921F916D000E92239323942391C0E9
:102E080091F092C092F093C093F094C094F01200A5
:102E1800033404340A6E0A50D8A415EF17F017EFDC
:102E280017F021EF17F0000E016E000E026E000E73
:102E3800036E000E046E8EEF17F001C005F002C09D
:102E480006F003C007F004C008F0200E31EF17F0B9
:102E5800D8900832073206320532E82E2CEF17F0E8
:102E68000550096E038EFF0E0116FF0E0216FF0EA7
:102E78000316000E0416960E0A5E0ABE48EF17F0F7
:102E880046EF17F05EEF17F00A50800A970FD8B098
:102E980050EF17F052EF17F054EF17F017EF17F045
:102EA800D89004320332023201320A3E54EF17F04E
:102EB80076EF17F01F0E0A6464EF17F066EF17F04D
:102EC8006EEF17F017EF17F0D89001360236033679
:102ED80004360A060A50D8A474EF17F076EF17F0F4
:102EE80068EF17F00950D8B47CEF17F07EEF17F0B1
:102EF80086EF17F0041E031E021E016C000E02224C
:102F08000322042201C001F002C002F003C003F052
:102F180004C004F012000A0E0201F26196EF17F0E5
:102F280098EF17F0F3EF17F0A70EBC6FF90EBD6F0F
:102F3800B1EF17F0A8A2A3EF17F0A5EF17F09EEFD7
:102F480017F0BCC2F6FFBDC2F7FF000EF86E08000E
:102F5800F5CFA9FF0201BC4BBD2BBCC2F6FFBDC219
:102F6800F7FF000EF86E0800F5500009D8A4BFEF6F
:102F780017F0C1EF17F09EEF17F0A8A2C6EF17F0F1
:102F8800C8EF17F0C1EF17F0050EF66EF70EF76EE3
:102F9800000EF86E0800F5CFA9FFA8A2D6EF17F02B
:102FA800D8EF17F0D1EF17F0060EF66EF70EF76EA2
:102FB800000EF86E0800F5CFA9FFA8A2E6EF17F0FB
:102FC800E8EF17F0E1EF17F00D0EA96EA8A2EFEFEA
:102FD80017F0F1EF17F0EAEF17F00A0EA96E740E6A
:102FE8000201206FFE0E216F8CECFEF0000E020134
:102FF800B86F0A0EB76FACEC1BF0F3EF17F01200C6
:103008000A0E0201F2610BEF18F00DEF18F068EFED
:1030180018F08B0EBC6FF90EBD6F26EF18F0A8A242
:1030280018EF18F01AEF18F013EF18F0BCC2F6FFFB
:10303800BDC2F7FF000EF86E0800F5CFA9FF020128
:10304800BC4BBD2BBCC2F6FFBDC2F7FF000EF86E2D
:103058000800F5500009D8A434EF18F036EF18F03E
:1030680013EF18F0A8A23BEF18F03DEF18F036EF79
:1030780018F0050EF66EF70EF76E000EF86E0800E3
:10308800F5CFA9FFA8A24BEF18F04DEF18F046EFC7
:1030980018F0060EF66EF70EF76E000EF86E0800C2
:1030A800F5CFA9FFA8A25BEF18F05DEF18F056EF77
:1030B80018F00D0EA96EA8A264EF18F066EF18F0CC
:1030C8005FEF18F00A0EA96E630E0201206FFE0E64
:1030D800216F8CECFEF0000E0201B86F640EB76F22
:1030E800ACEC1BF068EF18F01200B00E0001976FFF
:1030F800030E986F000E996F000E9A6F97C095F0A7
:1031080098C096F095C0FCF296C0FDF2000E020140
:10311800FF6F000EFE6F00019551916F9651926FEF
:10312800936B946B000E9125976F080E9221986F00
:10313800000E9321996F000E94219A6F050E975FE8
:10314800000E985B995B9A5B97C0A7F098C0A8F0AF
:1031580020EE02F0A751D926A851DA22DE6ADD6AEC
:10316800A7C0D9FFA8C0DAFFDE6ADD6A95C09BF068
:1031780096C09CF09B51975D916F9C519859926FA6
:1031880020EE02F09B51D9269C51DA2291C0DEFF35
:1031980092C0DDFF9BC0D9FF9CC0DAFFA7C0DEFF4D
:1031A800A8C0DDFF20EE02F09B51D9269C51DA22FF
:1031B800DECFA3F0DDCFA4F020EE02F09B51D9269C
:1031C8009C51DA22DECFA5F0DDCFA6F01200000177
:1031D80020EE08F09151D9269251DA22DECF95F0EF
:1031E800DDCF96F020EE04F09151D9269251DA22E3
:1031F80010EE02F09151E1269251E22200EE04F025
:10320800E650E926E550EA22DECFEEFFDDCFEDFFFE
:1032180020EE02F09151D9269251DA2210EE04F0F4
:103228009151E1269251E22200EE02F0E650E926A1
:10323800E550EA22DECFEEFFDDCFEDFF20EE01F014
:103248009551D9269651DA229151DE1807E192510B
:10325800DE18D8A432EF19F034EF19F044EF19F062
:1032680020EE04F09151D9269251DA2210EE01F0A5
:103278009551E1269651E222DECFE6FFDDCFE5FF4C
:1032880020EE08F09151D9269251DA22DE6ADD6AE1
:1032980095C0D9FF96C0DAFFDF0695C0D9FF96C062
:1032A800DAFFDF501200000E0001966F94BF61EF45
:1032B80019F05FEF19F067EF19F0936D941FD8B00C
:1032C800942B010E966F92BF6EEF19F06CEF19F008
:1032D80074EF19F0916D921FD8B0922B010E961BC6
:1032E800000E986F000E976F93519411D8B47FEF2A
:1032F80019F081EF19F0A9EF19F0010E956F89EF18
:1033080019F0D89093379437952B94AF8EEF19F026
:1033180090EF19F085EF19F0D890973798379351B7
:10332800915D94519259D8A09CEF19F09EEF19F035
:10333800A3EF19F09351915F9451925B9781D890C4
:1033480094339333952F90EF19F09651D8B4AFEF8B
:1033580019F0B1EF19F0B5EF19F0976D981FD8B0C3
:10336800982B97C091F098C092F01200000E066E4C
:1033780004BEC3EF19F0C1EF19F0C9EF19F0036CDF
:10338800041ED8B0042A010E066E02BED0EF19F052
:10339800CEEF19F0D6EF19F0016C021ED8B0022A50
:1033A800010E061A000E086E000E076E0350041078
:1033B800D8B4E1EF19F0E3EF19F00BEF1AF0010EB2
:1033C800056EEBEF19F0D89003360436052A04AEE3
:1033D800F0EF19F0F2EF19F0E7EF19F0D89007368F
:1033E80008360350015C04500258D8A0FEEF19F0CB
:1033F80000EF1AF005EF1AF00350015E0450025A6C
:103408000780D89004320332052EF2EF19F00650E7
:10341800D8B411EF1AF013EF1AF017EF1AF0076C7F
:10342800081ED8B0082A07C001F008C002F0120030
:10343800000E7B6E000E7A6EE00E0001916F2E0E6C
:10344800926F000E936F000E946F050E956F000E2D
:10345800966F000E976F000E986F1EEC1CF091C0CF
:1034680041F292C042F293C043F294C044F241C286
:10347800BBFF42C241F243C242F244C243F20201DC
:10348800446B41C2BCFFE00E206FFE0E216FBCCF23
:1034980022F2236BBBCF24F2256B8CECFEF00B0ED3
:1034A800BA6E010E0F01526F0B0E796EF28EF28C0E
:1034B800D08E9F849E949D84BF0E0201206FFA0EC9
:1034C800216F8CECFEF01200000E0001976F000EC9
:1034D800966F8CEF1AF0000196519225946F9751D0
:1034E8009321956F94C0F6FF95C0F7FF000EF86E14
:1034F8000F0EF76403D00800F55005D0F6CFE9FFAA
:10350800F7CFEAFFEF500DEC1FF00001964B972B19
:1035180096519225946F97519321956F94C0F6FF19
:1035280095C0F7FF000EF86E0F0EF76403D0080081
:10353800F55005D0F6CFE9FFF7CFEAFFEF500009C5
:10354800D8A4A9EF1AF0ABEF1AF06FEF1AF0120037
:10355800000E0001956F9551090DAB0EF324916F84
:10356800000EF420926FEFEC1AF00001952B020E7A
:103578009565C1EF1AF0C3EF1AF0AFEF1AF0C20E5B
:10358800916F010E926FEFEC1AF0B90E0001916F76
:10359800010E926FEFEC1AF0F30E0001916F020E1C
:1035A800926FEFEC1AF0B00E0001916F010E926F5E
:1035B800EFEC1AF0C60E0001916F000E926FEFEC5F
:1035C8001AF0C20E0001A16F010EA26FB90E9F6F13
:1035D800010EA06F1200030E00019125936F000EDB
:1035E8009221946F20EE01F09151D9269251DA225E
:1035F80093C0DEFF94C0DDFF20EE03F09151D92681
:103608009251DA22FF0EDE6EFF0EDD6E030E91255B
:10361800936F000E9221946F20EE05F09151D926F8
:103628009251DA2293C0DEFF94C0DDFF030E91258C
:10363800936F000E9221946F20EE07F09151D926D6
:103648009251DA2293C0DEFF94C0DDFF91C0D9FF0A
:1036580092C0DAFFDF6A1200000E076E000E066ED7
:1036680051EF1BF006500224046E07500320056E2C
:1036780004C0F6FF05C0F7FF000EF86E0F0EF764E2
:1036880003D00800F55005D0F6CFE9FFF7CFEAFFE1
:10369800EF5019EC1FF0064A072A06500224046E60
:1036A80007500320056E04C0F6FF05C0F7FF000EA3
:1036B800F86E0F0EF76403D00800F55005D0F6CF6A
:1036C800E9FFF7CFEAFFEF500009D8A46EEF1BF02F
:1036D80070EF1BF036EF1BF01200F294FB0ED76E62
:1036E800600ED66E0101A12B0A0EA1657EEF1BF0BC
:1036F80080EF1BF0AAEF1BF0000EA16F9F4BA02BD1
:10370800E90E9F5D030EA059D8A08DEF1BF08FEF37
:103718001BF0AAEF1BF0000EA06F000E9F6F9E2BF0
:103728003C0E9E659AEF1BF09CEF1BF0AAEF1BF076
:10373800000E9E6F9D2B3C0E9D65A5EF1BF0A7EF1D
:103748001BF0AAEF1BF0000E9D6F9C2B10001200BF
:10375800000E0201B96FB751B811D8B4B6EF1BF01B
:10376800B8EF1BF0DBEF1BF00001A951D8B4BFEF95
:103778001BF0C1EF1BF0CCEF1BF0900E0201206F85
:10378800F80E216F050E236FD80E226F8CECFEF019
:10379800F9ECFFF0B7C200F2B8C201F2000E020164
:1037A800026F23EC0EF008ECF5F00201B96FB95185
:1037B800D8A4E1EF1BF0E3EF1BF0E5EF1BF0ACEC56
:1037C800AEF0120014EF1CF0F2CFE6FFF29E0101FA
:1037D80020EE06F0B551D926B651DA22DECFC1F275
:1037E800DDCFC2F2020E0201C1250001916F000E69
:1037F8000201C2210001926FEBEC18F00201F00700
:10380800EB07E552E7AE0BEF1CF00DEF1CF00EEFE7
:103818001CF0F28EC1C2BFF2C2C2C0F290EC1EF020
:103828000201EB51D8A41BEF1CF01DEF1CF0E8EFD0
:103838001BF01200000E0001996F000E9A6F000E27
:103848009B6F000E9C6F91A12CEF1CF02EEF1CF0CB
:1038580036EF1CF09551992796519A2397519B233F
:1038680098519C23D8909537963797379837D890A2
:10387800943393339233913391519211931194115C
:10388800D8A449EF1CF04BEF1CF027EF1CF099C0AF
:1038980091F09AC092F09BC093F09CC094F01200F3
:1038A800870E0201206FFA0E216F8CECFEF01CECE3
:1038B8001AF0A30E0201206FFA0E216F8CECFEF0B5
:1038C800E3C2E9FF000EFC6E71EF1CF00500E55045
:1038D800FF6EE550FE6EE550FD6EE950FC5CD8A029
:1038E80078EF1CF07AEF1CF06AEF1CF0E5CFEAFFE6
:1038F800E5CFD8FFE5CFE8FF12001200550EA76EFE
:10390800AA0EA76E0E01BF91160EF76F060ED76F9F
:10391800550EA76EAA0EA76EBF81959C958A000EBC
:10392800A86EA88AA894000E9C6E9C8E9C88000E97
:103938007C6E7C96930E0001916F000E926F7AEC6C
:103948001EF094C07DFF95C0ABFF000193B102D07B
:10395800A89401D0A884120003EEB0F018EE00F08D
:10396800EE6AE550E150FCE1E250FAE103EE00F0C6
:10397800800EEE6AE806FDE102EEE3F01D0EEE6A47
:10398800E806FDE101EE8EF03F0EEE6AE806FDE185
:1039980000EE9FF0300EEE6AE806FDE100EE54F00E
:1039A8000B0EEE6AE806FDE15F905F9200011DEFE5
:1039B80011F0F1EF1CF096C091F097C092F094C00E
:1039C800D9FF95C0DAFFDF50EFEC1EF091C096F0FA
:1039D80092C097F00001944B952B94C0D9FF95C0E5
:1039E800DAFFDF50D8A4FBEF1CF0FDEF1CF0DFEF8F
:1039F8001CF096C0D9FF97C0DAFFDF6A96C094F032
:103A080097C095F012001AEF1DF006C001F007C02C
:103A180002F004C0D9FF05C0DAFFDF50FFEC1EF04A
:103A280001C006F002C007F0044A052A04C0D9FF05
:103A380005C0DAFFDF50D8A424EF1DF026EF1DF0F3
:103A480009EF1DF006C0D9FF07C0DAFFDF6A06C01C
:103A580004F007C005F01200000E0001946F000E7C
:103A6800956F000E966F000E976F44EF1DF091074B
:103A7800D8A09207010E9427000E9523962397232A
:103A880091C0D9FF92C0DAFFA50EDE18D8B44FEF67
:103A98001DF051EF1DF03BEF1DF094C091F095C063
:103AA80092F01200A1C0D9FFA2C0DAFFDF50D8A45B
:103AB80060EF1DF062EF1DF067EF1DF00201E56990
:103AC800E6697AEF1DF0000120EE05F0A151D92634
:103AD800A251DA22DECF91F0DDCF92F091C0D9FF6A
:103AE80092C0DAFFDECFE5F2DDCFE6F21200A1C028
:103AF800D9FFA2C0DAFFDF50D8A485EF1DF087EF09
:103B08001DF08CEF1DF00201E569E6699FEF1DF0DD
:103B1800000120EE05F0A151D926A251DA22DECF0C
:103B280001F0DDCF02F001C0D9FF02C0DAFFDECF1D
:103B3800E5F2DDCFE6F21200000E0201081B000ECE
:103B4800091B000E0A1B800E0B1B04C291F005C254
:103B580092F006C293F007C294F008C295F009C229
:103B680096F00AC297F00BC298F07EECEBF091C089
:103B780004F292C005F293C006F294C007F2120054
:103B8800000E151A000E161A000E171A800E181AB3
:103B980011C001F012C002F013C003F014C004F009
:103BA80015C005F016C006F017C007F018C008F0D9
:103BB8001BECEEF001C011F002C012F003C013F0CC
:103BC80004C014F01200000120EE06F0BE51D92600
:103BD800BF51DA22DECF93F0DDCF94F09351956F89
:103BE8009451966F976B986B91C0D9FF92C0DAFF8A
:103BF80095C0DEFF96C0DEFF97C0DEFF98C0DEFFEF
:103C08001200000E0001956F000E946F17EF1EF062
:103C18009C0E0001936FD70EE82EFED7932FFCD78A
:103C28000001944B952B9151945D92519559D8A0D0
:103C380020EF1EF022EF1EF00CEF1EF01200000124
:103C480020EE06F0BE51D926BF51DA22DECF03F0AE
:103C5800DDCF04F00350056E0450066E076A086A4B
:103C680001C0D9FF02C0DAFF05C0DEFF06C0DEFFD3
:103C780007C0DEFF08C0DEFF12000001915192115B
:103C880093119411D8B44BEF1EF04DEF1EF055EF81
:103C98001EF0000E911B000E921B000E931B800E4F
:103CA800941B91C091F092C092F093C093F094C08D
:103CB80094F012000150021003100410D8B467EFFA
:103CC8001EF069EF1EF071EF1EF0000E011A000ED3
:103CD800021A000E031A800E041A01C001F002C075
:103CE80002F003C003F004C004F0120091C0D9FF31
:103CF80092C0DAFFDF6A000120EE01F09151D92667
:103D08009251DA22DF6A20EE02F09151D9269251BF
:103D1800DA220C0EDF6E1200020120EE17F0BF51FE
:103D2800D926C051DA22DECFB7F2DDCFB8F272EC75
:103D380015F0BFC2B7F2C0C2B8F272EC15F01200AB
:103D4800000191519303F3CF95F0F4CF96F0915180
:103D58009403F350962792519303F350962795C0F6
:103D680091F096C092F012009EA4BDEF1EF0BFEF36
:103D78001EF0C1EF1EF000EF80F0F2A4C6EF1EF0B7
:103D8800C8EF1EF0CAEF1EF071EF1BF01000120012
:103D980001500302F3CF05F0F4CF06F001500402FE
:103DA800F350062602500302F350062605C001F020
:103DB80006C002F01200E6EC1BF0010E0001AB6534
:103DC800E8EF1EF0EAEF1EF0DFEF1EF0ACECAEF00D
:103DD800DFEF1EF012000001936F91C0D9FF92C06F
:103DE800DAFF93C0DFFF0001914B922B91C091F055
:103DF80092C092F01200036E01C0D9FF02C0DAFF30
:103E080003C0DFFF014A022A01C001F002C002F02C
:103E180012000001916FA8A214EF1FF016EF1FF017
:103E28000FEF1FF091C0A9FF1200016EA8A21FEFAB
:103E38001FF021EF1FF01AEF1FF001C0A9FF1200B9
:103E4800000120EE08F09151D9269251DA22DE6A5B
:103E5800DD6A1200000E0201C36F000EC46FDFECB2
:043E68001EF0120036
:10F7040000303132333435363738396162636465F9
:10F71400660400024153534552543A25733A256412
:10F724000D0A536F757263652F4672656552544FA7
:10F73400532F4D656D4D616E672F686561705F3441
:10F744002E63004153534552543A25733A25640DB0
:10F754000A536F757263652F4672656552544F5331
:10F764002F73747265616D5F6275666665722E6370
:10F77400004153534552543A25733A25640D0A53B4
:10F784006F757263652F4672656552544F532F65CA
:10F7940076656E745F67726F7570732E6300505276
:10F7A400494F52495459203D202564202D2D2D2D9B
:10F7B4002D2D2D2D2D2D2D2D2D2D2D2D2D2D2D2D75
:10F7C4002D2D2D2D2D2D0D0A000D0A2D2D2D2D2D18
:10F7D4002D2D2D2D2D2D2D2D2D2D2D2D2D2D2D2D55
:10F7E4002D2D2D2D2D2D2D2D2D2D2D2D2D2D2D2D45
:10F7F4000D0A00707276496E697469616C6973658B
:10F804004E65775461736B203030312070784E65CB
:10F81400775443423D25700D0A00415353455254D9
:10F824003A25733A25640D0A536F757263652F4642
:10F8340072656552544F532F71756575652E63005B
:10F84400765461736B537461727453636865647541
:10F854006C657228303032297852657475726E3D49
:10F864002564200D0A00707276496E697469616CB2
:10F874006973654E65775461736B20303032207044
:10F8840078537461636B3D25700D0A0041535345F1
:10F8940052543A25733A25640D0A536F75726365A1
:10F8A4002F4672656552544F532F7461736B732ED8
:10F8B40063007072764164644E65775461736B546F
:10F8C4006F52656164794C697374E3808030320DE2
:10F8D4000A007072764164644E65775461736B54A8
:10F8E4006F52656164794C697374E3808030330DC1
:10F8F4000A002A2A2A207078526561647954617357
:10F904006B734C697374735B5D202A2A2A0D0A0099
:10F914002A2A2A2A2A2A2A2A2A2A2A2A2A2A2A2A43
:10F924002A2A2A2A2A2A2A2A2A2A2A0D0A00785422
:10F9340061736B4372656174652030303120707877
:10F944004E65775443423D25700D0A007854617327
:10F954006B437265617465203030412070784E6568
:10F96400775443423D25700D0A00785461736B430C
:10F97400726561746520303032207078537461632D
:10F984006B3D25700D0A007461736B303031202D8E
:10F994002D2D2D2D2D2D2D2D2D2D2D2D2D2D2D2D93
:10F9A4002D2D007461736B303032202D2D2D2D2DB3
:10F9B4002D2D2D2D2D2D2D2D2D2D2D2D2D2D007657
:10F9C4005461736B53746172745363686564756CCA
:10F9D40065722830303329200D0A00765461736B28
:10F9E40053746172745363686564756C657228300E
:10F9F400303529200D0A00765461736B537461729B
:10FA0400745363686564756C6572283030372920D7
:10FA14000D0A00765461736B537461727453636896
:10FA24006564756C65722830303829200D0A0076BB
:10FA34005461736B53746172745363686564756C59
:10FA440065722830303929200D0A007578437572A3
:10FA540072656E744E756D6265724F665461736B38
:10FA6400733D25640D0A004E616D6509537461741C
:10FA740065095072696F09537461636B094E756D42
:10FA84000D0A0078506F7274537461727453636812
:10FA94006564756C65722830303129200D0A007850
:10FAA400506F727453746172745363686564756CD7
:10FAB40065722830303229200D0A00707276536541
:10FAC40074757054696D6572496E7465727275707F
:10FAD400742833290D0A00706F72745441534B5FBC
:10FAE40046554E4354494F4E2829205354415254AD
:10FAF4000D0A00765461736B5374617274536368B6
:10FB04006564756C657228303031290D0A007654AD
:10FB140061736B53746172745363686564756C6567
:10FB24007228303032290D0A00707276496E697479
:10FB340069616C6973654E65775461736B2030300D
:10FB4400320D0A00707276496E697469616C69736A
:10FB5400654E65775461736B203030330D0A00783D
:10FB64004C697374456E642E70784E6578742825DC
:10FB740064292025700D0A00696E74656765722E0C
:10FB840063202564205374617475733D25640D0AE4
:10FB94000020202B2D2D20784974656D56616C75DD
:10FBA4006520203D25640D0A007078496E646578EF
:10FBB40020202020202020202020203D25700D0AF8
:10FBC40000784C697374456E642020202020202026
:10FBD4002020203D25700D0A0020202B2D2D207083
:10FBE400784E6578742020202020203D25700D0A51
:10FBF4000020202B2D2D2070764F776E65722020EB
:10FC04002020203D25700D0A0020202B2D2D207052
:10FC14007850726576696F757320203D25700D0AE2
:10FC24000020202B2D2D207078436F6E7461696E37
:10FC34006572203D25700D0A006D61696E312E6379
:10FC4400202564205374617475733D25640D0A0086
:10FC54002070764F776E65722020202020E380800C
:10FC64003D2025700D0A0020707850726576696F0A
:10FC740075732020E380803D2025700D0A002070DC
:10FC840076436F6E7461696E657220E380803D20F7
:10FC940025700D0A002070784E657874202020208D
:10FCA40020E38080203D2025700D0A0020784974CF
:10FCB400656D56616C75652020E380803D20257854
:10FCC4000D0A002020537461636B204C6973742007
:10FCD4002570202D2025700D0A00706F6C6C512E3C
:10FCE40063202564205374617475733D25640D0A83
:10FCF400002075785072696F726974792020202011
:10FD04003D2025640D0A002070784E65787420200B
:10FD14002020202020203D2025700D0A0070784EE0
:10FD24006577544342202020202020203D20257048
:10FD34000D0A00207078537461636B20202020200A
:10FD440020203D2025700D0A002070764F776E65C7
:10FD540072202020202020203D2025700D0A002024
:10FD6400707850726576696F7573202020203D206D
:10FD740025700D0A00207076436F6E7461696E659C
:10FD8400722020203D2025700D0A00207078456ED9
:10FD9400644F66537461636B20203D2025700D0A07
:10FDA40000207078546F704F66537461636B202029
:10FDB4003D2025700D0A007853746174654C697395
:10FDC400744974656D203D2025700D0A00784576D0
:10FDD400656E744C6973744974656D203D2025709B
:10FDE4000D0A0070635461736B4E616D65202020B1
:10FDF40020203D2025730D0A0020784974656D5636
:10FE0400616C7565202020203D2025780D0A002A8C
:10FE14002A2A2055415254205354415254202A2A0C
:10FE24002A0D0A002A2A2A20207461736B496E66FF
:10FE34006F20202A2A2A0D0A00765461736B5377A7
:10FE440069746368436F6E746578743D00785461B7
:10FE5400736B437265617465203030330D0A00742E
:10FE640061736B3030312829204C6F6F700D0A009C
:10FE74007461736B3030322829204C6F6F700D0A17
:10FE8400005441534B204E554D203D2025640D0A0E
:10FE9400000925630925640925640925640D0A0000
:10FEA400707843757272656E74544342303D0070CD
:10FEB4007843757272656E74544342313D007078B4
:10FEC40043757272656E74544342343D00756C41DF
:10FED4006464726573733D25700D0A004343505288
:10FEE400343D25782C25780D0A007078437572729C
:10FEF400656E745443423D0070784E6577544342B6
:10FF04002831293D007078436F64653D25700D0AE2
:10FF14000025643A20307825780D0A007554507213
:10FF2400696F3D0054424C505452480054424C5066
:10FF340054524C0054424C505452550050434C417E
:10FF4400544800494E54434F4E0053544B5054525E
:10FF540000535441545553005441424C41540050B1
:10FF6400434C4154550078436F6E3D00784E65789C
:10FF74003D00494E444630004653523048004653F3
:10FF84005231480046535232480050524F444800C0
:10FF9400465352304C00465352314C004653523271
:10FFA4004C0050524F444C005453433D007854434A
:10FFB4003D005449543D007049543D0049444C456A
:10FFC400004953523D007049533D00575245470084
:10FFD400544F534800544F534C00544F53550055FD
:10FFE40030310055303200425352004D303200510E
:0BFFF400303300513034002573000052
:020000040001F9
:100000000A0E0201F26107EF80F009EF80F081EF44
:1000100080F0C50E0101006FFF0E016F29EF80F027
:1000200012EF80F0A8A217EF80F019EF80F012EF26
:1000300080F01BEF80F000C1F6FF01C1F7FF000E5A
:10004000F86E0800F5CFA9FF0101004B012B29EF45
:1000500080F000C1F6FF01C1F7FF000EF86E080046
:10006000F5500009D8A437EF80F039EF80F012EF97
:1000700080F03DEF80F03DEF80F0A8A242EF80F0ED
:1000800044EF80F03DEF80F046EF80F0050EF66E15
:10009000F70EF76E000EF86E0800F5CFA9FF51EFCE
:1000A00080F0A8A256EF80F058EF80F051EF80F07A
:1000B0005AEF80F0060EF66EF70EF76E000EF86E31
:1000C0000800F5CFA9FF65EF80F0A8A26AEF80F0E5
:1000D0006CEF80F065EF80F06EEF80F00D0EA96E92
:1000E00072EF80F0A8A277EF80F079EF80F072EFE6
:1000F00080F07BEF80F00A0EA96E81EF80F081EF37
:1001000080F06AEC12F08A0E016E010E026E23EC92
:100110001EF08BEF80F00A0E0201F26192EF80F088
:1001200094EF80F024EF82F0EE0E0101026FFE0EDC
:10013000036FB4EF80F09DEF80F0A8A2A2EF80F0F3
:10014000A4EF80F09DEF80F0A6EF80F002C1F6FFF3
:1001500003C1F7FF000EF86E0800F5CFA9FF0101FB
:10016000024B032BB4EF80F002C1F6FF03C1F7FF8F
:10017000000EF86E0800F5500009D8A4C2EF80F018
:10018000C4EF80F09DEF80F0C8EF80F0C8EF80F002
:10019000A8A2CDEF80F0CFEF80F0C8EF80F0D1EFD4
:1001A00080F08AC150F08BC151F08CC152F08DC1EA
:1001B00053F01D0EE1EF80F0D8905332523251329D
:1001C0005032E82EDCEF80F00F0E5016000E511664
:1001D000050E5024F66EF70E5120F76EF86A000EE9
:1001E000F8220800F5CFA9FFF6EF80F0A8A2FBEFF8
:1001F00080F0FDEF80F0F6EF80F0FFEF80F08AC135
:1002000050F08BC151F08CC152F08DC153F0190EDA
:100210000FEF81F0D8905332523251325032E82EE3
:100220000AEF81F00F0E5016000E5116050E5024E5
:10023000F66EF70E5120F76EF86A000EF8220800ED
:10024000F5CFA9FF24EF81F0A8A229EF81F02BEFD1
:1002500081F024EF81F02DEF81F08AC150F08BC145
:1002600051F08CC152F08DC153F0150E3DEF81F06D
:10027000D8905332523251325032E82E38EF81F05A
:100280000F0E5016000E5116050E5024F66EF70E86
:100290005120F76EF86A000EF8220800F5CFA9FF8A
:1002A00052EF81F0A8A257EF81F059EF81F052EFA1
:1002B00081F05BEF81F00F0E01018C15506E000E86
:1002C0008D15516E050E5024F66EF70E5120F76E07
:1002D000F86A000EF8220800F5CFA9FF70EF81F050
:1002E000A8A275EF81F077EF81F070EF81F079EFE0
:1002F00081F08AC150F08BC151F08CC152F08DC198
:1003000053F00D0E89EF81F0D890533252325132B2
:100310005032E82E84EF81F00F0E5016000E511669
:10032000050E5024F66EF70E5120F76EF86A000E97
:10033000F8220800F5CFA9FF9EEF81F0A8A2A3EF55
:1003400081F0A5EF81F09EEF81F0A7EF81F00F0E15
:1003500001018B15506E000E8C15516E050E502448
:10036000F66EF70E5120F76EF86A000EF8220800BC
:10037000F5CFA9FFBCEF81F0A8A2C1EF81F0C3EFD8
:1003800081F0BCEF81F0C5EF81F08AC150F08BC1E4
:1003900051F08CC152F08DC153F0050ED5EF81F0B4
:1003A000D8905332523251325032E82ED0EF81F091
:1003B0000F0E5016000E5116050E5024F66EF70E55
:1003C0005120F76EF86A000EF8220800F5CFA9FF59
:1003D000EAEF81F0A8A2EFEF81F0F1EF81F0EAEF10
:1003E00081F0F3EF81F00F0E01018A15506E000EBF
:1003F0008B15516E050E5024F66EF70E5120F76ED8
:10040000F86A000EF8220800F5CFA9FF08EF82F085
:10041000A8A20DEF82F00FEF82F008EF82F011EF4B
:1004200082F00D0EA96E15EF82F0A8A21AEF82F0ED
:100430001CEF82F015EF82F01EEF82F00A0EA96E1B
:1004400024EF82F024EF82F0860E016E010E026E20
:1004500023EC1EF02CEF82F00A0E0201F26133EF62
:1004600082F035EF82F0C3EF83F0EE0E0101046FEE
:10047000FE0E056F55EF82F03EEF82F0A8A243EF2B
:1004800082F045EF82F03EEF82F047EF82F004C148
:10049000F6FF05C1F7FF000EF86E0800F5CFA9FFC3
:1004A0000101044B052B55EF82F004C1F6FF05C195
:1004B000F7FF000EF86E0800F5500009D8A463EFAE
:1004C00082F065EF82F03EEF82F069EF82F069EF33
:1004D00082F0A8A26EEF82F070EF82F069EF82F0F6
:1004E00072EF82F086C150F087C151F088C152F09E
:1004F00089C153F01D0E82EF82F0D89053325232F0
:1005000051325032E82E7DEF82F00F0E5016000E61
:100510005116050E5024F66EF70E5120F76EF86A4C
:10052000000EF8220800F5CFA9FF97EF82F0A8A2ED
:100530009CEF82F09EEF82F097EF82F0A0EF82F0C6
:1005400086C150F087C151F088C152F089C153F083
:10055000190EB0EF82F0D8905332523251325032ED
:10056000E82EABEF82F00F0E5016000E5116050E5E
:100570005024F66EF70E5120F76EF86A000EF8223E
:100580000800F5CFA9FFC5EF82F0A8A2CAEF82F05C
:10059000CCEF82F0C5EF82F0CEEF82F086C150F052
:1005A00087C151F088C152F089C153F0150EDEEFBA
:1005B00082F0D8905332523251325032E82ED9EF75
:1005C00082F00F0E5016000E5116050E5024F66ED6
:1005D000F70E5120F76EF86A000EF8220800F5CFEA
:1005E000A9FFF3EF82F0A8A2F8EF82F0FAEF82F011
:1005F000F3EF82F0FCEF82F00F0E01018815506ED0
:10060000000E8915516E050E5024F66EF70E51201E
:10061000F76EF86A000EF8220800F5CFA9FF11EF77
:1006200083F0A8A216EF83F018EF83F011EF83F0A8
:100630001AEF83F086C150F087C151F088C152F0A3
:1006400089C153F00D0E2AEF83F0D8905332523205
:1006500051325032E82E25EF83F00F0E5016000E67
:100660005116050E5024F66EF70E5120F76EF86AFB
:10067000000EF8220800F5CFA9FF3FEF83F0A8A2F3
:1006800044EF83F046EF83F03FEF83F048EF83F0D1
:100690000F0E01018715506E000E8815516E050E64
:1006A0005024F66EF70E5120F76EF86A000EF8220D
:1006B0000800F5CFA9FF5DEF83F0A8A262EF83F0F9
:1006C00064EF83F05DEF83F066EF83F086C150F056
:1006D00087C151F088C152F089C153F0050E76EF01
:1006E00083F0D8905332523251325032E82E71EFAB
:1006F00083F00F0E5016000E5116050E5024F66EA4
:10070000F70E5120F76EF86A000EF8220800F5CFB8
:10071000A9FF8BEF83F0A8A290EF83F092EF83F014
:100720008BEF83F094EF83F00F0E01018615506E6E
:10073000000E8715516E050E5024F66EF70E5120EF
:10074000F76EF86A000EF8220800F5CFA9FFA9EFAE
:1007500083F0A8A2AEEF83F0B0EF83F0A9EF83F0AF
:10076000B2EF83F00D0EA96EB6EF83F0A8A2BBEF37
:1007700083F0BDEF83F0B6EF83F0BFEF83F00A0E96
:10078000A96EC3EF83F0E8CFE4FFC7EF83F00A0E52
:100790000201F261CEEF83F0D0EF83F063EF84F0DB
:1007A000CF0E0101066FFF0E076FF0EF83F0D9EF58
:1007B00083F0A8A2DEEF83F0E0EF83F0D9EF83F0BF
:1007C000E2EF83F006C1F6FF07C1F7FF000EF86EF7
:1007D0000800F5CFA9FF0101064B072BF0EF83F0CE
:1007E00006C1F6FF07C1F7FF000EF86E0800F550CE
:1007F0000009D8A4FEEF83F000EF84F0D9EF83F076
:1008000004EF84F004EF84F0A8A209EF84F00BEF6A
:1008100084F004EF84F00DEF84F03D0EA96E11EF2B
:1008200084F0A8A216EF84F018EF84F011EF84F0A2
:100830001AEF84F0E8380F0B0F0B506E516A050E5B
:100840005024F66EF70E5120F76EF86A000EF8226B
:100850000800F5CFA9FF2DEF84F0A8A232EF84F0B5
:1008600034EF84F02DEF84F036EF84F00F0B506EF0
:10087000516A050E5024F66EF70E5120F76EF86A95
:10088000000EF8220800F5CFA9FF47EF84F0A8A2D8
:100890004CEF84F04EEF84F047EF84F050EF84F09B
:1008A0000D0EA96E54EF84F0A8A259EF84F05BEF0F
:1008B00084F054EF84F05DEF84F00A0EA96E63EFCC
:1008C00084F063EF84F0860E016E010E026E23EC5D
:1008D0001EF06BEF84F00A0E0201F26172EF84F0F9
:1008E00074EF84F002EF86F0EE0E0101086FFE0E49
:1008F000096F94EF84F07DEF84F0A8A282EF84F07A
:1009000084EF84F07DEF84F086EF84F008C1F6FF79
:1009100009C1F7FF000EF86E0800F5CFA9FF01012D
:10092000084B092B94EF84F008C1F6FF09C1F7FFCB
:10093000000EF86E0800F5500009D8A4A2EF84F06C
:10094000A4EF84F07DEF84F0A8EF84F0A8EF84F0AA
:10095000A8A2ADEF84F0AFEF84F0A8EF84F0B1EF80
:1009600084F086C150F087C151F088C152F089C12E
:1009700053F01D0EC1EF84F0D890533252325132F1
:100980005032E82EBCEF84F00F0E5016000E5116B8
:10099000050E5024F66EF70E5120F76EF86A000E21
:1009A000F8220800F5CFA9FFD6EF84F0A8A2DBEF6C
:1009B00084F0DDEF84F0D6EF84F0DFEF84F086C1C1
:1009C00050F087C151F088C152F089C153F0190E1F
:1009D000EFEF84F0D8905332523251325032E82E39
:1009E000EAEF84F00F0E5016000E5116050E50243B
:1009F000F66EF70E5120F76EF86A000EF822080026
:100A0000F5CFA9FF04EF85F0A8A209EF85F00BEF61
:100A100085F004EF85F00DEF85F086C150F087C1B9
:100A200051F088C152F089C153F0150E1DEF85F0C9
:100A3000D8905332523251325032E82E18EF85F0AE
:100A40000F0E5016000E5116050E5024F66EF70EBE
:100A50005120F76EF86A000EF8220800F5CFA9FFC2
:100A600032EF85F0A8A237EF85F039EF85F032EF4D
:100A700085F03BEF85F00F0E01018815506E000EDA
:100A80008915516E050E5024F66EF70E5120F76E43
:100A9000F86A000EF8220800F5CFA9FF50EF85F0A4
:100AA000A8A255EF85F057EF85F050EF85F059EF8C
:100AB00085F086C150F087C151F088C152F089C1DC
:100AC00053F00D0E69EF85F0D89053325232513207
:100AD0005032E82E64EF85F00F0E5016000E5116BE
:100AE000050E5024F66EF70E5120F76EF86A000ED0
:100AF000F8220800F5CFA9FF7EEF85F0A8A283EFCA
:100B000085F085EF85F07EEF85F087EF85F00F0E9D
:100B100001018715506E000E8815516E050E502488
:100B2000F66EF70E5120F76EF86A000EF8220800F4
:100B3000F5CFA9FF9CEF85F0A8A2A1EF85F0A3EF68
:100B400085F09CEF85F0A5EF85F086C150F087C158
:100B500051F088C152F089C153F0050EB5EF85F010
:100B6000D8905332523251325032E82EB0EF85F0E5
:100B70000F0E5016000E5116050E5024F66EF70E8D
:100B80005120F76EF86A000EF8220800F5CFA9FF91
:100B9000CAEF85F0A8A2CFEF85F0D1EF85F0CAEFBC
:100BA00085F0D3EF85F00F0E01018615506E000E13
:100BB0008715516E050E5024F66EF70E5120F76E14
:100BC000F86A000EF8220800F5CFA9FFE8EF85F0DB
:100BD000A8A2EDEF85F0EFEF85F0E8EF85F0F1EFFB
:100BE00085F00D0EA96EF5EF85F0A8A2FAEF85F05D
:100BF000FCEF85F0F5EF85F0FEEF85F00A0EA96EAB
:100C000002EF86F0D8CFE4FF06EF86F00A0E02016D
:100C1000F2610DEF86F00FEF86F0A1EF86F0550E32
:100C200001010A6FFF0E0B6F2FEF86F018EF86F0B1
:100C3000A8A21DEF86F01FEF86F018EF86F021EFD7
:100C400086F00AC1F6FF0BC1F7FF000EF86E080030
:100C5000F5CFA9FF01010A4B0B2B2FEF86F00AC13C
:100C6000F6FF0BC1F7FF000EF86E0800F550000903
:100C7000D8A43DEF86F03FEF86F018EF86F043EF03
:100C800086F043EF86F0A8A248EF86F04AEF86F0A0
:100C900043EF86F04CEF86F03D0EA96E50EF86F0E4
:100CA000A8A255EF86F057EF86F050EF86F059EF87
:100CB00086F0D8380F0B0F0B506E516A050E50247A
:100CC000F66EF70E5120F76EF86A000EF822080053
:100CD000F5CFA9FF6CEF86F0A8A271EF86F073EF55
:100CE00086F06CEF86F075EF86F0D8500F0B506EE3
:100CF000516A050E5024F66EF70E5120F76EF86A11
:100D0000000EF8220800F5CFA9FF87EF86F0A8A211
:100D10008CEF86F08EEF86F087EF86F090EF86F00E
:100D20000D0EA96E94EF86F0A8A299EF86F09BEFC6
:100D300086F094EF86F09DEF86F00A0EA96EA1EF83
:100D400086F0F2CFE8FFA5EF86F00A0E0201F2610D
:100D5000ACEF86F0AEEF86F040EF87F0470E010172
:100D60000C6FFF0E0D6FCEEF86F0B7EF86F0A8A2E6
:100D7000BCEF86F0BEEF86F0B7EF86F0C0EF86F0EE
:100D80000CC1F6FF0DC1F7FF000EF86E0800F5CF9D
:100D9000A9FF01010C4B0D2BCEEF86F00CC1F6FF25
:100DA0000DC1F7FF000EF86E0800F5500009D8A439
:100DB000DCEF86F0DEEF86F0B7EF86F0E2EF86F04C
:100DC000E2EF86F0A8A2E7EF86F0E9EF86F0E2EF27
:100DD00086F0EBEF86F03D0EA96EEFEF86F0A8A24D
:100DE000F4EF86F0F6EF86F0EFEF86F0F8EF86F09E
:100DF000F2380F0B0F0B506E516A050E5024F66E31
:100E0000F70E5120F76EF86A000EF8220800F5CFB1
:100E1000A9FF0BEF87F0A8A210EF87F012EF87F081
:100E20000BEF87F014EF87F0F2500F0B506E516A02
:100E3000050E5024F66EF70E5120F76EF86A000E7C
:100E4000F8220800F5CFA9FF26EF87F0A8A22BEF24
:100E500087F02DEF87F026EF87F02FEF87F00D0E4C
:100E6000A96E33EF87F0A8A238EF87F03AEF87F04A
:100E700033EF87F03CEF87F00A0EA96E40EF87F062
:100E8000E8CFE4FF44EF87F00A0E0201F2614BEF76
:100E900087F04DEF87F0E0EF87F0CF0E01010E6F86
:100EA000FF0E0F6F6DEF87F056EF87F0A8A25BEF94
:100EB00087F05DEF87F056EF87F05FEF87F00EC1A8
:100EC000F6FF0FC1F7FF000EF86E0800F5CFA9FF7F
:100ED00001010E4B0F2B6DEF87F00EC1F6FF0FC116
:100EE000F7FF000EF86E0800F5500009D8A47BEF5C
:100EF00087F07DEF87F056EF87F081EF87F081EF85
:100F000087F0A8A286EF87F088EF87F081EF87F05F
:100F10008AEF87F03D0EA96E8EEF87F0A8A293EFBF
:100F200087F095EF87F08EEF87F097EF87F0E8383E
:100F30000F0B0F0B506E516A050E5024F66EF70E14
:100F40005120F76EF86A000EF8220800F5CFA9FFCD
:100F5000AAEF87F0A8A2AFEF87F0B1EF87F0AAEF72
:100F600087F0B3EF87F00F0B506E516A050E5024D7
:100F7000F66EF70E5120F76EF86A000EF8220800A0
:100F8000F5CFA9FFC4EF87F0A8A2C9EF87F0CBEF98
:100F900087F0C4EF87F0CDEF87F00D0EA96ED1EF8B
:100FA00087F0A8A2D6EF87F0D8EF87F0D1EF87F0CF
:100FB000DAEF87F00A0EA96EE0EF87F0E0EF87F036
:100FC000F29EE0CFE4FFE5EF87F00A0E0201F26146
:100FD000ECEF87F0EEEF87F080EF88F0EB0E010189
:100FE000106FFF0E116F0EEF88F0F7EF87F0A8A2D9
:100FF000FCEF87F0FEEF87F0F7EF87F000EF88F067
:1010000010C1F6FF11C1F7FF000EF86E0800F5CF12
:10101000A9FF0101104B112B0EEF88F010C1F6FF54
:1010200011C1F7FF000EF86E0800F5500009D8A4B2
:101030001CEF88F01EEF88F0F7EF87F022EF88F0C2
:1010400022EF88F0A8A227EF88F029EF88F022EF9E
:1010500088F02BEF88F03D0EA96E2FEF88F0A8A244
:1010600034EF88F036EF88F02FEF88F038EF88F013
:10107000E0380F0B0F0B506E516A050E5024F66EC0
:10108000F70E5120F76EF86A000EF8220800F5CF2F
:10109000A9FF4BEF88F0A8A250EF88F052EF88F03C
:1010A0004BEF88F054EF88F0E0500F0B506E516A10
:1010B000050E5024F66EF70E5120F76EF86A000EFA
:1010C000F8220800F5CFA9FF66EF88F0A8A26BEF21
:1010D00088F06DEF88F066EF88F06FEF88F00D0E06
:1010E000A96E73EF88F0A8A278EF88F07AEF88F005
:1010F00073EF88F07CEF88F00A0EA96E80EF88F01D
:10110000D9CFE4FF84EF88F00A0E0201F2618BEF81
:1011100088F08DEF88F01FEF89F0A00E0101126FAB
:10112000FF0E136FADEF88F096EF88F0A8A29BEF4B
:1011300088F09DEF88F096EF88F09FEF88F012C15D
:10114000F6FF13C1F7FF000EF86E0800F5CFA9FFF8
:101150000101124B132BADEF88F012C1F6FF13C142
:10116000F7FF000EF86E0800F5500009D8A4BBEF99
:1011700088F0BDEF88F096EF88F0C1EF88F0C1EFFE
:1011800088F0A8A2C6EF88F0C8EF88F0C1EF88F019
:10119000CAEF88F03D0EA96ECEEF88F0A8A2D3EF7B
:1011A00088F0D5EF88F0CEEF88F0D7EF88F0D93807
:1011B0000F0B0F0B506E516A050E5024F66EF70E92
:1011C0005120F76EF86A000EF8220800F5CFA9FF4B
:1011D000EAEF88F0A8A2EFEF88F0F1EF88F0EAEFED
:1011E00088F0F3EF88F0D9500F0B506E516A050E5E
:1011F0005024F66EF70E5120F76EF86A000EF822B2
:101200000800F5CFA9FF05EF89F0A8A20AEF89F041
:101210000CEF89F005EF89F00EEF89F00D0EA96E45
:1012200012EF89F0A8A217EF89F019EF89F012EFF9
:1012300089F01BEF89F00A0EA96E1FEF89F0DACF53
:10124000E4FF23EF89F00A0E0201F2612AEF89F030
:101250002CEF89F0BEEF89F0880E0101146FFF0EAC
:10126000156F4CEF89F035EF89F0A8A23AEF89F0BD
:101270003CEF89F035EF89F03EEF89F014C1F6FFBD
:1012800015C1F7FF000EF86E0800F5CFA9FF0101A8
:10129000144B152B4CEF89F014C1F6FF15C1F7FF65
:1012A000000EF86E0800F5500009D8A45AEF89F036
:1012B0005CEF89F035EF89F060EF89F060EF89F03D
:1012C000A8A265EF89F067EF89F060EF89F069EF18
:1012D00089F03D0EA96E6DEF89F0A8A272EF89F03A
:1012E00074EF89F06DEF89F076EF89F0DA380F0B43
:1012F0000F0B506E516A050E5024F66EF70E5120FA
:10130000F76EF86A000EF8220800F5CFA9FF89EF02
:1013100089F0A8A28EEF89F090EF89F089EF89F02B
:1013200092EF89F0DA500F0B506E516A050E50247F
:10133000F66EF70E5120F76EF86A000EF8220800DC
:10134000F5CFA9FFA4EF89F0A8A2A9EF89F0ABEF30
:1013500089F0A4EF89F0ADEF89F00D0EA96EB1EF21
:1013600089F0A8A2B6EF89F0B8EF89F0B1EF89F063
