:0400000039EF02F0E2
:100008005F82E9CF8FF0EACF90F0E1CF91F0E2CFB5
:1000180092F0D9CF93F0DACF94F0F3CF95F0F4CFF4
:1000280096F0F6CF97F0F7CF98F0F8CF99F0F5CF94
:100038009AF09EA422EF00F024EF00F0DDEF01F02B
:100048000A0E0001AF612BEF00F02DEF00F087EFF3
:1000580000F0DD0E536EFF0E546E45EF00F0A8A2BF
:1000680038EF00F03AEF00F033EF00F053C0F6FF3E
:1000780054C0F7FF000EF86E0800F5CFA9FF534AE9
:10008800542A53C0F6FF54C0F7FF000EF86E08005C
:10009800F5500009D8A453EF00F055EF00F033EF06
:1000A80000F0A8A25AEF00F05CEF00F055EF00F066
:1000B8006D0EF66EF80EF76E000EF86E0800F5CFAE
:1000C800A9FFA8A26AEF00F06CEF00F065EF00F05E
:1000D8006E0EF66EF80EF76E000EF86E0800F5CF8D
:1000E800A9FFA8A27AEF00F07CEF00F075EF00F00E
:1000F8000D0EA96EA8A283EF00F085EF00F07EEF49
:1001080000F00A0EA96EE8CFE4FFD8CFE4FFF2CFE3
:10011800E8FFE8CFE4FFF29EE0CFE4FFD9CFE4FFA9
:10012800DACFE4FFE9CFE4FFEACFE4FFF5CFE4FF5D
:10013800F8CFE4FFF7CFE4FFF6CFE4FFF4CFE4FF16
:10014800F3CFE4FFFBCFE4FFFACFE4FFE96AEA6A02
:10015800EECFE4FFEECFE4FFEECFE4FFEECFE4FF17
:10016800EECFE4FFEECFE4FFEECFE4FFEECFE4FF07
:10017800EECFE4FFEECFE4FFEECFE4FFEECFE4FFF7
:10018800EECFE4FFEECFE4FFEECFE4FFEECFE4FFE7
:10019800EECFE4FFEECFE4FFEECFE4FFEFCFE4FFD6
:1001A800E9CFE4FFEACFE4FFFCCFE9FFE3EF00F09B
:1001B800FDCFE4FFFECFE4FFFFCFE4FF0600FC50D5
:1001C800D8A4E9EF00F0EBEF00F0DCEF00F0E9CFA6
:1001D800E4FFE452C3C1E9FFC4C1EAFFE1CFEEFF87
:1001E800E2CFEEFF9E940A0E0001AF61FEEF00F031
:1001F80000EF01F001EF01F0AF2BE4EC88F000090B
:10020800D8B409EF01F00BEF01F070EF01F00A0E1E
:100218000001AF6112EF01F014EF01F06EEF01F091
:10022800DD0E556EFF0E566E2CEF01F0A8A21FEFE3
:1002380001F021EF01F01AEF01F055C0F6FF56C0AA
:10024800F7FF000EF86E0800F5CFA9FF554A562AA9
:1002580055C0F6FF56C0F7FF000EF86E0800F550BF
:100268000009D8A43AEF01F03CEF01F01AEF01F0D1
:10027800A8A241EF01F043EF01F03CEF01F06D0E51
:10028800F66EF80EF76E000EF86E0800F5CFA9FFAF
:10029800A8A251EF01F053EF01F04CEF01F06F0EFF
:1002A800F66EF80EF76E000EF86E0800F5CFA9FF8F
:1002B800A8A261EF01F063EF01F05CEF01F00D0E11
:1002C800A96EA8A26AEF01F06CEF01F065EF01F0EA
:1002D8000A0EA96E6BECA9F0C3C1E9FFC4C1EAFF1D
:1002E800EECFE1FFEECFE2FFE5CFE9FFE5CFE9FF93
:1002F800000EFC6E87EF01F00500E550FF6EE5503B
:10030800FE6EE550FD6EE950FC5CD8A08EEF01F062
:1003180090EF01F080EF01F0E5CFEAFFE5CFE9FFCC
:10032800E5CFEDFFE5CFEDFFE5CFEDFFE5CFEDFF45
:10033800E5CFEDFFE5CFEDFFE5CFEDFFE5CFEDFF35
:10034800E5CFEDFFE5CFEDFFE5CFEDFFE5CFEDFF25
:10035800E5CFEDFFE5CFEDFFE5CFEDFFE5CFEDFF15
:10036800E5CFEDFFE5CFEDFFE5CFEDFFE5CFEFFF03
:10037800E5CFFAFFE5CFFBFFE5CFF3FFE5CFF4FFCD
:10038800E5CFF6FFE5CFF7FFE5CFF8FFE5CFF5FFBF
:10039800E5CFEAFFE5CFE9FFE5CFDAFFE5CFD9FF03
:1003A800E5CFE0FFE5CFE8FFE5CFD8FFE5CFE8FFF1
:1003B8001000F2A4E2EF01F0E4EF01F01FEF02F009
:1003C800F294FB0ED76E600ED66E0001A42B0A0EB7
:1003D800A465F1EF01F0F3EF01F01FEF02F0000E5A
:1003E800A46FA24BA32BE90EA25D030EA359D8A0BC
:1003F80000EF02F002EF02F01FEF02F0000EA36F11
:10040800000EA26FA12B3C0EA1650DEF02F00FEFBD
:1004180002F01FEF02F0000EA16FA02B3C0EA065AA
:1004280018EF02F01AEF02F01FEF02F0000EA06FB3
:100438009F2B1FEF02F09AC0F5FF99C0F8FF98C0F4
:10044800F7FF97C0F6FF96C0F4FF95C0F3FF94C07E
:10045800DAFF93C0D9FF92C0E2FF91C0E1FF90C0DC
:0E046800EAFF8FC0E9FF5F921100CEEFC1F0F6
:10F86C000030313233343536373839616263646590
:10F87C00660400024153534552543A25733A2564A9
:10F88C000D0A536F757263652F4672656552544F3E
:10F89C00532F4D656D4D616E672F686561705F34D8
:10F8AC002E63004153534552543A25733A25640D47
:10F8BC000A536F757263652F4672656552544F53C8
:10F8CC002F73747265616D5F6275666665722E6307
:10F8DC00004153534552543A25733A25640D0A534B
:10F8EC006F757263652F4672656552544F532F6561
:10F8FC0076656E745F67726F7570732E630050520D
:10F90C00494F52495459203D202564202D2D2D2D31
:10F91C002D2D2D2D2D2D2D2D2D2D2D2D2D2D2D2D0B
:10F92C002D2D2D2D2D2D0D0A000D0A2D2D2D2D2DAE
:10F93C002D2D2D2D2D2D2D2D2D2D2D2D2D2D2D2DEB
:10F94C002D2D2D2D2D2D2D2D2D2D2D2D2D2D2D2DDB
:10F95C000D0A00707276496E697469616C69736521
:10F96C004E65775461736B203030312070784E6562
:10F97C00775443423D25700D0A0041535345525470
:10F98C003A25733A25640D0A536F757263652F46D9
:10F99C0072656552544F532F71756575652E6300F2
:10F9AC00765461736B5374617274536368656475D8
:10F9BC006C657228303032297852657475726E3DE0
:10F9CC002564200D0A00707276496E697469616C49
:10F9DC006973654E65775461736B203030322070DB
:10F9EC0078537461636B3D25700D0A004153534588
:10F9FC0052543A25733A25640D0A536F7572636538
:10FA0C002F4672656552544F532F7461736B732E6E
:10FA1C0063007072764164644E65775461736B5405
:10FA2C006F52656164794C697374E3808030320D78
:10FA3C000A007072764164644E65775461736B543E
:10FA4C006F52656164794C697374E3808030330D57
:10FA5C000A002A2A2A2070785265616479546173ED
:10FA6C006B734C697374735B5D202A2A2A0D0A0030
:10FA7C002A2A2A2A2A2A2A2A2A2A2A2A2A2A2A2ADA
:10FA8C002A2A2A2A2A2A2A2A2A2A2A0D0A007854B9
:10FA9C0061736B437265617465203030312070780E
:10FAAC004E65775443423D25700D0A0078546173BE
:10FABC006B437265617465203030322070785374FA
:10FACC0061636B3D25700D0A00765461736B537442
:10FADC006172745363686564756C65722830303379
:10FAEC0029200D0A00765461736B53746172745340
:10FAFC0063686564756C65722830303529200D0A91
:10FB0C0000765461736B53746172745363686564EB
:10FB1C00756C65722830303729200D0A00765461D7
:10FB2C00736B53746172745363686564756C65723E
:10FB3C002830303829200D0A00765461736B5374C9
:10FB4C006172745363686564756C65722830303902
:10FB5C0029200D0A00757843757272656E744E75A6
:10FB6C006D6265724F665461736B733D25640D0A4B
:10FB7C00004E616D65095374617465095072696F4B
:10FB8C0009537461636B094E756D0D0A0078506FE3
:10FB9C00727453746172745363686564756C6572C6
:10FBAC002830303129200D0A0078506F727453744C
:10FBBC006172745363686564756C65722830303299
:10FBCC0029200D0A00707276536574757054696D36
:10FBDC006572496E746572727570742833290D0ADA
:10FBEC0000706F72745441534B5F46554E435449E9
:10FBFC004F4E28292053544152540D0A007654611B
:10FC0C00736B53746172745363686564756C65725D
:10FC1C0028303031290D0A00765461736B537461AE
:10FC2C0072745363686564756C6572283030322960
:10FC3C000D0A00707276496E697469616C6973653E
:10FC4C004E65775461736B203030320D0A00707240
:10FC5C0076496E697469616C6973654E6577546138
:10FC6C00736B203030330D0A00784C697374456E19
:10FC7C00642E70784E657874282564292025700DC3
:10FC8C000A00696E74656765722E632025642053C3
:10FC9C0074617475733D25640D0A0020202B2D2D85
:10FCAC0020784974656D56616C756520203D25641E
:10FCBC000D0A007078496E64657820202020202081
:10FCCC0020202020203D25700D0A00784C6973748B
:10FCDC00456E64202020202020202020203D2570EF
:10FCEC000D0A0020202B2D2D2070784E6578742065
:10FCFC0020202020203D25700D0A0020202B2D2DAA
:10FD0C002070764F776E657220202020203D257064
:10FD1C000D0A0020202B2D2D2070785072657669ED
:10FD2C006F757320203D25700D0A0020202B2D2D82
:10FD3C00207078436F6E7461696E6572203D25701A
:10FD4C000D0A006D61696E312E6320256420537499
:10FD5C00617475733D25640D0A002070764F776EC3
:10FD6C0065722020202020E380803D2025700D0A24
:10FD7C000020707850726576696F75732020E3806F
:10FD8C00803D2025700D0A00207076436F6E7461E3
:10FD9C00696E657220E380803D2025700D0A00207D
:10FDAC0070784E6578742020202020E38080203DE0
:10FDBC002025700D0A0020784974656D56616C75AC
:10FDCC00652020E380803D2025780D0A00706F6C43
:10FDDC006C512E63202564205374617475733D251A
:10FDEC00640D0A002075785072696F7269747920FD
:10FDFC002020203D2025640D0A002070784E657867
:10FE0C007420202020202020203D2025700D0A0069
:10FE1C0070784E6577544342202020202020203DCE
:10FE2C002025700D0A00207078537461636B2020BC
:10FE3C0020202020203D2025700D0A002070764FB8
:10FE4C00776E6572202020202020203D2025700D0B
:10FE5C000A0020707850726576696F7573202020C7
:10FE6C00203D2025700D0A00207076436F6E746162
:10FE7C00696E65722020203D2025700D0A002070CF
:10FE8C0078456E644F66537461636B20203D20256A
:10FE9C00700D0A00207078546F704F665374616354
:10FEAC006B20203D2025700D0A0078537461746519
:10FEBC004C6973744974656D203D2025700D0A00E2
:10FECC00784576656E744C6973744974656D203D24
:10FEDC002025700D0A0070635461736B4E616D6563
:10FEEC0020202020203D2025730D0A002078497405
:10FEFC00656D56616C7565202020203D2025780DA0
:10FF0C000A002A2A2A205541525420535441525453
:10FF1C00202A2A2A0D0A002A2A2A20207461736BAF
:10FF2C00496E666F20202A2A2A0D0A007461736BB1
:10FF3C0030303128292053544152540D0A00746139
:10FF4C00736B30303228292053544152540D0A001F
:10FF5C00785461736B437265617465203030330D76
:10FF6C000A007461736B3030312829204C6F6F702C
:10FF7C000D0A007461736B3030322829204C6F6F7E
:10FF8C00700D0A005441534B204E554D203D2025F9
:10FF9C00640D0A0009256309256409256409256493
:10FFAC000D0A0043435052343D25782C25780D0A18
:10FFBC000078436F6E3D00784E65783D0054534396
:10FFCC003D005449543D007049543D0049444C4552
:10FFDC00004953523D007049533D00553031005596
:10FFEC003032004D30320051303300513034002566
:03FFFC007300008F
:020000040001F9
:10000000000E0101556F0A0E0001AF610AEF80F08A
:100010000CEF80F068EF80F0CE0E0101566FFF0EFE
:10002000576F26EF80F0A8A218EF80F01AEF80F04B
:1000300013EF80F056C1F6FF57C1F7FF000EF86EC0
:100040000800F5CFA9FF0101564B572B56C1F6FF0B
:1000500057C1F7FF000EF86E0800F5500009D8A44C
:1000600034EF80F036EF80F013EF80F0A8A23BEF82
:1000700080F03DEF80F036EF80F06D0EF66EF80EFA
:10008000F76E000EF86E0800F5CFA9FFA8A24BEF9F
:1000900080F04DEF80F046EF80F06E0EF66EF80EB9
:1000A000F76E000EF86E0800F5CFA9FFA8A25BEF6F
:1000B00080F05DEF80F056EF80F00D0EA96EA8A2E3
:1000C00064EF80F066EF80F05FEF80F00A0EA96EBB
:1000D0000101CF51D8A46FEF80F071EF80F078EF7D
:1000E00088F00A0E0001AF6178EF80F07AEF80F0BF
:1000F000D6EF80F0CE0E0101586FFF0E596F94EFCE
:1001000080F0A8A286EF80F088EF80F081EF80F089
:1001100058C1F6FF59C1F7FF000EF86E0800F5CF81
:10012000A9FF0101584B592B58C1F6FF59C1F7FFE0
:10013000000EF86E0800F5500009D8A4A2EF80F078
:10014000A4EF80F081EF80F0A8A2A9EF80F0ABEFE0
:1001500080F0A4EF80F06D0EF66EF80EF76E000ED4
:10016000F86E0800F5CFA9FFA8A2B9EF80F0BBEFA9
:1001700080F0B4EF80F06F0EF66EF80EF76E000EA2
:10018000F86E0800F5CFA9FFA8A2C9EF80F0CBEF69
:1001900080F0C4EF80F00D0EA96EA8A2D2EF80F01F
:1001A000D4EF80F0CDEF80F00A0EA96E010E0101B0
:1001B000C1257C6F000EC2217D6F7CC1C1F17DC164
:1001C000C2F17C517D11D8A4E8EF80F0EAEF80F015
:1001D00076EF81F00A0E0001AF61F1EF80F0F3EFEE
:1001E00080F04FEF81F0CE0E01015A6FFF0E5B6F72
:1001F0000DEF81F0A8A2FFEF80F001EF81F0FAEFA0
:1002000080F05AC1F6FF5BC1F7FF000EF86E0800E0
:10021000F5CFA9FF01015A4B5B2B5AC1F6FF5BC119
:10022000F7FF000EF86E0800F5500009D8A41BEF88
:1002300081F01DEF81F0FAEF80F0A8A222EF81F0AB
:1002400024EF81F01DEF81F06D0EF66EF80EF76E63
:10025000000EF86E0800F5CFA9FFA8A232EF81F0DA
:1002600034EF81F02DEF81F0700EF66EF80EF76E20
:10027000000EF86E0800F5CFA9FFA8A242EF81F0AA
:1002800044EF81F03DEF81F00D0EA96EA8A24BEF77
:1002900081F04DEF81F046EF81F00A0EA96EA9C002
:1002A000D9FFAAC0DAFFDF50D8B459EF81F05BEF75
:1002B00081F066EF81F0F80E01012C6FF90E2D6FC1
:1002C0000B0E2F6F680E2E6F38ECA5F0A9C051F100
:1002D000AAC052F1A7C0A9F0A8C0AAF051C1A7F0C6
:1002E00052C1A8F00101D12B1BECC2F00A0E000193
:1002F000AF617DEF81F07FEF81F0F9EF81F0BD0E0E
:1003000001015C6FFF0E5D6F99EF81F0A8A28BEF8A
:1003100081F08DEF81F086EF81F05CC1F6FF5DC169
:10032000F7FF000EF86E0800F5CFA9FF01015C4B46
:100330005D2B5CC1F6FF5DC1F7FF000EF86E080093
:10034000F5500009D8A4A7EF81F0A9EF81F086EF5E
:1003500081F0A8A2AEEF81F0B0EF81F0A9EF81F0BB
:100360007CC14DF17DC14EF1040E01014F6FD8905B
:100370004E334D334F2FB7EF81F00F0E4D17000E58
:100380004E176D0E4D25F66EF80E4E21F76EF86A7B
:10039000000EF8220800F5CFA9FFA8A2D2EF81F045
:1003A000D4EF81F0CDEF81F00F0E01017C154D6F80
:1003B000000E7D154E6F6D0E4D25F66EF80E4E211A
:1003C000F76EF86A000EF8220800F5CFA9FFA8A280
:1003D000ECEF81F0EEEF81F0E7EF81F00D0EA96E0A
:1003E000A8A2F5EF81F0F7EF81F0F0EF81F00A0EAF
:1003F000A96E0A0E0001AF6100EF82F002EF82F0F9
:100400007CEF82F0C30E01015E6FFF0E5F6F1CEF89
:1004100082F0A8A20EEF82F010EF82F009EF82F0D6
:100420005EC1F6FF5FC1F7FF000EF86E0800F5CF62
:10043000A9FF01015E4B5F2B5EC1F6FF5FC1F7FFB5
:10044000000EF86E0800F5500009D8A42AEF82F0DB
:100450002CEF82F009EF82F0A8A231EF82F033EFA7
:1004600082F02CEF82F0BDC14DF1BEC14EF1040E01
:1004700001014F6FD8904E334D334F2F3AEF82F03A
:100480000F0E4D17000E4E176D0E4D25F66EF80E21
:100490004E21F76EF86A000EF8220800F5CFA9FF8A
:1004A000A8A255EF82F057EF82F050EF82F00F0EC6
:1004B0000101BD154D6F000EBE154E6F6D0E4D2521
:1004C000F66EF80E4E21F76EF86A000EF82208005C
:1004D000F5CFA9FFA8A26FEF82F071EF82F06AEF6B
:1004E00082F00D0EA96EA8A278EF82F07AEF82F06A
:1004F00073EF82F00A0EA96E0101BD517C5DBE5101
:100500007D59D8A086EF82F088EF82F0BAEF86F0AE
:100510000A0E0001AF618FEF82F091EF82F0EDEFF4
:1005200082F0CE0E0101606FFF0E616FABEF82F0C3
:10053000A8A29DEF82F09FEF82F098EF82F060C159
:10054000F6FF61C1F7FF000EF86E0800F5CFA9FFB6
:100550000101604B612B60C1F6FF61C1F7FF000E26
:10056000F86E0800F5500009D8A4B9EF82F0BBEF8F
:1005700082F098EF82F0A8A2C0EF82F0C2EF82F082
:10058000BBEF82F06D0EF66EF80EF76E000EF86E91
:100590000800F5CFA9FFA8A2D0EF82F0D2EF82F039
:1005A000CBEF82F0710EF66EF80EF76E000EF86E5D
:1005B0000800F5CFA9FFA8A2E0EF82F0E2EF82F0F9
:1005C000DBEF82F00D0EA96EA8A2E9EF82F0EBEF4F
:1005D00082F0E4EF82F00A0EA96EA9C0D9FFAAC08A
:1005E000DAFFDF50D8A4F7EF82F0F9EF82F063EF83
:1005F00083F00A0E0001AF6100EF83F002EF83F099
:100600005EEF83F0CE0E0101626FFF0E636F1CEF91
:1006100083F0A8A20EEF83F010EF83F009EF83F0D0
:1006200062C1F6FF63C1F7FF000EF86E0800F5CF58
:10063000A9FF0101624B632B62C1F6FF63C1F7FFA3
:10064000000EF86E0800F5500009D8A42AEF83F0D8
:100650002CEF83F009EF83F0A8A231EF83F033EFA2
:1006600083F02CEF83F06D0EF66EF80EF76E000E31
:10067000F86E0800F5CFA9FFA8A241EF83F043EF81
:1006800083F03CEF83F0720EF66EF80EF76E000EFC
:10069000F86E0800F5CFA9FFA8A251EF83F053EF41
:1006A00083F04CEF83F00D0EA96EA8A25AEF83F0F1
:1006B0005CEF83F055EF83F00A0EA96E0101BD696E
:1006C000BE69BAEF86F00A0E0001AF616AEF83F0EF
:1006D0006CEF83F0C8EF83F0CE0E0101646FFF0E64
:1006E000656F86EF83F0A8A278EF83F07AEF83F04E
:1006F00073EF83F064C1F6FF65C1F7FF000EF86E7B
:100700000800F5CFA9FF0101644B652B64C1F6FF1A
:1007100065C1F7FF000EF86E0800F5500009D8A477
:1007200094EF83F096EF83F073EF83F0A8A29BEF32
:1007300083F09DEF83F096EF83F06D0EF66EF80E6A
:10074000F76E000EF86E0800F5CFA9FFA8A2ABEF78
:1007500083F0ADEF83F0A6EF83F0730EF66EF80E24
:10076000F76E000EF86E0800F5CFA9FFA8A2BBEF48
:1007700083F0BDEF83F0B6EF83F00D0EA96EA8A253
:10078000C4EF83F0C6EF83F0BFEF83F00A0EA96ECB
:10079000000120EE05F0A951D926AA51DA2210EE67
:1007A00006F0DE50E126DD50E222E6CF7EF1E5CF15
:1007B0007FF1010120EE02F07E51D9267F51DA222D
:1007C000DECF53F1DDCF54F153517C5D54517D594F
:1007D000D8B0EDEF83F0EFEF83F05AEF84F00A0E1C
:1007E0000001AF61F6EF83F0F8EF83F054EF84F08F
:1007F000CE0E0101666FFF0E676F12EF84F0A8A2A4
:1008000004EF84F006EF84F0FFEF83F066C1F6FF9B
:1008100067C1F7FF000EF86E0800F5CFA9FF0101D0
:10082000664B672B66C1F6FF67C1F7FF000EF86ED7
:100830000800F5500009D8A420EF84F022EF84F0DE
:10084000FFEF83F0A8A227EF84F029EF84F022EFD6
:1008500084F06D0EF66EF80EF76E000EF86E08005E
:10086000F5CFA9FFA8A237EF84F039EF84F032EF7B
:1008700084F0740EF66EF80EF76E000EF86E080037
:10088000F5CFA9FFA8A247EF84F049EF84F042EF2B
:1008900084F00D0EA96EA8A250EF84F052EF84F000
:1008A0004BEF84F00A0EA96E53C1BDF154C1BEF1E5
:1008B000BAEF86F020EE0AF07E51D9267F51DA2277
:1008C000DECF76F1DDCF77F120EE06F07E51D9262E
:1008D0007F51DA2210EE04F07E51E1267F51E222B0
:1008E00000EE04F0E650E926E550EA22DECFEEFF06
:1008F000DDCFEDFF20EE04F07E51D9267F51DA22C4
:1009000010EE06F07E51E1267F51E22200EE02F069
:10091000E650E926E550EA22DECFEEFFDDCFEDFF1F
:10092000020E7E254D6F000E7F214E6F20EE01F0EE
:100930007651D9267751DA224D51DE1807E14E5112
:10094000DE18D8A4A6EF84F0A8EF84F0B8EF84F006
:1009500020EE06F07E51D9267F51DA2210EE01F00A
:100960007651E1267751E222DECFE6FFDDCFE5FFCB
:1009700020EE0AF07E51D9267F51DA22DE6ADD6A46
:1009800076C1D9FF77C1DAFFDF0620EE14F07E5181
:10099000D9267F51DA22DE50DE10D8B4D2EF84F0AF
:1009A000D4EF84F0A5EF85F00A0E0001AF61DBEF14
:1009B00084F0DDEF84F039EF85F0CE0E0101686F31
:1009C000FF0E696FF7EF84F0A8A2E9EF84F0EBEF78
:1009D00084F0E4EF84F068C1F6FF69C1F7FF000E10
:1009E000F86E0800F5CFA9FF0101684B692B68C1BB
:1009F000F6FF69C1F7FF000EF86E0800F550000918
:100A0000D8A405EF85F007EF85F0E4EF84F0A8A205
:100A10000CEF85F00EEF85F007EF85F06D0EF66EAA
:100A2000F80EF76E000EF86E0800F5CFA9FFA8A229
:100A30001CEF85F01EEF85F017EF85F0750EF66E52
:100A4000F80EF76E000EF86E0800F5CFA9FFA8A209
:100A50002CEF85F02EEF85F027EF85F00D0EA96EB7
:100A6000A8A235EF85F037EF85F030EF85F00A0E5C
:100A7000A96E010120EE14F07E51D9267F51DA22B1
:100A8000DECF78F1DDCF79F120EE10F07E51D9265E
:100A90007F51DA2210EE0EF07E51E1267F51E222E4
:100AA00000EE04F0E650E926E550EA22DECFEEFF44
:100AB000DDCFEDFF20EE0EF07E51D9267F51DA22F8
:100AC00010EE10F07E51E1267F51E22200EE02F09E
:100AD000E650E926E550EA22DECFEEFFDDCFEDFF5E
:100AE0000C0E7E254D6F000E7F214E6F20EE01F023
:100AF0007851D9267951DA224D51DE1807E14E514D
:100B0000DE18D8A486EF85F088EF85F098EF85F0A1
:100B100020EE10F07E51D9267F51DA2210EE01F03E
:100B20007851E1267951E222DECFE6FFDDCFE5FF05
:100B300020EE14F07E51D9267F51DA22DE6ADD6A7A
:100B400078C1D9FF79C1DAFFDF0620EE16F07E51B9
:100B5000D9267F51DA22DE50D45DD8B0B2EF85F0CD
:100B6000B4EF85F0BCEF85F020EE16F07E51D9266B
:100B70007F51DA22DF50D46F20EE16F07E51D92655
:100B80007F51DA22DF504D6F4D51090DD70EF324FE
:100B9000D96E010EF420DA6EDECF7AF1DDCF7BF173
:100BA00020EE04F07E51D9267F51DA227AC1DEFF91
:100BB0007BC1DDFF20EE04F07A51D9267B51DA2289
:100BC00010EE06F07E51E1267F51E222DECFE6FFF5
:100BD000DDCFE5FF020E7E254D6F000E7F214E6FAB
:100BE00020EE04F07A51D9267B51DA2210EE02F081
:100BF000DE50E126DD50E2224DC1E6FF4EC1E5FFA9
:100C0000020E7E254D6F000E7F214E6F20EE04F008
:100C10007A51D9267B51DA224DC1DEFF4EC1DDFF6C
:100C200020EE16F07E51D9267F51DA22DF504D6F2B
:100C30004D51090DD60EF3244E6F010EF4204F6F67
:100C400020EE0AF07E51D9267F51DA224EC1DEFF16
:100C50004FC1DDFF20EE16F07E51D9267F51DA22FA
:100C6000DF504D6F4D51090DD60EF324D96E010E94
:100C7000F420DA6EDF2A0A0E0001AF6142EF86F03F
:100C800044EF86F0A0EF86F0CE0E01016A6FFF0EF2
:100C90006B6F5EEF86F0A8A250EF86F052EF86F001
:100CA0004BEF86F06AC1F6FF6BC1F7FF000EF86EDE
:100CB0000800F5CFA9FF01016A4B6B2B6AC1F6FF53
:100CC0006BC1F7FF000EF86E0800F5500009D8A4BC
:100CD0006CEF86F06EEF86F04BEF86F0A8A273EF14
:100CE00086F075EF86F06EEF86F06D0EF66EF80EFC
:100CF000F76E000EF86E0800F5CFA9FFA8A283EFEB
:100D000086F085EF86F07EEF86F0760EF66EF80EB2
:100D1000F76E000EF86E0800F5CFA9FFA8A293EFBA
:100D200086F095EF86F08EEF86F00D0EA96EA8A2E4
:100D30009CEF86F09EEF86F097EF86F00A0EA96E84
:100D4000010120EE16F07E51D9267F51DA2210EEF5
:100D500016F0C351E126C451E222DE50E65CD8B061
:100D6000B4EF86F0B6EF86F0EDEF82F0010E556F2E
:100D7000EDEF82F00A0E0001AF61C1EF86F0C3EF24
:100D800086F01FEF87F0CE0E01016C6FFF0E6D6FC6
:100D9000DDEF86F0A8A2CFEF86F0D1EF86F0CAEFA4
:100DA00086F06CC1F6FF6DC1F7FF000EF86E08000B
:100DB000F5CFA9FF01016C4B6D2B6CC1F6FF6DC126
:100DC000F7FF000EF86E0800F5500009D8A4EBEF0D
:100DD00086F0EDEF86F0CAEF86F0A8A2F2EF86F07B
:100DE000F4EF86F0EDEF86F06D0EF66EF80EF76E0E
:100DF000000EF86E0800F5CFA9FFA8A202EF87F059
:100E000004EF87F0FDEF86F0770EF66EF80EF76EC2
:100E1000000EF86E0800F5CFA9FFA8A212EF87F028
:100E200014EF87F00DEF87F00D0EA96EA8A21BEF4F
:100E300087F01DEF87F016EF87F00A0EA96E01010B
:100E400020EE16F0C351D926C451DA22DF504D6F7F
:100E50004D51090DD60EF324D96E010EF420DA6E31
:100E6000010EDF6436EF87F038EF87F0A0EF87F0F0
:100E70000A0E0001AF613FEF87F041EF87F09DEF71
:100E800087F0CE0E01016E6FFF0E6F6F5BEF87F084
:100E9000A8A24DEF87F04FEF87F048EF87F06EC1C3
:100EA000F6FF6FC1F7FF000EF86E0800F5CFA9FF3F
:100EB00001016E4B6F2B6EC1F6FF6FC1F7FF000E85
:100EC000F86E0800F5500009D8A469EF87F06BEFC1
:100ED00087F048EF87F0A8A270EF87F072EF87F0F5
:100EE0006BEF87F06D0EF66EF80EF76E000EF86E73
:100EF0000800F5CFA9FFA8A280EF87F082EF87F066
:100F00007BEF87F0780EF66EF80EF76E000EF86E37
:100F10000800F5CFA9FFA8A290EF87F092EF87F025
:100F20008BEF87F00D0EA96EA8A299EF87F09BEFCB
:100F300087F094EF87F00A0EA96E010E0101556F3C
:100F40000A0E0001AF61A7EF87F0A9EF87F005EF68
:100F500088F0CE0E0101706FFF0E716FC3EF87F046
:100F6000A8A2B5EF87F0B7EF87F0B0EF87F070C1B8
:100F7000F6FF71C1F7FF000EF86E0800F5CFA9FF6C
:100F80000101704B712B70C1F6FF71C1F7FF000EAC
:100F9000F86E0800F5500009D8A4D1EF87F0D3EF20
:100FA00087F0B0EF87F0A8A2D8EF87F0DAEF87F0EC
:100FB000D3EF87F06D0EF66EF80EF76E000EF86E3A
:100FC0000800F5CFA9FFA8A2E8EF87F0EAEF87F0C5
:100FD000E3EF87F0790EF66EF80EF76E000EF86EFE
:100FE0000800F5CFA9FFA8A2F8EF87F0FAEF87F085
:100FF000F3EF87F00D0EA96EA8A201EF88F003EFC2
:1010000088F0FCEF87F00A0EA96E0101D251D8B426
:101010000CEF88F00EEF88F07CEF88F00A0E0001EC
:10102000AF6115EF88F017EF88F073EF88F0CE0E00
:101030000101726FFF0E736F31EF88F0A8A223EFEA
:1010400088F025EF88F01EEF88F072C1F6FF73C1BB
:10105000F7FF000EF86E0800F5CFA9FF0101724BF3
:10106000732B72C1F6FF73C1F7FF000EF86E080014
:10107000F5500009D8A43FEF88F041EF88F01EEF4B
:1010800088F0A8A246EF88F048EF88F041EF88F09A
:101090006D0EF66EF80EF76E000EF86E0800F5CFC6
:1010A000A9FFA8A256EF88F058EF88F051EF88F01A
:1010B0007A0EF66EF80EF76E000EF86E0800F5CF99
:1010C000A9FFA8A266EF88F068EF88F061EF88F0CA
:1010D0000D0EA96EA8A26FEF88F071EF88F06AEF8D
:1010E00088F00A0EA96E010E0101556F7CEF88F0A1
:1010F000BF4BC02B7CEF88F00A0E0001AF6183EF7D
:1011000088F085EF88F0E1EF88F0CE0E0101746F72
:10111000FF0E756F9FEF88F0A8A291EF88F093EF14
:1011200088F08CEF88F074C1F6FF75C1F7FF000EF0
:10113000F86E0800F5CFA9FF0101744B752B74C13F
:10114000F6FF75C1F7FF000EF86E0800F5500009B4
:10115000D8A4ADEF88F0AFEF88F08CEF88F0A8A2AC
:10116000B4EF88F0B6EF88F0AFEF88F07C0EF66E43
:10117000F80EF76E000EF86E0800F5CFA9FFA8A2D2
:10118000C4EF88F0C6EF88F0BFEF88F07C0EF66EF3
:10119000F80EF76E000EF86E0800F5CFA9FFA8A2B2
:1011A000D4EF88F0D6EF88F0CFEF88F00D0EA96E5F
:1011B000A8A2DDEF88F0DFEF88F0D8EF88F00A0E04
:1011C000A96E010155511200000E0001646F0A0E54
:1011D000AF61EDEF88F0EFEF88F04AEF89F0CE0EC7
:1011E000656FFF0E666F08EF89F0A8A2FAEF88F02E
:1011F000FCEF88F0F5EF88F065C0F6FF66C0F7FFFA
:10120000000EF86E0800F5CFA9FF0001654B662BB4
:1012100065C0F6FF66C0F7FF000EF86E0800F550D7
:101220000009D8A416EF89F018EF89F0F5EF88F0DF
:10123000A8A21DEF89F01FEF89F018EF89F06D0E5D
:10124000F66EF80EF76E000EF86E0800F5CFA9FFE7
:10125000A8A22DEF89F02FEF89F028EF89F06E0E0C
:10126000F66EF80EF76E000EF86E0800F5CFA9FFC7
:10127000A8A23DEF89F03FEF89F038EF89F00D0E1D
:10128000A96EA8A246EF89F048EF89F041EF89F0F6
:101290000A0EA96E0101CF51D8A451EF89F053EF86
:1012A00089F04FEF91F00A0E0001AF615AEF89F01B
:1012B0005CEF89F0B7EF89F0CE0E676FFF0E686FB5
:1012C00075EF89F0A8A267EF89F069EF89F062EF06
:1012D00089F067C0F6FF68C0F7FF000EF86E0800DF
:1012E000F5CFA9FF0001674B682B67C0F6FF68C008
:1012F000F7FF000EF86E0800F5500009D8A483EF40
:1013000089F085EF89F062EF89F0A8A28AEF89F071
:101310008CEF89F085EF89F06D0EF66EF80EF76EA2
:10132000000EF86E0800F5CFA9FFA8A29AEF89F089
:101330009CEF89F095EF89F06F0EF66EF80EF76E60
:10134000000EF86E0800F5CFA9FFA8A2AAEF89F059
:10135000ACEF89F0A5EF89F00D0EA96EA8A2B3EF4E
:1013600089F0B5EF89F0AEEF89F00A0EA96E010E93
:101370000101C12500018B6F000E0101C221000196
:101380008C6F8BC0C1F18CC0C2F18B518C11D8A471
:10139000CCEF89F0CEEF89F057EF8AF00A0EAF61FB
:1013A000D4EF89F0D6EF89F031EF8AF0CE0E696F75
:1013B000FF0E6A6FEFEF89F0A8A2E1EF89F0E3EF8B
:1013C00089F0DCEF89F069C0F6FF6AC0F7FF000E14
:1013D000F86E0800F5CFA9FF0001694B6A2B69C0C0
:1013E000F6FF6AC0F7FF000EF86E0800F55000091E
:1013F000D8A4FDEF89F0FFEF89F0DCEF89F0A8A217
:1014000004EF8AF006EF8AF0FFEF89F06D0EF66EBA
:10141000F80EF76E000EF86E0800F5CFA9FFA8A22F
:1014200014EF8AF016EF8AF00FEF8AF0700EF66E66
:10143000F80EF76E000EF86E0800F5CFA9FFA8A20F
:1014400024EF8AF026EF8AF01FEF8AF00D0EA96EC6
:10145000A8A22DEF8AF02FEF8AF028EF8AF00A0E6B
:10146000A96EA9C0D9FFAAC0DAFFDF50D8B43BEFFC
:101470008AF03DEF8AF047EF8AF0F80E2D6EF90EF4
:101480002E6E0B0E306E680E2F6EA3ECA6F0A9C068
:1014900060F0AAC061F0A7C0A9F0A8C0AAF060C01F
:1014A000A7F061C0A8F00101D12B40ECC2F00A0EF8
:1014B0000001AF615EEF8AF060EF8AF0D8EF8AF04A
:1014C000BD0E6B6FFF0E6C6F79EF8AF0A8A26BEF09
:1014D0008AF06DEF8AF066EF8AF06BC0F6FF6CC0A1
:1014E000F7FF000EF86E0800F5CFA9FF00016B4B67
:1014F0006C2B6BC0F6FF6CC0F7FF000EF86E080097
:10150000F5500009D8A487EF8AF089EF8AF066EFDA
:101510008AF0A8A28EEF8AF090EF8AF089EF8AF025
:101520008BC048F08CC049F0040E4A6ED890493206
:1015300048324A2E96EF8AF00F0E4816000E4916D2
:101540006D0E4824F66EF80E4920F76EF86A000E0C
:10155000F8220800F5CFA9FFA8A2B1EF8AF0B3EFF7
:101560008AF0ACEF8AF00F0E00018B15486E000E6A
:101570008C15496E6D0E4824F66EF80E4920F76EF4
:10158000F86A000EF8220800F5CFA9FFA8A2CBEF59
:101590008AF0CDEF8AF0C6EF8AF00D0EA96EA8A2F0
:1015A000D4EF8AF0D6EF8AF0CFEF8AF00A0EA96E58
:1015B0000A0E0001AF61DFEF8AF0E1EF8AF059EF28
:1015C0008BF0C30E6D6FFF0E6E6FFAEF8AF0A8A25C
:1015D000ECEF8AF0EEEF8AF0E7EF8AF06DC0F6FFED
:1015E0006EC0F7FF000EF86E0800F5CFA9FF0001EE
:1015F0006D4B6E2B6DC0F6FF6EC0F7FF000EF86EE0
:101600000800F5500009D8A408EF8BF00AEF8BF022
:10161000E7EF8AF0A8A20FEF8BF011EF8BF00AEF43
:101620008BF0BDC148F0BEC149F0040E4A6ED8909F
:10163000493248324A2E17EF8BF00F0E4816000E33
:1016400049166D0E4824F66EF80E4920F76EF86ABA
:10165000000EF8220800F5CFA9FFA8A232EF8BF008
:1016600034EF8BF02DEF8BF00F0E0101BD15486E9E
:10167000000EBE15496E6D0E4824F66EF80E492018
:10168000F76EF86A000EF8220800F5CFA9FFA8A2AD
:101690004CEF8BF04EEF8BF047EF8BF00D0EA96EF9
:1016A000A8A255EF8BF057EF8BF050EF8BF00A0E9E
:1016B000A96E0101BD5100018B5D0101BE51000108
:1016C0008C59D8A066EF8BF068EF8BF095EF8FF018
:1016D0000A0EAF616EEF8BF070EF8BF0CBEF8BF0FB
:1016E000CE0E6F6FFF0E706F89EF8BF0A8A27BEFAD
:1016F0008BF07DEF8BF076EF8BF06FC0F6FF70C054
:10170000F7FF000EF86E0800F5CFA9FF00016F4B40
:10171000702B6FC0F6FF70C0F7FF000EF86E080068
:10172000F5500009D8A497EF8BF099EF8BF076EF86
:101730008BF0A8A29EEF8BF0A0EF8BF099EF8BF0CF
:101740006D0EF66EF80EF76E000EF86E0800F5CF0F
:10175000A9FFA8A2AEEF8BF0B0EF8BF0A9EF8BF052
:10176000710EF66EF80EF76E000EF86E0800F5CFEB
:10177000A9FFA8A2BEEF8BF0C0EF8BF0B9EF8BF002
:101780000D0EA96EA8A2C7EF8BF0C9EF8BF0C2EFC8
:101790008BF00A0EA96EA9C0D9FFAAC0DAFFDF50EC
:1017A000D8A4D5EF8BF0D7EF8BF040EF8CF00A0E7A
:1017B0000001AF61DEEF8BF0E0EF8BF03BEF8CF0E0
:1017C000CE0E716FFF0E726FF9EF8BF0A8A2EBEFE8
:1017D0008BF0EDEF8BF0E6EF8BF071C0F6FF72C08F
:1017E000F7FF000EF86E0800F5CFA9FF0001714B5E
:1017F000722B71C0F6FF72C0F7FF000EF86E080082
:10180000F5500009D8A407EF8CF009EF8CF0E6EF53
:101810008BF0A8A20EEF8CF010EF8CF009EF8CF09B
:101820006D0EF66EF80EF76E000EF86E0800F5CF2E
:10183000A9FFA8A21EEF8CF020EF8CF019EF8CF01E
:10184000720EF66EF80EF76E000EF86E0800F5CF09
:10185000A9FFA8A22EEF8CF030EF8CF029EF8CF0CE
:101860000D0EA96EA8A237EF8CF039EF8CF032EF95
:101870008CF00A0EA96E0101BD69BE6995EF8FF06B
:101880000A0E0001AF6147EF8CF049EF8CF0A4EF36
:101890008CF0CE0E736FFF0E746F62EF8CF0A8A207
:1018A00054EF8CF056EF8CF04FEF8CF073C0F6FFD6
:1018B00074C0F7FF000EF86E0800F5CFA9FF000115
:1018C000734B742B73C0F6FF74C0F7FF000EF86EF5
:1018D0000800F5500009D8A470EF8CF072EF8CF07E
:1018E0004FEF8CF0A8A277EF8CF079EF8CF072EFCD
:1018F0008CF06D0EF66EF80EF76E000EF86E0800A6
:10190000F5CFA9FFA8A287EF8CF089EF8CF082EFCA
:101910008CF0730EF66EF80EF76E000EF86E08007F
:10192000F5CFA9FFA8A297EF8CF099EF8CF092EF7A
:101930008CF00D0EA96EA8A2A0EF8CF0A2EF8CF097
:101940009BEF8CF00A0EA96E000120EE05F0A95164
:10195000D926AA51DA2210EE06F0DE50E126DD503B
:10196000E222E6CF8DF0E5CF8EF020EE02F08D5131
:10197000D9268E51DA22DECF62F0DDCF63F06251DC
:101980008B5D63518C59D8B0C8EF8CF0CAEF8CF0E6
:1019900033EF8DF00A0EAF61D0EF8CF0D2EF8CF008
:1019A0002DEF8DF0CE0E756FFF0E766FEBEF8CF096
:1019B000A8A2DDEF8CF0DFEF8CF0D8EF8CF075C0D3
:1019C000F6FF76C0F7FF000EF86E0800F5CFA9FF0E
:1019D0000001754B762B75C0F6FF76C0F7FF000E41
:1019E000F86E0800F5500009D8A4F9EF8CF0FBEF71
:1019F0008CF0D8EF8CF0A8A200EF8DF002EF8DF004
:101A0000FBEF8CF06D0EF66EF80EF76E000EF86EB2
:101A10000800F5CFA9FFA8A210EF8DF012EF8DF00E
:101A20000BEF8DF0740EF66EF80EF76E000EF86E7A
:101A30000800F5CFA9FFA8A220EF8DF022EF8DF0CE
:101A40001BEF8DF00D0EA96EA8A229EF8DF02BEFE4
:101A50008DF024EF8DF00A0EA96E62C0BDF163C057
:101A6000BEF195EF8FF020EE0AF08D51D9268E5100
:101A7000DA22DECF85F0DDCF86F020EE06F08D5144
:101A8000D9268E51DA2210EE04F08D51E1268E51C6
:101A9000E22200EE04F0E650E926E550EA22DECF2D
:101AA000EEFFDDCFEDFF20EE04F08D51D9268E51F3
:101AB000DA2210EE06F08D51E1268E51E22200EE80
:101AC00002F0E650E926E550EA22DECFEEFFDDCF58
:101AD000EDFF020E8D25486E000E8E21496E20EE20
:101AE00001F08551D9268651DA224850DE1807E1E7
:101AF0004950DE18D8A47FEF8DF081EF8DF091EF83
:101B00008DF020EE06F08D51D9268E51DA2210EE9E
:101B100001F08551E1268651E222DECFE6FFDDCFDE
:101B2000E5FF20EE0AF08D51D9268E51DA22DE6AC9
:101B3000DD6A85C0D9FF86C0DAFFDF0620EE14F02B
:101B40008D51D9268E51DA22DE50DE10D8B4ABEF9B
:101B50008DF0ADEF8DF07CEF8EF00A0EAF61B3EF3C
:101B60008DF0B5EF8DF010EF8EF0CE0E776FFF0E8B
:101B7000786FCEEF8DF0A8A2C0EF8DF0C2EF8DF0A0
:101B8000BBEF8DF077C0F6FF78C0F7FF000EF86E60
:101B90000800F5CFA9FF0001774B782B77C0F6FF3F
:101BA00078C0F7FF000EF86E0800F5500009D8A4C1
:101BB000DCEF8DF0DEEF8DF0BBEF8DF0A8A2E3EF50
:101BC0008DF0E5EF8DF0DEEF8DF06D0EF66EF80E18
:101BD000F76E000EF86E0800F5CFA9FFA8A2F3EF8C
:101BE0008DF0F5EF8DF0EEEF8DF0750EF66EF80ED0
:101BF000F76E000EF86E0800F5CFA9FFA8A203EF5C
:101C00008EF005EF8EF0FEEF8DF00D0EA96EA8A2FE
:101C10000CEF8EF00EEF8EF007EF8EF00A0EA96E2D
:101C2000000120EE14F08D51D9268E51DA22DECF3C
:101C300087F0DDCF88F020EE10F08D51D9268E513F
:101C4000DA2210EE0EF08D51E1268E51E22200EEE6
:101C500004F0E650E926E550EA22DECFEEFFDDCFC4
:101C6000EDFF20EE0EF08D51D9268E51DA2210EEC6
:101C700010F08D51E1268E51E22200EE02F0E65086
:101C8000E926E550EA22DECFEEFFDDCFEDFF0C0EB8
:101C90008D25486E000E8E21496E20EE01F0875191
:101CA000D9268851DA224850DE1807E14950DE185B
:101CB000D8A45DEF8EF05FEF8EF06FEF8EF020EE28
:101CC00010F08D51D9268E51DA2210EE01F0875195
:101CD000E1268851E222DECFE6FFDDCFE5FF20EEF0
:101CE00014F08D51D9268E51DA22DE6ADD6A87C062
:101CF000D9FF88C0DAFFDF0620EE16F08D51D92615
:101D00008E51DA22DE500101D45DD8B08AEF8EF018
:101D10008CEF8EF096EF8EF0000120EE16F08D51D4
:101D2000D9268E51DA22DF500101D46F000120EE56
:101D300016F08D51D9268E51DA22DF50486E485068
:101D4000090DD70EF324D96E010EF420DA6EDECF22
:101D500089F0DDCF8AF020EE04F08D51D9268E5126
:101D6000DA2289C0DEFF8AC0DDFF20EE04F089514F
:101D7000D9268A51DA2210EE06F08D51E1268E51D5
:101D8000E222DECFE6FFDDCFE5FF020E8D25486EB5
:101D9000000E8E21496E20EE04F08951D9268A5119
:101DA000DA2210EE02F0DE50E126DD50E22248C0D9
:101DB000E6FF49C0E5FF020E8D25486E000E8E211C
:101DC000496E20EE04F08951D9268A51DA2248C0A2
:101DD000DEFF49C0DDFF20EE16F08D51D9268E5171
:101DE000DA22DF50486E4850090DD60EF324496EB2
:101DF000010EF4204A6E20EE0AF08D51D9268E5144
:101E0000DA2249C0DEFF4AC0DDFF20EE16F08D5118
:101E1000D9268E51DA22DF50486E4850090DD60E71
:101E2000F324D96E010EF420DA6EDF2A0A0EAF61B8
:101E30001CEF8FF01EEF8FF079EF8FF0CE0E796FE1
:101E4000FF0E7A6F37EF8FF0A8A229EF8FF02BEFFC
:101E50008FF024EF8FF079C0F6FF7AC0F7FF000E05
:101E6000F86E0800F5CFA9FF0001794B7A2B79C0F5
:101E7000F6FF7AC0F7FF000EF86E0800F550000973
:101E8000D8A445EF8FF047EF8FF024EF8FF0A8A292
:101E90004CEF8FF04EEF8FF047EF8FF06D0EF66E38
:101EA000F80EF76E000EF86E0800F5CFA9FFA8A295
:101EB0005CEF8FF05EEF8FF057EF8FF0760EF66EDF
:101EC000F80EF76E000EF86E0800F5CFA9FFA8A275
:101ED0006CEF8FF06EEF8FF067EF8FF00D0EA96E45
:101EE000A8A275EF8FF077EF8FF070EF8FF00A0EEA
:101EF000A96E000120EE16F08D51D9268E51DA22FE
:101F0000010110EE16F0C351E126C451E222DE5069
:101F1000E65CD8B08EEF8FF090EF8FF0CBEF8BF0C8
:101F2000010E0001646FCBEF8BF00A0E0001AF6170
:101F30009CEF8FF09EEF8FF0F9EF8FF0CE0E7B6F5E
:101F4000FF0E7C6FB7EF8FF0A8A2A9EF8FF0ABEF79
:101F50008FF0A4EF8FF07BC0F6FF7CC0F7FF000E80
:101F6000F86E0800F5CFA9FF00017B4B7C2B7BC0EE
:101F7000F6FF7CC0F7FF000EF86E0800F550000970
:101F8000D8A4C5EF8FF0C7EF8FF0A4EF8FF0A8A211
:101F9000CCEF8FF0CEEF8FF0C7EF8FF06D0EF66EB7
:101FA000F80EF76E000EF86E0800F5CFA9FFA8A294
:101FB000DCEF8FF0DEEF8FF0D7EF8FF0770EF66E5D
:101FC000F80EF76E000EF86E0800F5CFA9FFA8A274
:101FD000ECEF8FF0EEEF8FF0E7EF8FF00D0EA96EC4
:101FE000A8A2F5EF8FF0F7EF8FF0F0EF8FF00A0E69
:101FF000A96E010120EE16F0C351D926C451DA2290
:10200000DF50486E4850090DD60EF324D96E010EEC
:10201000F420DA6E010EDF6410EF90F012EF90F012
:1020200079EF90F00A0E0001AF6119EF90F01BEF0D
:1020300090F076EF90F0CE0E7D6FFF0E7E6F34EF56
:1020400090F0A8A226EF90F028EF90F021EF90F00A
:102050007DC0F6FF7EC0F7FF000EF86E0800F5CFDA
:10206000A9FF00017D4B7E2B7DC0F6FF7EC0F7FFF0
:10207000000EF86E0800F5500009D8A442EF90F069
:1020800044EF90F021EF90F0A8A249EF90F04BEFD1
:1020900090F044EF90F06D0EF66EF80EF76E000EB5
:1020A000F86E0800F5CFA9FFA8A259EF90F05BEFFA
:1020B00090F054EF90F0780EF66EF80EF76E000E7A
:1020C000F86E0800F5CFA9FFA8A269EF90F06BEFBA
:1020D00090F064EF90F00D0EA96EA8A272EF90F050
:1020E00074EF90F06DEF90F00A0EA96E010E0001F2
:1020F000646F0A0E0001AF6180EF90F082EF90F004
:10210000DDEF90F0CE0E7F6FFF0E806F9BEF90F0B3
:10211000A8A28DEF90F08FEF90F088EF90F07FC045
:10212000F6FF80C0F7FF000EF86E0800F5CFA9FF9C
:1021300000017F4B802B7FC0F6FF80C0F7FF000EB1
:10214000F86E0800F5500009D8A4A9EF90F0ABEFA5
:1021500090F088EF90F0A8A2B0EF90F0B2EF90F07E
:10216000ABEF90F06D0EF66EF80EF76E000EF86E97
:102170000800F5CFA9FFA8A2C0EF90F0C2EF90F041
:10218000BBEF90F0790EF66EF80EF76E000EF86E5B
:102190000800F5CFA9FFA8A2D0EF90F0D2EF90F001
:1021A000CBEF90F00D0EA96EA8A2D9EF90F0DBEF67
:1021B00090F0D4EF90F00A0EA96E0101D251D8B47C
:1021C000E4EF90F0E6EF90F053EF91F00A0E00018B
:1021D000AF61EDEF90F0EFEF90F04AEF91F0CE0E9F
:1021E000816FFF0E826F08EF91F0A8A2FAEF90F0D6
:1021F000FCEF90F0F5EF90F081C0F6FF82C0F7FFA2
:10220000000EF86E0800F5CFA9FF0001814B822B6C
:1022100081C0F6FF82C0F7FF000EF86E0800F5508F
:102220000009D8A416EF91F018EF91F0F5EF90F0B7
:10223000A8A21DEF91F01FEF91F018EF91F06D0E35
:10224000F66EF80EF76E000EF86E0800F5CFA9FFD7
:10225000A8A22DEF91F02FEF91F028EF91F07A0ED8
:10226000F66EF80EF76E000EF86E0800F5CFA9FFB7
:10227000A8A23DEF91F03FEF91F038EF91F00D0EF5
:10228000A96EA8A246EF91F048EF91F041EF91F0CE
:102290000A0EA96E010E0001646F53EF91F0BF4B5F
:1022A000C02B53EF91F00A0E0001AF615AEF91F08D
:1022B0005CEF91F0B7EF91F0CE0E836FFF0E846F5D
:1022C00075EF91F0A8A267EF91F069EF91F062EFDE
:1022D00091F083C0F6FF84C0F7FF000EF86E08008F
:1022E000F5CFA9FF0001834B842B83C0F6FF84C088
:1022F000F7FF000EF86E0800F5500009D8A483EF30
:1023000091F085EF91F062EF91F0A8A28AEF91F041
:102310008CEF91F085EF91F07C0EF66EF80EF76E73
:10232000000EF86E0800F5CFA9FFA8A29AEF91F071
:102330009CEF91F095EF91F07C0EF66EF80EF76E33
:10234000000EF86E0800F5CFA9FFA8A2AAEF91F041
:10235000ACEF91F0A5EF91F00D0EA96EA8A2B3EF2E
:1023600091F0B5EF91F0AEEF91F00A0EA96E000179
:102370006451120001010351800B0C6F03510325BE
:102380000E6F02AFC6EF91F0C8EF91F0C9EF91F078
:102390000E810E51D8B4CFEF91F0D1EF91F0E6EF6E
:1023A00091F00E29D8A4D7EF91F0D9EF91F0E1EF99
:1023B00091F0000E006F000E016F000E026F000E14
:1023C000036F028F000E036FEEEF91F0000E006FAF
:1023D000000E016F000E026F000E036F0751800B9D
:1023E0000D6F0C510D19D8B4F8EF91F0FAEF91F090
:1023F000FBEF91F00C8D075107250D6F06AF03EF32
:1024000092F005EF92F006EF92F00D810D51D8B4E5
:102410000CEF92F00EEF92F023EF92F00D29D8A47A
:1024200014EF92F016EF92F01EEF92F0000E046F90
:10243000000E056F000E066F000E076F068F000E70
:10244000076F2BEF92F0000E046F000E056F000E69
:10245000066F000E076F0E510D5DD8B032EF92F08F
:1024600034EF92F05BEF92F00CAD39EF92F03BEF6E
:1024700092F03DEF92F0800E0C1B0EC10FF10DC1DA
:102480000EF10FC10DF100C10FF104C100F10FC138
:1024900004F101C10FF105C101F10FC105F102C144
:1024A0000FF106C102F10FC106F103C10FF107C11F
:1024B00003F10FC107F1000E0F6F0E510DC108F1AE
:1024C000096B085F000E095B09BF70EF92F00951BC
:1024D00009E11A0E085DD8A070EF92F072EF92F049
:1024E000A9EF92F00051011102110311D8A47BEF62
:1024F00092F07EEF92F0010E7FEF92F0000E0F6FE0
:10250000000E006F000E016F000E026F000E036FD1
:102510000DC10EF1B2EF92F00FA191EF92F093EF97
:1025200092F099EF92F0D8900F3101090F6F9BEF65
:1025300092F0D8900F3300A1A0EF92F0A2EF92F0AA
:10254000A3EF92F00F8F03350333023301330033CF
:102550000E2B0D510E5DD8A0B0EF92F0B2EF92F0BD
:102560008CEF92F00CBDB7EF92F0B9EF92F0F9EF6B
:1025700092F00E51D8A4BFEF92F0C1EF92F0CBEFE2
:1025800092F0000E006F000E016F000E026F000E41
:10259000036F1AEF94F004510027055101230651EF
:1025A00002230751032303A1D8EF92F0DAEF92F050
:1025B00086EF93F00FA1DFEF92F0E1EF92F0E7EFFB
:1025C00092F0D8900F3101090F6FE9EF92F0D89097
:1025D0000F3300A1EEEF92F0F0EF92F0F1EF92F0F6
:1025E0000F8F033503330233013300330E2B86EF95
:1025F00093F00451005D05510159065102590351F0
:10260000800A086F0751800A0859D8B00AEF93F082
:102610000CEF93F037EF93F00051045D086F015118
:102620000559096F025106590A6F035107590B6F7B
:10263000FF0E0825006FFF0E0921016FFF0E0A2112
:10264000026FFF0E0B21036F800E0C1B0F6D0F51DD
:10265000D8A42DEF93F02FEF93F03FEF93F0010EFE
:102660000027000E0123022303233FEF93F00451C0
:10267000005F0551015B0651025B0751035B00518E
:10268000011102110311D8A448EF93F04AEF93F01F
:102690007FEF93F00F51D8A450EF93F052EF93F0E7
:1026A0007FEF93F0000E006F000E016F000E026FBF
:1026B000000E036F1AEF94F0D890003701370237FD
:1026C00003370FAF66EF93F068EF93F069EF93F085
:1026D00000810FA16EEF93F070EF93F074EF93F021
:1026E000D8800F3776EF93F0D8900F370E51D8B4CB
:1026F0007CEF93F07EEF93F07FEF93F00E0702AF45
:1027000084EF93F086EF93F05CEF93F0000E0D6F83
:102710000FAF8DEF93F08FEF93F0A7EF93F00FC112
:1027200008F17F0E0817D8B498EF93F09AEF93F062
:102730009EEF93F0010E0D6FA7EF93F000A1A3EFB2
:1027400093F0A5EF93F0A7EF93F09AEF93F00D516C
:10275000D8B4ADEF93F0AFEF93F0DAEF93F0010E52
:102760000027000E01230223032303A1BAEF93F0F5
:10277000BCEF93F0DAEF93F000C108F101C109F169
:1027800002C10AF103C10BF10B350B330A330933D4
:10279000083308C100F109C101F10AC102F10BC1FE
:1027A00003F10E29D8B4D7EF93F0D9EF93F0DAEF15
:1027B00093F00E2B0E29D8B4E0EF93F0E2EF93F0F4
:1027C000EAEF93F00E51D8A4E8EF93F0EAEF93F01C
:1027D000FCEF93F0000E006F000E016F000E026F11
:1027E000000E036F0E51D8A4F8EF93F0FAEF93F0B8
:1027F000FCEF93F0000E0C6F0EA101EF94F003EFCD
:1028000094F006EF94F0028F07EF94F0029FD890B7
:102810000E31036F0CAF0FEF94F011EF94F012EF45
:1028200094F0038F00C100F101C101F102C102F176
:1028300003C103F112000450800B0D6E04500424F8
:102840000F6E03AE26EF94F028EF94F029EF94F08A
:102850000F800F50D8B42FEF94F031EF94F046EF83
:1028600094F00F28D8A437EF94F039EF94F041EFAB
:1028700094F0000E016E000E026E000E036E000E4C
:10288000046E038E000E046E4EEF94F0000E016E87
:10289000000E026E000E036E000E046E0850800BD8
:1028A0000E6E0D500E18D8B458EF94F05AEF94F005
:1028B0005BEF94F00D8C085008240E6E07AE63EFAA
:1028C00094F065EF94F066EF94F00E800E50D8B45B
:1028D0006CEF94F06EEF94F083EF94F00E28D8A490
:1028E00074EF94F076EF94F07EEF94F0000E056EA6
:1028F000000E066E000E076E000E086E078E000EAC
:10290000086E8BEF94F0000E056E000E066E000E42
:10291000076E000E086E0F500E5CD8B092EF94F068
:1029200094EF94F0BBEF94F00DAC99EF94F09BEF23
:1029300094F09DEF94F0800E0D1A0FC010F00EC0B1
:102940000FF010C00EF001C010F005C001F010C073
:1029500005F002C010F006C002F010C006F003C07F
:1029600010F007C003F010C007F004C010F008C05A
:1029700004F010C008F0000E106E0F500EC009F0E9
:102980000A6A095E000E0A5A0ABED0EF94F00A5095
:1029900009E11A0E095CD8A0D0EF94F0D2EF94F0C0
:1029A00009EF95F00150021003100410D8A4DBEFDA
:1029B00094F0DEEF94F0010EDFEF94F0000E106E55
:1029C000000E016E000E026E000E036E000E046E0D
:1029D0000EC00FF012EF95F010A0F1EF94F0F3EFAE
:1029E00094F0F9EF94F0D89010300109106EFBEFDD
:1029F00094F0D890103201A000EF95F002EF95F01E
:102A000003EF95F0108E04340432033202320132A7
:102A10000F2A0E500F5CD8A010EF95F012EF95F032
:102A2000ECEF94F00DBC17EF95F019EF95F059EF1E
:102A300095F00F50D8A41FEF95F021EF95F02BEFF4
:102A400095F0000E016E000E026E000E036E000E79
:102A5000046E7AEF96F005500126065002220750C8
:102A600003220850042204A038EF95F03AEF95F0C5
:102A7000E6EF95F010A03FEF95F041EF95F047EFAE
:102A800095F0D89010300109106E49EF95F0D8906C
:102A9000103201A04EEF95F050EF95F051EF95F008
:102AA000108E043404320332023201320F2AE6EF70
:102AB00095F00550015C0650025807500358045029
:102AC000800A096E0850800A0958D8B06AEF95F05C
:102AD0006CEF95F097EF95F00150055C096E025090
:102AE00006580A6E035007580B6E045008580C6EB7
:102AF000FF0E0924016EFF0E0A20026EFF0E0B204E
:102B0000036EFF0E0C20046E800E0D1A106C105018
:102B1000D8A48DEF95F08FEF95F09FEF95F0010E13
:102B20000126000E0222032204229FEF95F0055099
:102B3000015E0650025A0750035A0850045A0150C9
:102B4000021003100410D8A4A8EF95F0AAEF95F096
:102B5000DFEF95F01050D8A4B0EF95F0B2EF95F0FC
:102B6000DFEF95F0000E016E000E026E000E036E98
:102B7000000E046E7AEF96F0D890013602360336D6
:102B8000043610AEC6EF95F0C8EF95F0C9EF95F09A
:102B9000018010A0CEEF95F0D0EF95F0D4EF95F036
:102BA000D8801036D6EF95F0D89010360F50D8B4A4
:102BB000DCEF95F0DEEF95F0DFEF95F00F0603AE5A
:102BC000E4EF95F0E6EF95F0BCEF95F0000E0E6E99
:102BD00010AEEDEF95F0EFEF95F007EF96F010C027
:102BE00009F07F0E0916D8B4F8EF95F0FAEF95F0DA
:102BF000FEEF95F0010E0E6E07EF96F001A003EFC9
:102C000096F005EF96F007EF96F0FAEF95F00E507C
:102C1000D8B40DEF96F00FEF96F03AEF96F0010E64
:102C20000126000E02220322042204A01AEF96F0CD
:102C30001CEF96F03AEF96F001C009F002C00AF0DE
:102C400003C00BF004C00CF00C340C320B320A320F
:102C5000093209C001F00AC002F00BC003F00CC039
:102C600004F00F28D8B437EF96F039EF96F03AEF2A
:102C700096F00F2A0F28D8B440EF96F042EF96F066
:102C80004AEF96F00F50D8A448EF96F04AEF96F02E
:102C90005CEF96F0000E016E000E026E000E036EE9
:102CA000000E046E0F50D8A458EF96F05AEF96F02D
:102CB0005CEF96F0000E0D6E0FA061EF96F063EFE3
:102CC00096F066EF96F0038E67EF96F0039ED8902D
:102CD0000F30046E0DAE6FEF96F071EF96F072EF5D
:102CE00096F0048E01C001F002C002F003C003F0B0
:102CF00004C004F0120001010351800B0C6F03515A
:102D00000325126F02AF87EF96F089EF96F08AEFF6
:102D100096F012811251D8B490EF96F092EF96F09F
:102D2000A5EF96F01229D8A498EF96F09AEF96F0B6
:102D3000A2EF96F0000E006F000E016F000E026F02
:102D4000000E036F028FADEF96F0000E006F000EC5
:102D5000016F000E026F000E036F0751800B0C1BFA
:102D6000075107250D6F06AFB8EF96F0BAEF96F052
:102D7000BBEF96F00D810D51D8B4C1EF96F0C3EFC3
:102D800096F0D6EF96F00D29D8A4C9EF96F0CBEFC8
:102D900096F0D3EF96F0000E046F000E056F000E54
:102DA000066F000E076F068FDEEF96F0000E046FC1
:102DB000000E056F000E066F000E076F0D51D8B4A0
:102DC000E4EF96F0E6EF96F0EEEF96F01251D8A40D
:102DD000ECEF96F0EEEF96F0F8EF96F0000E006F45
:102DE000000E016F000E026F000E036F90EF98F05F
:102DF00006510003F3CF17F1F4CF18F117510E6FFE
:102E00000F6B106B116B1851136F146B156B166BE6
:102E100005510103F3CF17F1F4CF18F117510E2725
:102E2000000E0F231023112318511327000E142313
:102E30001523162304510203F3CF17F1F4CF18F131
:102E400017510E27000E0F2310231123185113279B
:102E5000000E14231523162310C111F10FC110F118
:102E60000EC10FF10E6B04510103F3CF17F1F4CF34
:102E700018F117510E2718510F23000E1023000EC2
:102E8000112305510003F3CF17F1F4CF18F11751B7
:102E90000E2718510F23000E1023000E112310C10E
:102EA00011F10FC110F10EC10FF10E6B04510003AF
:102EB000F3CF17F1F4CF18F117510E2718510F2344
:102EC000000E1023000E112306510103F3CF17F15A
:102ED000F4CF18F11751132718511423000E15239E
:102EE000000E162305510203F3CF17F1F4CF18F1AA
:102EF0001751132718511423000E1523000E162303
:102F000006510203F3CF17F1F4CF18F11751086FF0
:102F10001851096F0A6B0B6B0AC10BF109C10AF159
:102F200008C109F1086B08511327095114230A51EC
:102F300015230B5116230EC108F10FC109F110C161
:102F40000AF111C10BF1190EABEF97F0D8900B33CA
:102F50000A3309330833E82EA6EF97F008511327F8
:102F6000095114230A5115230B51162310C111F1D5
:102F70000FC110F10EC10FF10E6B0D5112C108F10E
:102F8000096B0827000E0923820E0825176FFF0E14
:102F90000921186FE1EF97F0D890133714371537E0
:102FA000163711AFD6EF97F0D8EF97F0D9EF97F02B
:102FB0001381D8900E370F37103711371707D8A065
:102FC000180715AFE6EF97F0E8EF97F0CCEF97F022
:102FD000000E0D6F11AFEFEF97F0F1EF97F015EFD7
:102FE00098F0FF0E0E15086FFF0E0F15096FFF0EFC
:102FF00010150A6F7F0E11150B6F085109110A1178
:103000000B11D8B406EF98F008EF98F00CEF98F099
:10301000010E0D6F15EF98F013A111EF98F013EF5B
:1030200098F015EF98F008EF98F00D51D8B41BEF19
:1030300098F01DEF98F041EF98F0010E1327000E65
:1030400014231523162316A128EF98F02AEF98F0E1
:1030500041EF98F013C108F114C109F115C10AF14B
:1030600016C10BF10B350B330A330933083308C192
:1030700013F109C114F10AC115F10BC116F1174B77
:10308000182B18BF4CEF98F0185108E11729D8A059
:103090004CEF98F04EEF98F058EF98F0000E136F49
:1030A000000E146F800E156F7F0E166F86EF98F06E
:1030B00018BF65EF98F0185106E11705D8B063EF17
:1030C00098F065EF98F071EF98F0000E136F000E16
:1030D000146F000E156F000E166F000E0C6F86EF4A
:1030E00098F017C112F1FF0E1317FF0E14177F0E81
:1030F0001517000E161712A180EF98F082EF98F0C6
:1031000083EF98F0158FD8901231166F0C5116136B
:1031100013C100F114C101F115C102F116C103F18F
:1031200012000450800B0D6E04500424136E03AE85
:103130009CEF98F09EEF98F09FEF98F0138013505B
:10314000D8B4A5EF98F0A7EF98F0BAEF98F013284D
:10315000D8A4ADEF98F0AFEF98F0B7EF98F0000E6D
:10316000016E000E026E000E036E000E046E038EE2
:10317000C2EF98F0000E016E000E026E000E036E9C
:10318000000E046E0850800B0D1A08500824126EB1
:1031900007AECDEF98F0CFEF98F0D0EF98F0128017
:1031A0001250D8B4D6EF98F0D8EF98F0EBEF98F033
:1031B0001228D8A4DEEF98F0E0EF98F0E8EF98F04E
:1031C000000E056E000E066E000E076E000E086EF5
:1031D000078EF3EF98F0000E056E000E066E000EDF
:1031E000076E000E086E1250D8B4F9EF98F0FBEF9E
:1031F00098F003EF99F01350D8A401EF99F003EF82
:1032000099F00DEF99F0000E016E000E026E000EA7
:10321000036E000E046EA5EF9AF007500102F3CF83
:1032200018F0F4CF19F018500E6E0F6A106A116A78
:103230001950146E156A166A176A06500202F3CF07
:1032400018F0F4CF19F018500E26000E0F2210229D
:10325000112219501426000E15221622172205508D
:103260000302F3CF18F0F4CF19F018500E26000E19
:103270000F221022112219501426000E1522162298
:10328000172210C011F00FC010F00EC00FF00E6A20
:1032900005500202F3CF18F0F4CF19F018500E26A3
:1032A00019500F22000E1022000E112206500102AA
:1032B000F3CF18F0F4CF19F018500E2619500F2242
:1032C000000E1022000E112210C011F00FC010F0DD
:1032D0000EC00FF00E6A05500102F3CF18F0F4CFC4
:1032E00019F018500E2619500F22000E1022000E51
:1032F000112207500202F3CF18F0F4CF19F0185042
:10330000142619501522000E1622000E1722065000
:103310000302F3CF18F0F4CF19F018501426195007
:103320001522000E1622000E172207500302F3CFBB
:1033300018F0F4CF19F01850096E19500A6E0B6A84
:103340000C6A0BC00CF00AC00BF009C00AF0096A45
:10335000095014260A5015220B5016220C50172221
:103360000EC009F00FC00AF010C00BF011C00CF035
:10337000190EC0EF99F0D8900C320B320A32093294
:10338000E82EBBEF99F0095014260A5015220B5075
:1033900016220C50172210C011F00FC010F00EC0F2
:1033A0000FF00E6A125013C009F00A6A0926000EC7
:1033B0000A22820E0924186EFF0E0A20196EF6EFFB
:1033C00099F0D890143615361636173611AEEBEF45
:1033D00099F0EDEF99F0EEEF99F01480D8900E3659
:1033E0000F36103611361806D8A0190616AEFBEFA8
:1033F00099F0FDEF99F0E1EF99F0000E126E11AE29
:1034000004EF9AF006EF9AF02AEF9AF0FF0E0E14EE
:10341000096EFF0E0F140A6EFF0E10140B6E7F0E56
:1034200011140C6E09500A100B100C10D8B41BEFBD
:103430009AF01DEF9AF021EF9AF0010E126E2AEF2A
:103440009AF014A026EF9AF028EF9AF02AEF9AF05B
:103450001DEF9AF01250D8B430EF9AF032EF9AF094
:1034600056EF9AF0010E1426000E1522162217228E
:1034700017A03DEF9AF03FEF9AF056EF9AF014C084
:1034800009F015C00AF016C00BF017C00CF00C3490
:103490000C320B320A32093209C014F00AC015F09E
:1034A0000BC016F00CC017F0184A192A19BE61EFAC
:1034B0009AF0195008E11828D8A061EF9AF063EF4C
:1034C0009AF06DEF9AF0000E146E000E156E800EDD
:1034D000166E7F0E176E9BEF9AF019BE7AEF9AF078
:1034E000195006E11804D8B078EF9AF07AEF9AF004
:1034F00086EF9AF0000E146E000E156E000E166E1A
:10350000000E176E000E0D6E9BEF9AF018C013F0B0
:10351000FF0E1416FF0E15167F0E1616000E171648
:1035200013A095EF9AF097EF9AF098EF9AF0168E15
:10353000D8901330176E0D50171214C001F015C03B
:1035400002F016C003F017C004F01200000E0101D3
:103550008D6F000E8E6F000E846FCF51D8A4B3EF25
:103560009AF0B5EF9AF0BFEF9AF0F80E2C6FF90EC3
:103570002D6F090E2F6F350E2E6F38ECA5F0F2CFA0
:10358000E6FFF29E0101CF07CF51D8A4CAEF9AF00F
:10359000CCEF9AF0AEEF9CF0D551D8B4D2EF9AF0C0
:1035A000D4EF9AF0AEEF9CF063EF9CF020EE06F0C3
:1035B000F651D926F751DA22DECF8DF1DDCF8EF12B
:1035C00020EE14F08D51D9268E51DA22DECF87F10C
:1035D000DDCF88F120EE10F08D51D9268E51DA2200
:1035E00010EE0EF08D51E1268E51E22200EE04F035
:1035F000E650E926E550EA22DECFEEFFDDCFEDFF13
:1036000020EE0EF08D51D9268E51DA2210EE10F0F8
:103610008D51E1268E51E22200EE02F0E650E926BD
:10362000E550EA22DECFEEFFDDCFEDFF0C0E8D255B
:10363000806F000E8E21816F20EE01F08751D92618
:103640008851DA228051DE1807E18151DE18D8A4B2
:103650002CEF9BF02EEF9BF03EEF9BF020EE10F056
:103660008D51D9268E51DA2210EE01F08751E126D4
:103670008851E222DECFE6FFDDCFE5FF20EE14F039
:103680008D51D9268E51DA22DE6ADD6A87C1D9FFD3
:1036900088C1DAFFDF0620EE0AF08D51D9268E515F
:1036A000DA22DECF89F1DDCF8AF120EE06F08D51EE
:1036B000D9268E51DA2210EE04F08D51E1268E517A
:1036C000E22200EE04F0E650E926E550EA22DECFE1
:1036D000EEFFDDCFEDFF20EE04F08D51D9268E51A7
:1036E000DA2210EE06F08D51E1268E51E22200EE34
:1036F00002F0E650E926E550EA22DECFEEFFDDCF0C
:10370000EDFF020E8D25806F000E8E21816F20EE61
:1037100001F08951D9268A51DA228051DE1807E159
:103720008151DE18D8A497EF9BF099EF9BF0A9EF99
:103730009BF020EE06F08D51D9268E51DA2210EE44
:1037400001F08951E1268A51E222DECFE6FFDDCF8A
:10375000E5FF20EE0AF08D51D9268E51DA22DE6A7D
:10376000DD6A89C1D9FF8AC1DAFFDF0620EE16F0D3
:103770008D51D9268E51DA22DE50D45DD8B0C3EFF8
:103780009BF0C5EF9BF0CDEF9BF020EE16F08D5136
:10379000D9268E51DA22DF50D46F20EE16F08D51EB
:1037A000D9268E51DA22DF50806F8051090DD70E55
:1037B000F324D96E010EF420DA6EDECF8BF1DDCF6B
:1037C0008CF120EE04F08D51D9268E51DA228BC176
:1037D000DEFF8CC1DDFF20EE04F08B51D9268C5129
:1037E000DA2210EE06F08D51E1268E51E222DECF74
:1037F000E6FFDDCFE5FF020E8D25806F000E8E21E6
:10380000816F20EE04F08B51D9268C51DA2210EE14
:1038100002F0DE50E126DD50E22280C1E6FF81C1E8
:10382000E5FF020E8D25806F000E8E21816F20EE48
:1038300004F08B51D9268C51DA2280C1DEFF81C180
:10384000DDFF20EE16F08D51D9268E51DA22DF50A1
:10385000806F8051090DD60EF324816F010EF42084
:10386000826F20EE0AF08D51D9268E51DA2281C165
:10387000DEFF82C1DDFF20EE16F08D51D9268E517C
:10388000DA22DF50806F8051090DD60EF324D96EF5
:10389000010EF420DA6EDF2A20EE16F0C351D9268D
:1038A000C451DA2210EE16F08D51E1268E51E2223B
:1038B000DE50E65CD8A05FEF9CF061EF9CF063EF18
:1038C0009CF0010ED26FF151D8A469EF9CF06BEF20
:1038D0009CF0D6EF9AF08D518E11D8B472EF9CF017
:1038E00074EF9CF076EF9CF01BECC2F0BFC185F149
:1038F000C0C186F1010185518611D8B482EF9CF0D8
:1039000084EF9CF0A2EF9CF000EC80F00009D8B4AA
:103910008CEF9CF08EEF9CF091EF9CF0010E01017A
:10392000D26F01018507D8A0860785518611D8A4DA
:103930009CEF9CF09EEF9CF084EF9CF0000EC06F1B
:10394000000EBF6FD251D8B4A8EF9CF0AAEF9CF044
:10395000AEEF9CF0010E846FB4ECBBF0E552E7AE25
:10396000B4EF9CF0B6EF9CF0B7EF9CF0F28E010143
:1039700084511200B20E01012C6FFB0E2D6F38EC3A
:10398000A5F07C0E01012C6FFA0E2D6F38ECA5F01E
:103990005E0E01012C6FFA0E2D6F38ECA5F07C0E37
:1039A00001012C6FFA0E2D6F38ECA5F0000E01010D
:1039B000506F0A0E2C6FF90E2D6F50C12EF12F6B28
:1039C00038ECA5F0900E01012C6FFF0E2D6F5051B9
:1039D000090DD60EF324D96E010EF420DA6EDF50F5
:1039E0004D6F4D512E6F2F6B38ECA5F0D70E0101A6
:1039F0002C6FFC0E2D6F5051090DD90EF3242E6F34
:103A0000010EF4202F6F38ECA5F0A70E01012C6FEA
:103A1000FC0E2D6F5051090DD90EF324D96E010EF5
:103A2000F420DA6EDECF2EF1DDCF2FF138ECA5F0E9
:103A300001015051090DDB0EF324D96E010EF42063
:103A4000DA6EDECF51F1DDCF52F1EF0E2C6FFC0EAE
:103A50002D6F51C12EF152C12FF138ECA5F01F0E80
:103A600001012C6FFD0E2D6F5051090DDD0EF32459
:103A7000D96E010EF420DA6EDECF2EF1DDCF2FF1FC
:103A800038ECA5F0B20E01012C6FFB0E2D6F38EC57
:103A9000A5F0BF0E01012C6FFC0E2D6F5051090DCA
:103AA000D70EF324D96E010EF420DA6EDECF2EF19C
:103AB000DDCF2FF138ECA5F0A70E01012C6FFC0E25
:103AC0002D6F5051090DD70EF324D96E010EF4203D
:103AD000DA6EDECF4DF1DDCF4EF14DC1D9FF4EC1D3
:103AE000DAFFDECF2EF1DDCF2FF138ECA5F0EF0EAF
:103AF00001012C6FFC0E2D6F51C12EF152C12FF11F
:103B000038ECA5F01F0E01012C6FFD0E2D6F5051EA
:103B1000090DD70EF324D96E010EF420DA6E10EEE3
:103B200004F0DE50E126DD50E222E6CF2EF1E5CFB3
:103B30002FF138ECA5F0070E01012C6FFD0E2D6F53
:103B40005051090DD70EF324D96E010EF420DA6E10
:103B500010EE06F0DE50E126DD50E222E6CF2EF137
:103B6000E5CF2FF138ECA5F0B20E01012C6FFB0E62
:103B70002D6F38ECA5F0010E01014F6F2CEF9EF078
:103B8000750E2C6FFC0E2D6F4FC12EF12F6B51C196
:103B900030F152C131F138ECA5F0A70E01012C6FC4
:103BA000FC0E2D6F51C1D9FF52C1DAFFDECF2EF1CD
:103BB000DDCF2FF138ECA5F0EF0E01012C6FFC0EDC
:103BC0002D6F20EE02F05151D9265251DA22DECF6C
:103BD0002EF1DDCF2FF138ECA5F01F0E01012C6F77
:103BE000FD0E2D6F20EE04F05151D9265251DA22EC
:103BF000DECF2EF1DDCF2FF138ECA5F0070E01015D
:103C00002C6FFD0E2D6F20EE06F05151D92652512A
:103C1000DA22DECF2EF1DDCF2FF138ECA5F0370E12
:103C200001012C6FFD0E2D6F20EE08F05151D926A9
:103C30005251DA22DECF2EF1DDCF2FF138ECA5F094
:103C4000010120EE02F05151D9265251DA22DECF85
:103C500051F1DDCF52F14F2B5051090DD90EF32404
:103C60004D6F010EF4204E6F4D51511907E14E5129
:103C70005219D8A43EEF9EF040EF9EF0C0EF9DF0A9
:103C8000B20E2C6FFB0E2D6F38ECA5F0750E0101F6
:103C90002C6FFC0E2D6F4FC12EF12F6B51C130F1E7
:103CA00052C131F138ECA5F0A70E01012C6FFC0ECA
:103CB0002D6F51C1D9FF52C1DAFFDECF2EF1DDCF1A
:103CC0002FF138ECA5F0EF0E01012C6FFC0E2D6FDB
:103CD00020EE02F05151D9265251DA22DECF2EF1D8
:103CE000DDCF2FF138ECA5F01F0E01012C6FFD0E7A
:103CF0002D6F20EE04F05151D9265251DA22DECF39
:103D00002EF1DDCF2FF138ECA5F0070E01012C6F5D
:103D1000FD0E2D6F20EE06F05151D9265251DA22B8
:103D2000DECF2EF1DDCF2FF138ECA5F0370E0101FB
:103D30002C6FFD0E2D6F20EE08F05151D9265251F7
:103D4000DA22DECF2EF1DDCF2FF138ECA5F0010124
:103D5000502B020E5065AFEF9EF0B1EF9EF0D9EF01
:103D60009CF0120047EFA0F000C105F101C106F17F
:103D70000C0E076FD89006330533072FBAEF9EF06D
:103D80000F0E0517000E06176D0E0525F66EF80EC0
:103D90000621F76EF86A000EF82203C1D9FF04C1AC
:103DA000DAFF0800F5CFDFFF034B042B00C105F15C
:103DB00001C106F106C105F1066B0F0E0517000ED5
:103DC00006176D0E0525F66EF80E0621F76EF86AD9
:103DD000000EF82203C1D9FF04C1DAFF0800F5CFB5
:103DE000DFFF034B042B00C105F101C106F1040EF6
:103DF000076FD89006330533072FF9EF9EF00F0EAB
:103E00000517000E06176D0E0525F66EF80E062135
:103E1000F76EF86A000EF82203C1D9FF04C1DAFF79
:103E20000800F5CFDFFF034B042B0F0E0015056FC5
:103E3000000E0115066F6D0E0525F66EF80E0621B3
:103E4000F76EF86A000EF82203C1D9FF04C1DAFF49
:103E50000800F5CFDFFF034B042B61EFA0F000C19A
:103E600005F101C106F1040E076FD8900633053342
:103E7000072F35EF9FF00F0E0517000E06176D0E7A
:103E80000525F66EF80E0621F76EF86A000EF82288
:103E900003C1D9FF04C1DAFF0800F5CFDFFF034BF0
:103EA000042B0F0E0015056F000E0115066F6D0E29
:103EB0000525F66EF80E0621F76EF86A000EF82258
:103EC00003C1D9FF04C1DAFF0800F5CFDFFF034BC0
:103ED000042B61EFA0F0000E086F00C105F101C1D5
:103EE00006F10C0E076FD89006330533072F73EFDA
:103EF0009FF00F0E0517000E061705510611D8B4D6
:103F000084EF9FF086EF9FF0AAEF9FF000C105F1CC
:103F100001C106F10C0E076FD89006330533072F49
:103F20008CEF9FF00F0E0517000E06176D0E05257E
:103F3000F66EF80E0621F76EF86A000EF82203C13D
:103F4000D9FF04C1DAFF0800F5CFDFFF034B042BD4
:103F5000010E086F0805D8B4B0EF9FF0B2EF9FF0E4
:103F6000C6EF9FF000C105F101C106F106C105F1E0
:103F7000066B0F0E0517000E061705510611D8B473
:103F8000C4EF9FF0C6EF9FF0E5EF9FF000C105F191
:103F900001C106F106C105F1066B0F0E0517000EF3
:103FA00006176D0E0525F66EF80E0621F76EF86AF7
:103FB000000EF82203C1D9FF04C1DAFF0800F5CFD3
:103FC000DFFF034B042B010E086F0805D8B4EBEF9D
:103FD0009FF0EDEF9FF006EFA0F000C105F101C1E9
:103FE00006F1040E076FD89006330533072FF3EF61
:103FF0009FF00F0E0517000E061705510611D8B4D5
:1040000004EFA0F006EFA0F028EFA0F000C105F14A
:1040100001C106F1040E076FD89006330533072F50
:104020000CEFA0F00F0E0517000E06176D0E0525FC
:10403000F66EF80E0621F76EF86A000EF82203C13C
:10404000D9FF04C1DAFF0800F5CFDFFF034B042BD3
:104050000F0E0015056F000E0115066F6D0E05257C
:10406000F66EF80E0621F76EF86A000EF82203C10C
:10407000D9FF04C1DAFF0800F5CFDFFF034B042BA3
:1040800003C1D9FF04C1DAFFDF6A61EFA0F00101CB
:104090000251056F066B0651000AD8B452EFA0F02A
:1040A00061EFA0F00551000AD8B46BEF9FF0020A4F
:1040B000D8B42FEF9FF0060AD8B4B4EF9EF061EFAA
:1040C000A0F003C100F104C101F11200FBEFA1F067
:1040D00001C006F002C007F00C0E086ED89007323F
:1040E0000632082E6EEFA0F00F0E0616000E071611
:1040F0006D0E0624F66EF80E0720F76EF86A000EB5
:10410000F82204C0D9FF05C0DAFF0800F5CFDFFFB1
:10411000044A052A01C006F002C007F007C006F0F5
:10412000076A0F0E0616000E07166D0E0624F66EB1
:10413000F80E0720F76EF86A000EF82204C0D9FFC7
:1041400005C0DAFF0800F5CFDFFF044A052A01C0E9
:1041500006F002C007F0040E086ED890073206324F
:10416000082EADEFA0F00F0E0616000E07166D0E0E
:104170000624F66EF80E0720F76EF86A000EF82295
:1041800004C0D9FF05C0DAFF0800F5CFDFFF044AFD
:10419000052A0F0E0114066E000E0214076E6D0E36
:1041A0000624F66EF80E0720F76EF86A000EF82265
:1041B00004C0D9FF05C0DAFF0800F5CFDFFF044ACD
:1041C000052A14EFA2F001C006F002C007F0040EA9
:1041D000086ED89007320632082EE9EFA0F00F0ED5
:1041E0000616000E07166D0E0624F66EF80E072052
:1041F000F76EF86A000EF82204C0D9FF05C0DAFF96
:104200000800F5CFDFFF044A052A0F0E0114066EE1
:10421000000E0214076E6D0E0624F66EF80E0720CF
:10422000F76EF86A000EF82204C0D9FF05C0DAFF65
:104230000800F5CFDFFF044A052A14EFA2F0000EB4
:10424000096E01C006F002C007F00C0E086ED8908F
:1042500007320632082E27EFA1F00F0E0616000EC9
:10426000071606500710D8B438EFA1F03AEFA1F0C6
:104270005EEFA1F001C006F002C007F00C0E086E60
:10428000D89007320632082E40EFA1F00F0E061626
:10429000000E07166D0E0624F66EF80E0720F76E58
:1042A000F86A000EF82204C0D9FF05C0DAFF080042
:1042B000F5CFDFFF044A052A010E096E0904D8B4C0
:1042C00064EFA1F066EFA1F07AEFA1F001C006F073
:1042D00002C007F007C006F0076A0F0E0616000EB0
:1042E000071606500710D8B478EFA1F07AEFA1F0C6
:1042F00099EFA1F001C006F002C007F007C006F078
:10430000076A0F0E0616000E07166D0E0624F66ECF
:10431000F80E0720F76EF86A000EF82204C0D9FFE5
:1043200005C0DAFF0800F5CFDFFF044A052A010EB9
:10433000096E0904D8B49FEFA1F0A1EFA1F0BAEF84
:10434000A1F001C006F002C007F0040E086ED8907C
:1043500007320632082EA7EFA1F00F0E0616000E48
:10436000071606500710D8B4B8EFA1F0BAEFA1F0C5
:10437000DCEFA1F001C006F002C007F0040E086EE9
:10438000D89007320632082EC0EFA1F00F0E0616A5
:10439000000E07166D0E0624F66EF80E0720F76E57
:1043A000F86A000EF82204C0D9FF05C0DAFF080041
:1043B000F5CFDFFF044A052A0F0E0114066E000E2A
:1043C0000214076E6D0E0624F66EF80E0720F76EC7
:1043D000F86A000EF82204C0D9FF05C0DAFF080011
:1043E000F5CFDFFF044A052A04C0D9FF05C0DAFF74
:1043F000DF6A14EFA2F00350066E076A0750000A46
:10440000D8B405EFA2F014EFA2F00650000AD8B419
:104410001FEFA1F0020AD8B4E3EFA0F0060AD8B467
:1044200068EFA0F014EFA2F004C001F005C002F0A4
:1044300012005F0E01012C6FF90E2D6F5BC12EF182
:104440005CC12FF138ECA5F0D20E01012C6FF90EF2
:104450002D6F20EE17F05B51D9265C51DA22DECFAA
:104460002EF1DDCF2FF138ECA5F0010120EE17F091
:104470005B51D9265C51DA22DECF00F1DDCF01F1AC
:10448000000E036FA50E026F52C104F153C105F176
:1044900083ECB6F03F0E01012C6FFC0E2D6F38EC53
:1044A000A5F0010120EE17F05B51D9265C51DA220C
:1044B000DECF63F1DDCF64F120EE17F05B51D9263A
:1044C0005C51DA22DECF5FF1DDCF60F152515F2720
:1044D00053516023FF0E5F25616FFF0E6021626FF5
:1044E00020EE1DF05B51D9265C51DA2261C1DEFF5E
:1044F00062C1DDFF50515111D8B481EFA2F083EFBA
:10450000A2F0CFEFA2F05A0E2C6FFC0E2D6F38ECFC
:10451000A5F0000E0101676F675150255F6F000E17
:104520005121606F5FC1F6FF60C1F7FF000EF86EAA
:1045300067515B25616F000E5C21626F190E61256A
:10454000D96E000E6221DA6E0800F5CFDFFF6751E9
:1045500050255F6F000E5121606F5FC1F6FF60C193
:10456000F7FF000EF86E0800F5500009D8A4BBEF65
:10457000A2F0BDEFA2F0BFEFA2F0C8EFA2F0672B50
:10458000030E6765C6EFA2F0C8EFA2F08CEFA2F0B1
:1045900020EE1CF05B51D9265C51DA22DF6A020E54
:1045A0005865D5EFA2F0D7EFA2F0E1EFA2F0F80E38
:1045B0002C6FF90E2D6F030E2F6FCF0E2E6F38EC70
:1045C000A5F0020E01015865E8EFA2F0EAEFA2F0B3
:1045D000ECEFA2F0020E586F20EE16F05B51D926D8
:1045E0005C51DA2258C1DFFF020E5B25006F000E1E
:1045F0005C21016F81ECC3F00C0E01015B25006FA3
:10460000000E5C21016F81ECC3F0010120EE08F087
:104610005B51D9265C51DA225BC1DEFF5CC1DDFF54
:10462000030E5F6F000E606F58515F5F000E605B9E
:1046300020EE0CF05B51D9265C51DA225FC1DEFF1F
:1046400060C1DDFF20EE12F05B51D9265C51DA2209
:104650005BC1DEFF5CC1DDFF0A0E0001AF6133EF1D
:10466000A3F035EFA3F091EFA3F0D30E0101656F36
:10467000FF0E666F4FEFA3F0A8A241EFA3F043EF48
:10468000A3F03CEFA3F065C1F6FF66C1F7FF000E93
:10469000F86E0800F5CFA9FF0101654B662B65C1D7
:1046A000F6FF66C1F7FF000EF86E0800F55000092E
:1046B000D8A45DEFA3F05FEFA3F03CEFA3F0A8A2B6
:1046C00064EFA3F066EFA3F05FEFA3F06D0EF66E5C
:1046D000F80EF76E000EF86E0800F5CFA9FFA8A23D
:1046E00074EFA3F076EFA3F06FEFA3F06E0EF66E0B
:1046F000F80EF76E000EF86E0800F5CFA9FFA8A21D
:1047000084EFA3F086EFA3F07FEFA3F00D0EA96E68
:10471000A8A28DEFA3F08FEFA3F088EFA3F00A0E0D
:10472000A96E63C100F164C101F14DC102F14EC136
:1047300003F14FC104F156C105F157C106F1BCECBC
:10474000A3F05BC1D9FF5CC1DAFF010100C1DEFF4C
:1047500001C1DDFF59515A11D8B4B1EFA3F0B3EF45
:10476000A3F0BBEFA3F059C1D9FF5AC1DAFF5BC177
:10477000DEFF5CC1DDFF12000A0E0001AF61C3EF76
:10478000A3F0C5EFA3F021EFA4F0E20E0101076F43
:10479000FF0E086FDFEFA3F0A8A2D1EFA3F0D3EFD5
:1047A000A3F0CCEFA3F007C1F6FF08C1F7FF000E9E
:1047B000F86E0800F5CFA9FF0101074B082B07C1D0
:1047C000F6FF08C1F7FF000EF86E0800F55000096B
:1047D000D8A4EDEFA3F0EFEFA3F0CCEFA3F0A8A2E5
:1047E000F4EFA3F0F6EFA3F0EFEFA3F06D0EF66E8B
:1047F000F80EF76E000EF86E0800F5CFA9FFA8A21C
:1048000004EFA4F006EFA4F0FFEFA3F06E0EF66E37
:10481000F80EF76E000EF86E0800F5CFA9FFA8A2FB
:1048200014EFA4F016EFA4F00FEFA4F00D0EA96E94
:10483000A8A21DEFA4F01FEFA4F018EFA4F00A0E39
:10484000A96E00C1D9FF01C1DAFF110EDF6E0101AF
:10485000004B012B00C1D9FF01C1DAFF220EDF6E30
:10486000004B012B00C1D9FF01C1DAFF330EDF6E0F
:10487000004B012B05C10AF106C10BF10C6B0D6B4E
:1048800000C1D9FF01C1DAFF0AC1DFFF004B012BD4
:104890000BC10AF10CC10BF10DC10CF10D6B00C184
:1048A000D9FF01C1DAFF0AC1DFFF004B012B00C1B4
:1048B000D9FF01C1DAFF440EDF6E004B012B00C1AE
:1048C000D9FF01C1DAFF660EDF6E004B012B00C17C
:1048D000D9FF01C1DAFFCC0EDF6E004B012B00C106
:1048E000D9FF01C1DAFFC00EDF6E004B012B00C102
:1048F000D9FF01C1DAFF110EDF6E004B012B00C1A1
:10490000D9FF01C1DAFF220EDF6E004B012B00C17F
:10491000D9FF01C1DAFF330EDF6E004B012B00C15E
:10492000D9FF01C1DAFF440EDF6E004B012B00C13D
:10493000D9FF01C1DAFF550EDF6E004B012B00C11C
:10494000D9FF01C1DAFF660EDF6E004B012B00C1FB
:10495000D9FF01C1DAFFDF6A004B012B00C1D9FF8B
:1049600001C1DAFF880EDF6E004B012B00C1D9FFB9
:1049700001C1DAFF990EDF6E004B012B00C1D9FF98
:1049800001C1DAFFAA0EDF6E004B012B00C1D9FF77
:1049900001C1DAFFBB0EDF6E004B012B00C1D9FF56
:1049A00001C1DAFFDF6A004B012B00C1D9FF01C151
:1049B000DAFFDF6A004B012B000E096F00C1D9FF3F
:1049C00001C1DAFF09C1DFFF004B012B092B130ED8
:1049D0000965EDEFA4F0EFEFA4F0DEEFA4F000C165
:1049E000D9FF01C1DAFF130EDF6E004B012B00C1AE
:1049F000D9FF01C1DAFFDF6A004B012B02510A6FB8
:104A000003510B6F04510C6F0D6B00C1D9FF01C135
:104A1000DAFF0AC1DFFF004B012B0BC10AF10CC109
:104A20000BF10DC10CF10D6B00C1D9FF01C1DAFF13
:104A30000AC1DFFF004B012B0BC10AF10CC10BF1C6
:104A40000DC10CF10D6B00C1D9FF01C1DAFF0AC124
:104A5000DFFF004B012B00C1D9FF01C1DAFF010EBE
:104A6000DF6E004B012B00C100F101C101F112000A
:104A70000A0E0101476F020E486F47C14BF148C152
:104A80004CF147514811D8B448EFA5F04AEFA5F0D2
:104A9000A2EFA6F02E0E496F010E4A6F87EFA6F027
:104AA0002CC1F6FF2DC1F7FF000EF86E0800F5507F
:104AB000250AD8A45EEFA5F060EFA5F072EFA6F08E
:104AC0002C4B2D2B46EFA6F049C1D9FF4AC1DAFF86
:104AD000DF50466F020E4927000E4A234BC100F1FA
:104AE0004CC101F1465140ECC3F000C14BF101C192
:104AF0004CF184EFA6F049C1D9FF4AC1DAFFDECFFD
:104B000040F1DDCF41F1020E4927000E4A2340C19A
:104B100008F141C109F14BC10AF14CC10BF1EFECB5
:104B2000B7F008C14BF109C14CF184EFA6F049C1BF
:104B3000D9FF4AC1DAFFDECF3CF1DECF3DF1DECF57
:104B40003EF1DECF3FF1040E4927000E4A233CC15F
:104B500019F13DC11AF13EC11BF13FC11CF1000E1C
:104B60001E6F020E1D6F4BC11FF14CC120F14FECA7
:104B7000B2F019C14BF11AC14CF184EFA6F049C152
:104B8000D9FF4AC1DAFFDECF42F1DDCF43F1020E99
:104B90004927000E4A2342C103F143C104F14BC12E
:104BA00005F14CC106F17BECC1F003C14BF104C12E
:104BB0004CF184EFA6F049C1D9FF4AC1DAFFDECF3C
:104BC00044F1DDCF45F1020E4927000E4A2344C1CE
:104BD00000F145C101F1000E026F4BC103F14CC160
:104BE00004F1B2EC9EF000C14BF101C14CF184EF35
:104BF000A6F049C1D9FF4AC1DAFFDECF38F1DECFD6
:104C000039F1DECF3AF1DECF3BF1040E4927000E39
:104C10004A2338C100F139C101F13AC102F13BC167
:104C200003F14BC104F14CC105F187ECBAF000C1AE
:104C30004BF101C14CF184EFA6F0250E036F000E7D
:104C4000046F4BC105F14CC106F17BECC1F003C10F
:104C50004BF104C14CF12CC1F6FF2DC1F7FF000E42
:104C6000F86E0800F5500101366F376B36C103F15D
:104C700037C104F14BC105F14CC106F17BECC1F029
:104C800003C14BF104C14CF184EFA6F02CC1F6FF37
:104C90002DC1F7FF000EF86E0800F550366F376B28
:104CA0003751000AD8B457EFA6F01DEFA6F03651E1
:104CB000630AD8B464EFA5F0070AD8B47BEFA5F077
:104CC000020AD8B497EFA5F0160AD8B4F9EFA5F008
:104CD000030AD8B4BFEFA5F00B0AD8B4DBEFA5F0F8
:104CE0001DEFA6F04BC100F14CC101F12CC1F6FF44
:104CF0002DC1F7FF000EF86E0800F55040ECC3F030
:104D000000C14BF101C14CF101012C4B2D2B2CC1E9
:104D1000F6FF2DC1F7FF000EF86E0800F5500009F0
:104D2000D8A495EFA6F097EFA6F050EFA5F04BC1F1
:104D3000D9FF4CC1DAFFDF6A47C101F148C102F176
:104D4000E0ECBFF012000A0E426E020E436E42C04B
:104D500046F043C047F042504310D8B4B2EFA6F03B
:104D6000B4EFA6F00AEFA8F02F0E446E000E456EC9
:104D7000EFEFA7F02DC0F6FF2EC0F7FF000EF86E84
:104D80000800F550250AD8A4C8EFA6F0CAEFA6F08F
:104D9000DBEFA7F02D4A2E2AAFEFA7F044C0D9FFD2
:104DA00045C0DAFFDF50416E020E4426000E452258
:104DB00046C001F047C002F0415050ECC3F001C0C2
:104DC00046F002C047F0EDEFA7F044C0D9FF45C060
:104DD000DAFFDECF3BF0DDCF3CF0020E4426000EC2
:104DE00045223BC009F03CC00AF046C00BF047C06A
:104DF0000CF041ECB9F009C046F00AC047F0EDEF05
:104E0000A7F044C0D9FF45C0DAFFDECF37F0DECFD0
:104E100038F0DECF39F0DECF3AF0040E4426000E33
:104E2000452237C01AF038C01BF039C01CF03AC018
:104E30001DF0000E1F6E020E1E6E46C020F047C011
:104E400021F00BECB4F01AC046F01BC047F0EDEFB8
:104E5000A7F044C0D9FF45C0DAFFDECF3DF0DDCF7B
:104E60003EF0020E4426000E45223DC004F03EC036
:104E700005F046C006F047C007F0A5ECC1F004C03D
:104E800046F005C047F0EDEFA7F044C0D9FF45C09C
:104E9000DAFFDECF3FF0DDCF40F0020E4426000EF9
:104EA00045223FC001F040C002F0000E036E46C034
:104EB00004F047C005F066ECA0F001C046F002C067
:104EC00047F0EDEFA7F044C0D9FF45C0DAFFDECFD1
