:040000007BEF01F0A1
:100008005F82E9CF60F0EACF61F0E1CF62F0E2CF42
:1000180063F0D9CF64F0DACF65F0F3CF66F0F4CFB0
:1000280067F0F6CF68F0F7CF69F0F8CF6AF0F5CF50
:100038006BF09EA422EF00F024EF00F01FEF01F018
:10004800A8A229EF00F02BEF00F024EF00F00D0E2E
:10005800A96EA8A232EF00F034EF00F02DEF00F007
:100068000A0EA96EE8CFE4FFD8CFE4FFF2CFE8FF8D
:10007800E8CFE4FFF29EE0CFE4FFD9CFE4FFDACF88
:10008800E4FFE9CFE4FFEACFE4FFF5CFE4FFF8CFE0
:10009800E4FFF7CFE4FFF6CFE4FFF4CFE4FFF3CFBC
:1000A800E4FFFBCFE4FFFACFE4FFE96AEA6AEECFA8
:1000B800E4FFEECFE4FFEECFE4FFEECFE4FFEECFB8
:1000C800E4FFEECFE4FFEECFE4FFEECFE4FFEECFA8
:1000D800E4FFEECFE4FFEECFE4FFEECFE4FFEECF98
:1000E800E4FFEECFE4FFEECFE4FFEECFE4FFEECF88
:1000F800E4FFEECFE4FFEECFE4FFEFCFE4FFE9CF7C
:10010800E4FFEACFE4FFFCCFE9FF92EF00F0FDCF78
:10011800E4FFFECFE4FFFFCFE4FF0600FC50D8A4C5
:1001280098EF00F09AEF00F08BEF00F0E9CFE4FFD2
:10013800E45212C1E9FF13C1EAFFE1CFEEFFE2CFBB
:10014800EEFF9E9415EC87F00009D8B4AEEF00F0EE
:10015800B0EF00F0B2EF00F071ECABF012C1E9FFC4
:1001680013C1EAFFEECFE1FFEECFE2FFE5CFE9FFF3
:10017800E5CFE9FF000EFC6EC9EF00F00500E55081
:10018800FF6EE550FE6EE550FD6EE950FC5CD8A0B0
:10019800D0EF00F0D2EF00F0C2EF00F0E5CFEAFFB9
:1001A800E5CFE9FFE5CFEDFFE5CFEDFFE5CFEDFFCB
:1001B800E5CFEDFFE5CFEDFFE5CFEDFFE5CFEDFFB7
:1001C800E5CFEDFFE5CFEDFFE5CFEDFFE5CFEDFFA7
:1001D800E5CFEDFFE5CFEDFFE5CFEDFFE5CFEDFF97
:1001E800E5CFEDFFE5CFEDFFE5CFEDFFE5CFEDFF87
:1001F800E5CFEFFFE5CFFAFFE5CFFBFFE5CFF3FF54
:10020800E5CFF4FFE5CFF6FFE5CFF7FFE5CFF8FF41
:10021800E5CFF5FFE5CFEAFFE5CFE9FFE5CFDAFF68
:10022800E5CFD9FFE5CFE0FFE5CFE8FFE5CFD8FF81
:10023800E5CFE8FF1000F2A424EF01F026EF01F06B
:1002480061EF01F0F294FB0ED76E600ED66E0101DD
:10025800092B0A0E096533EF01F035EF01F061EF64
:1002680001F0000E096F074B082BE90E075D030E1E
:100278000859D8A042EF01F044EF01F061EF01F016
:10028800000E086F000E076F062B3C0E06654FEF39
:1002980001F051EF01F061EF01F0000E066F052B40
:1002A8003C0E05655AEF01F05CEF01F061EF01F0DB
:1002B800000E056F042B61EF01F06BC0F5FF6AC0FB
:1002C800F8FF69C0F7FF68C0F6FF67C0F4FF66C0B3
:1002D800F3FF65C0DAFF64C0D9FF63C0E2FF62C004
:1002E800E1FF61C0EAFF60C0E9FF5F92110055EFCE
:0202F800B3F061
:10F8460000303132333435363738396162636465B6
:10F85600660400024153534552543A25733A2564CF
:10F866000D0A536F757263652F4672656552544F64
:10F87600532F4D656D4D616E672F686561705F34FE
:10F886002E63004153534552543A25733A25640D6D
:10F896000A536F757263652F4672656552544F53EE
:10F8A6002F73747265616D5F6275666665722E632D
:10F8B600004153534552543A25733A25640D0A5371
:10F8C6006F757263652F4672656552544F532F6587
:10F8D60076656E745F67726F7570732E6300505233
:10F8E600494F52495459203D202564202D2D2D2D58
:10F8F6002D2D2D2D2D2D2D2D2D2D2D2D2D2D2D2D32
:10F906002D2D2D2D2D2D0D0A000D0A2D2D2D2D2DD4
:10F916002D2D2D2D2D2D2D2D2D2D2D2D2D2D2D2D11
:10F926002D2D2D2D2D2D2D2D2D2D2D2D2D2D2D2D01
:10F936000D0A00707276496E697469616C69736547
:10F946004E65775461736B203030312070784E6588
:10F95600775443423D25700D0A0041535345525496
:10F966003A25733A25640D0A536F757263652F46FF
:10F9760072656552544F532F71756575652E630018
:10F98600765461736B5374617274536368656475FE
:10F996006C657228303032297852657475726E3D06
:10F9A6002564200D0A00707276496E697469616C6F
:10F9B6006973654E65775461736B20303032207001
:10F9C60078537461636B3D25700D0A0041535345AE
:10F9D60052543A25733A25640D0A536F757263655E
:10F9E6002F4672656552544F532F7461736B732E95
:10F9F60063007072764164644E65775461736B542C
:10FA06006F52656164794C697374E3808030320D9E
:10FA16000A007072764164644E65775461736B5464
:10FA26006F52656164794C697374E3808030330D7D
:10FA36000A002A2A2A207078526561647954617313
:10FA46006B734C697374735B5D202A2A2A0D0A0056
:10FA56002A2A2A2A2A2A2A2A2A2A2A2A2A2A2A2A00
:10FA66002A2A2A2A2A2A2A2A2A2A2A0D0A007854DF
:10FA760061736B4372656174652030303120707834
:10FA86004E65775443423D25700D0A0078546173E4
:10FA96006B43726561746520303032207078537420
:10FAA60061636B3D25700D0A00765461736B537468
:10FAB6006172745363686564756C6572283030339F
:10FAC60029200D0A00765461736B53746172745366
:10FAD60063686564756C65722830303529200D0AB7
:10FAE60000765461736B5374617274536368656412
:10FAF600756C65722830303729200D0A00765461FE
:10FB0600736B53746172745363686564756C657264
:10FB16002830303829200D0A00765461736B5374EF
:10FB26006172745363686564756C65722830303928
:10FB360029200D0A00757843757272656E744E75CC
:10FB46006D6265724F665461736B733D25640D0A71
:10FB5600004E616D65095374617465095072696F71
:10FB660009537461636B094E756D0D0A0078506F09
:10FB7600727453746172745363686564756C6572EC
:10FB86002830303129200D0A0078506F7274537472
:10FB96006172745363686564756C657228303032BF
:10FBA60029200D0A00707276536574757054696D5C
:10FBB6006572496E746572727570742832290D0A01
:10FBC60000707276536574757054696D6572496E0E
:10FBD600746572727570742833290D0A00706F721D
:10FBE600745441534B5F46554E4354494F4E282952
:10FBF6002053544152540D0A00765461736B53746A
:10FC06006172745363686564756C6572283030314F
:10FC1600290D0A00765461736B53746172745363D1
:10FC2600686564756C657228303032290D0A00707B
:10FC36007276496E697469616C6973654E6577544D
:10FC460061736B203030320D0A00707276496E692E
:10FC56007469616C6973654E65775461736B2030A6
:10FC660030330D0A00707276536574757054696D81
:10FC76006572496E7465727275707428290D0A0072
:10FC8600784C697374456E642E70784E6578742866
:10FC96002564292025700D0A00696E7465676572F2
:10FCA6002E63202564205374617475733D25640D9D
:10FCB6000A0020202B2D2D20784974656D56616C25
:10FCC600756520203D25640D0A007078496E6465CF
:10FCD6007820202020202020202020203D25700D67
:10FCE6000A00784C697374456E6420202020202019
:10FCF600202020203D25700D0A0020202B2D2D20B0
:10FD060070784E6578742020202020203D25700DC7
:10FD16000A0020202B2D2D2070764F776E657220DD
:10FD2600202020203D25700D0A0020202B2D2D207F
:10FD3600707850726576696F757320203D25700D59
:10FD46000A0020202B2D2D207078436F6E74616978
:10FD56006E6572203D25700D0A006D61696E312E4B
:10FD660063202564205374617475733D25640D0A00
:10FD7600002070764F776E65722020202020E38069
:10FD8600803D2025700D0A002070785072657669D6
:10FD96006F75732020E380803D2025700D0A0020BA
:10FDA6007076436F6E7461696E657220E380803D84
:10FDB6002025700D0A002070784E6578742020206A
:10FDC6002020E38080203D2025700D0A0020784900
:10FDD60074656D56616C75652020E380803D202535
:10FDE600780D0A00706F6C6C512E632025642053C9
:10FDF60074617475733D25640D0A00207578507220
:10FE0600696F72697479202020203D2025640D0ACF
:10FE1600002070784E657874202020202020202035
:10FE26003D2025700D0A0070784E657754434220B8
:10FE36002020202020203D2025700D0A00207078EB
:10FE4600537461636B202020202020203D202570E4
:10FE56000D0A002070764F776E65722020202020D4
:10FE660020203D2025700D0A00207078507265769E
:10FE7600696F7573202020203D2025700D0A002013
:10FE86007076436F6E7461696E65722020203D2026
:10FE960025700D0A00207078456E644F66537461B4
:10FEA600636B20203D2025700D0A00207078546F6A
:10FEB600704F66537461636B20203D2025700D0AD8
:10FEC600007853746174654C6973744974656D2068
:10FED6003D2025700D0A00784576656E744C697371
:10FEE600744974656D203D2025700D0A00706354B9
:10FEF60061736B4E616D6520202020203D202573A7
:10FF06000D0A0020784974656D56616C7565202070
:10FF160020203D2025780D0A002A2A2A2055415204
:10FF260054205354415254202A2A2A0D0A002A2AC0
:10FF36002A20207461736B496E666F20202A2A2A54
:10FF46000D0A00494E54434F4E3D25782C52434FDF
:10FF56004E3D25780D0A007461736B3030312829C7
:10FF66002053544152540D0A007461736B30303281
:10FF760028292053544152540D0A00785461736B5A
:10FF8600437265617465203030330D0A0074617305
:10FF96006B3030312829204C6F6F700D0A00746168
:10FFA600736B3030322829204C6F6F700D0A005465
:10FFB60041534B204E554D203D2025640D0A000926
:10FFC60025630925640925640925640D0A00434350
:10FFD6005052343D25782C25780D0A0049444C456D
:10FFE6000055303100553032004D3032005130333B
:09FFF600005130340025730000B5
:020000040001F9
:1000000000016F51800B786F6F516F257A6F6EAF63
:100010000CEF80F00EEF80F00FEF80F07A817A51D4
:10002000D8B415EF80F017EF80F02CEF80F07A292C
:10003000D8A41DEF80F01FEF80F027EF80F0000EB6
:100040006C6F000E6D6F000E6E6F000E6F6F6E8F17
:10005000000E6F6F34EF80F0000E6C6F000E6D6F4E
:10006000000E6E6F000E6F6F7351800B796F7851B9
:100070007919D8B43EEF80F040EF80F041EF80F086
:10008000788D73517325796F72AF49EF80F04BEF24
:1000900080F04CEF80F079817951D8B452EF80F044
:1000A00054EF80F069EF80F07929D8A45AEF80F0FE
:1000B0005CEF80F064EF80F0000E706F000E716FE7
:1000C000000E726F000E736F728F000E736F71EF00
:1000D00080F0000E706F000E716F000E726F000ED8
:1000E000736F7A51795DD8B078EF80F07AEF80F055
:1000F000A1EF80F078AD7FEF80F081EF80F083EFAB
:1001000080F0800E781B7AC07BF079C07AF07BC0DB
:1001100079F06CC07BF070C06CF07BC070F06DC08B
:100120007BF071C06DF07BC071F06EC07BF072C06F
:100130006EF07BC072F06FC07BF073C06FF07BC05D
:1001400073F0000E7B6F7A5179C074F0756B745F39
:10015000000E755B75BFB6EF80F0755109E11A0EA0
:10016000745DD8A0B6EF80F0B8EF80F0EFEF80F0CC
:100170006C516D116E116F11D8A4C1EF80F0C4EFF6
:1001800080F0010EC5EF80F0000E7B6F000E6C6FEB
:10019000000E6D6F000E6E6F000E6F6F79C07AF0FB
:1001A000F8EF80F07BA1D7EF80F0D9EF80F0DFEFA0
:1001B00080F0D8907B3101097B6FE1EF80F0D8901F
:1001C0007B336CA1E6EF80F0E8EF80F0E9EF80F0A0
:1001D0007B8F6F356F336E336D336C337A2B795180
:1001E0007A5DD8A0F6EF80F0F8EF80F0D2EF80F0E3
:1001F00078BDFDEF80F0FFEF80F03FEF81F07A51A6
:10020000D8A405EF81F007EF81F011EF81F0000E27
:100210006C6F000E6D6F000E6E6F000E6F6F60EFF3
:1002200082F070516C2771516D2372516E2373519E
:100230006F236FA11EEF81F020EF81F0CCEF81F0F2
:100240007BA125EF81F027EF81F02DEF81F0D89091
:100250007B3101097B6F2FEF81F0D8907B336CA14C
:1002600034EF81F036EF81F037EF81F07B8F6F351F
:100270006F336E336D336C337A2BCCEF81F070516A
:100280006C5D71516D5972516E596F51800A746F66
:100290007351800A7459D8B050EF81F052EF81F059
:1002A0007DEF81F06C51705D746F6D517159756F98
:1002B0006E517259766F6F517359776FFF0E7425B7
:1002C0006C6FFF0E75216D6FFF0E76216E6FFF0E46
:1002D00077216F6F800E781B7B6D7B51D8A473EFF5
:1002E00081F075EF81F085EF81F0010E6C27000E33
:1002F0006D236E236F2385EF81F070516C5F715118
:100300006D5B72516E5B73516F5B6C516D116E1151
:100310006F11D8A48EEF81F090EF81F0C5EF81F0DE
:100320007B51D8A496EF81F098EF81F0C5EF81F072
:10033000000E6C6F000E6D6F000E6E6F000E6F6F13
:1003400060EF82F0D8906C376D376E376F377BAFC8
:10035000ACEF81F0AEEF81F0AFEF81F06C817BA16B
:10036000B4EF81F0B6EF81F0BAEF81F0D8807B373F
:10037000BCEF81F0D8907B377A51D8B4C2EF81F0CE
:10038000C4EF81F0C5EF81F07A076EAFCAEF81F05C
:10039000CCEF81F0A2EF81F0000E796F7BAFD3EF4D
:1003A00081F0D5EF81F0EDEF81F07BC074F07F0E2E
:1003B0007417D8B4DEEF81F0E0EF81F0E4EF81F064
:1003C000010E796FEDEF81F06CA1E9EF81F0EBEFB9
:1003D00081F0EDEF81F0E0EF81F07951D8B4F3EFE7
:1003E00081F0F5EF81F020EF82F0010E6C27000E16
:1003F0006D236E236F236FA100EF82F002EF82F076
:1004000020EF82F06CC074F06DC075F06EC076F0B5
:100410006FC077F07735773376337533743374C0C4
:100420006CF075C06DF076C06EF077C06FF07A2911
:10043000D8B41DEF82F01FEF82F020EF82F07A2B0C
:100440007A29D8B426EF82F028EF82F030EF82F0DC
:100450007A51D8A42EEF82F030EF82F042EF82F092
:10046000000E6C6F000E6D6F000E6E6F000E6F6FE2
:100470007A51D8A43EEF82F040EF82F042EF82F052
:10048000000E786F7AA147EF82F049EF82F04CEFCF
:1004900082F06E8F4DEF82F06E9FD8907A316F6F41
:1004A00078AF55EF82F057EF82F058EF82F06F8F00
:1004B0006CC06CF06DC06DF06EC06EF06FC06FF010
:1004C00012000450800B0D6E045004240F6E03AE16
:1004D0006CEF82F06EEF82F06FEF82F00F800F50C2
:1004E000D8B475EF82F077EF82F08CEF82F00F28AE
:1004F000D8A47DEF82F07FEF82F087EF82F0000ECC
:10050000016E000E026E000E036E000E046E038E6E
:10051000000E046E94EF82F0000E016E000E026E6B
:10052000000E036E000E046E0850800B0E6E0D5010
:100530000E18D8B49EEF82F0A0EF82F0A1EF82F007
:100540000D8C085008240E6E07AEA9EF82F0ABEFB9
:1005500082F0ACEF82F00E800E50D8B4B2EF82F091
:10056000B4EF82F0C9EF82F00E28D8A4BAEF82F07F
:10057000BCEF82F0C4EF82F0000E056E000E066E36
:10058000000E076E000E086E078E000E086ED1EF8B
:1005900082F0000E056E000E066E000E076E000E55
:1005A000086E0F500E5CD8B0D8EF82F0DAEF82F010
:1005B00001EF83F00DACDFEF82F0E1EF82F0E3EFCB
:1005C00082F0800E0D1A0FC010F00EC00FF010C098
:1005D0000EF001C010F005C001F010C005F002C01F
:1005E00010F006C002F010C006F003C010F007C003
:1005F00003F010C007F004C010F008C004F010C0F1
:1006000008F0000E106E0F500EC009F00A6A095E65
:10061000000E0A5A0ABE16EF83F00A5009E11A0EBC
:10062000095CD8A016EF83F018EF83F04FEF83F04A
:100630000150021003100410D8A421EF83F024EF1E
:1006400083F0010E25EF83F0000E106E000E016E98
:10065000000E026E000E036E000E046E0EC00FF050
:1006600058EF83F010A037EF83F039EF83F03FEFBE
:1006700083F0D89010300109106E41EF83F0D890CC
:10068000103201A046EF83F048EF83F049EF83F08A
:10069000108E043404320332023201320F2A0E501B
:1006A0000F5CD8A056EF83F058EF83F032EF83F061
:1006B0000DBC5DEF83F05FEF83F09FEF83F00F5091
:1006C000D8A465EF83F067EF83F071EF83F0000E3D
:1006D000016E000E026E000E036E000E046EC0EF7F
:1006E00084F00550012606500222075003220850CC
:1006F000042204A07EEF83F080EF83F02CEF84F0DF
:1007000010A085EF83F087EF83F08DEF83F0D89012
:1007100010300109106E8FEF83F0D890103201A0D5
:1007200094EF83F096EF83F097EF83F0108E04340C
:1007300004320332023201320F2A2CEF84F00550CA
:10074000015C06500258075003580450800A096E95
:100750000850800A0958D8B0B0EF83F0B2EF83F0A8
:10076000DDEF83F00150055C096E025006580A6EF9
:10077000035007580B6E045008580C6EFF0E0924E6
:10078000016EFF0E0A20026EFF0E0B20036EFF0E9D
:100790000C20046E800E0D1A106C1050D8A4D3EFEC
:1007A00083F0D5EF83F0E5EF83F0010E0126000E14
:1007B000022203220422E5EF83F00550015E065079
:1007C000025A0750035A0850045A015002100310ED
:1007D0000410D8A4EEEF83F0F0EF83F025EF84F05F
:1007E0001050D8A4F6EF83F0F8EF83F025EF84F0F3
:1007F000000E016E000E026E000E036E000E046EFF
:10080000C0EF84F0D890013602360336043610AEBD
:100810000CEF84F00EEF84F00FEF84F0018010A055
:1008200014EF84F016EF84F01AEF84F0D8801036BD
:100830001CEF84F0D89010360F50D8B422EF84F01B
:1008400024EF84F025EF84F00F0603AE2AEF84F046
:100850002CEF84F002EF84F0000E0E6E10AE33EF3A
:1008600084F035EF84F04DEF84F010C009F07F0E76
:100870000916D8B43EEF84F040EF84F044EF84F0E2
:10088000010E0E6E4DEF84F001A049EF84F04BEFA6
:1008900084F04DEF84F040EF84F00E50D8B453EF65
:1008A00084F055EF84F080EF84F0010E0126000EF5
:1008B00002220322042204A060EF84F062EF84F09D
:1008C00080EF84F001C009F002C00AF003C00BF011
:1008D00004C00CF00C340C320B320A32093209C05D
:1008E00001F00AC002F00BC003F00CC004F00F28A6
:1008F000D8B47DEF84F07FEF84F080EF84F00F2A8E
:100900000F28D8B486EF84F088EF84F090EF84F05D
:100910000F50D8A48EEF84F090EF84F0A2EF84F013
:10092000000E016E000E026E000E036E000E046ECD
:100930000F50D8A49EEF84F0A0EF84F0A2EF84F0D3
:10094000000E0D6E0FA0A7EF84F0A9EF84F0ACEFBE
:1009500084F0038EADEF84F0039ED8900F30046EC8
:100960000DAEB5EF84F0B7EF84F0B8EF84F0048EED
:1009700001C001F002C002F003C003F004C004F0A3
:100980001200000E0001C16FF051D8A4CAEF84F02C
:10099000CCEF84F00FEF87F0010EE825C66F000E54
:1009A000E921C76FC6C0E8F0C7C0E9F0C651C7115A
:1009B000D8A4DDEF84F0DFEF84F005EF85F0ECC024
:1009C000D9FFEDC0DAFFDF50D8B4E9EF84F0EBEFE8
:1009D00084F0F5EF84F0D20E986FF90E996F0B0E3C
:1009E0009B6F6D0E9A6F0CEC95F0ECC0BDF0EDC0F6
:1009F000BEF0EAC0ECF0EBC0EDF0BDC0EAF0BEC066
:100A0000EBF00001F12B7AECB3F05B500001C65D16
:100A10005C50C759D8A00FEF85F011EF85F0E7EFD4
:100A200086F0ECC0D9FFEDC0DAFFDF50D8A41BEF91
:100A300085F01DEF85F021EF85F05B685C68E7EFDE
:100A400086F0000120EE05F0EC51D926ED51DA22B6
:100A500010EE06F0DE50E126DD50E222E6CFCAF0CD
:100A6000E5CFCBF020EE02F0CA51D926CB51DA22E5
:100A7000DECFBFF0DDCFC0F0BF51C65DC051C7595A
:100A8000D8B045EF85F047EF85F04DEF85F0BFC05A
:100A90005BF0C0C05CF0E7EF86F020EE0AF0CA51D0
:100AA000D926CB51DA22DECFC2F0DDCFC3F020EE63
:100AB00006F0CA51D926CB51DA2210EE04F0CA5101
:100AC000E126CB51E22200EE04F0E650E926E550A3
:100AD000EA22DECFEEFFDDCFEDFF20EE04F0CA51BB
:100AE000D926CB51DA2210EE06F0CA51E126CB51BD
:100AF000E22200EE02F0E650E926E550EA22DECFDF
:100B0000EEFFDDCFEDFF020ECA25B96F000ECB213F
:100B1000BA6F20EE01F0C251D926C351DA22B95181
:100B2000DE1807E1BA51DE18D8A499EF85F09BEFE3
:100B300085F0ABEF85F020EE06F0CA51D926CB51F7
:100B4000DA2210EE01F0C251E126C351E222DECFDB
:100B5000E6FFDDCFE5FF20EE0AF0CA51D926CB51E2
:100B6000DA22DE6ADD6AC2C0D9FFC3C0DAFFDF065F
:100B700020EE14F0CA51D926CB51DA22DE50DE1015
:100B8000D8B4C5EF85F0C7EF85F032EF86F020EEE0
:100B900014F0CA51D926CB51DA22DECFC4F0DDCF12
:100BA000C5F020EE10F0CA51D926CB51DA2210EE52
:100BB0000EF0CA51E126CB51E22200EE04F0E650DD
:100BC000E926E550EA22DECFEEFFDDCFEDFF20EE95
:100BD0000EF0CA51D926CB51DA2210EE10F0CA51CC
:100BE000E126CB51E22200EE02F0E650E926E55084
:100BF000EA22DECFEEFFDDCFEDFF0C0ECA25B96F86
:100C0000000ECB21BA6F20EE01F0C451D926C55198
:100C1000DA22B951DE1807E1BA51DE18D8A413EF71
:100C200086F015EF86F025EF86F020EE10F0CA5121
:100C3000D926CB51DA2210EE01F0C451E126C5517C
:100C4000E222DECFE6FFDDCFE5FF20EE14F0CA5151
:100C5000D926CB51DA22DE6ADD6AC4C0D9FFC5C00D
:100C6000DAFFDF0620EE16F0CA51D926CB51DA2280
:100C7000DE500101225DD8B040EF86F042EF86F0F1
:100C80004CEF86F0000120EE16F0CA51D926CB5168
:100C9000DA22DF500101226F000120EE16F0CA5166
:100CA000D926CB51DA22DF50B96FB951090D260E82
:100CB000F324D96E010EF420DA6EDECFC8F0DDCF5A
:100CC000C9F020EE04F0CA51D926CB51DA22C8C0AF
:100CD000DEFFC9C0DDFF20EE04F0C851D926C9519E
:100CE000DA2210EE06F0CA51E126CB51E222DECF25
:100CF000E6FFDDCFE5FF020ECA25B96F000ECB215E
:100D0000BA6F20EE04F0C851D926C951DA2210EE8C
:100D100002F0DE50E126DD50E222B9C0E6FFBAC0A3
:100D2000E5FF020ECA25B96F000ECB21BA6F20EE87
:100D300004F0C851D926C951DA22B9C0DEFFBAC0C1
:100D4000DDFF20EE16F0CA51D926CB51DA22DF5052
:100D5000B96FB951090D250EF324BA6F010EF420B5
:100D6000BB6F20EE0AF0CA51D926CB51DA22BAC0A5
:100D7000DEFFBBC0DDFF20EE16F0CA51D926CB51F5
:100D8000DA22DF50B96FB951090D250EF324D96E5F
:100D9000010EF420DA6EDF2A20EE16F0CA51D926B1
:100DA000CB51DA22010110EE16F01251E126135157
:100DB000E222DE50E65CD8B0E0EF86F0E2EF86F0AB
:100DC00011EF85F0010E0001C16F11EF85F00101F7
:100DD00020EE16F01251D9261351DA22DF5000010D
:100DE000B96FB951090D250EF324D96E010EF42007
:100DF000DA6E010EDF64FFEF86F001EF87F003EF9C
:100E000087F0010EC16FF251D8B409EF87F00BEFF4
:100E100087F012EF87F0010EC16F12EF87F001012A
:100E2000104B112B0001C1511200000E506E000139
:100E3000F051D8A41EEF87F020EF87F05DEF89F026
:100E4000010EE825556E000EE921566E55C0E8F0FA
:100E500056C0E9F055505610D8A431EF87F033EF63
:100E600087F059EF87F0ECC0D9FFEDC0DAFFDF5013
:100E7000D8B43DEF87F03FEF87F049EF87F0D20E0F
:100E80002D6EF90E2E6E0B0E306E6D0E2F6E8DECDC
:100E900096F0ECC04CF0EDC04DF0EAC0ECF0EBC0C9
:100EA000EDF04CC0EAF04DC0EBF00001F12BC2ECCC
:100EB000B3F05B50555C5C505658D8A062EF87F099
:100EC00064EF87F035EF89F0ECC0D9FFEDC0DAFFB1
:100ED000DF50D8A46EEF87F070EF87F074EF87F0E3
:100EE0005B685C6835EF89F0000120EE05F0EC519D
:100EF000D926ED51DA2210EE06F0DE50E126DD5063
:100F0000E222E6CF59F0E5CF5AF020EE02F0595038
:100F1000D9265A50DA22DECF4EF0DDCF4FF04E50B8
:100F2000555C4F505658D8B098EF87F09AEF87F03D
:100F3000A0EF87F04EC05BF04FC05CF035EF89F05A
:100F400020EE0AF05950D9265A50DA22DECF51F05D
:100F5000DDCF52F020EE06F05950D9265A50DA2251
:100F600010EE04F05950E1265A50E22200EE04F04F
:100F7000E650E926E550EA22DECFEEFFDDCFEDFFB9
:100F800020EE04F05950D9265A50DA2210EE06F01D
:100F90005950E1265A50E22200EE02F0E650E926CE
:100FA000E550EA22DECFEEFFDDCFEDFF020E592441
:100FB000486E000E5A20496E20EE01F05150D9269D
:100FC0005250DA224850DE1807E14950DE18D8A402
:100FD000ECEF87F0EEEF87F0FEEF87F020EE06F003
:100FE0005950D9265A50DA2210EE01F05150E1261C
:100FF0005250E222DECFE6FFDDCFE5FF20EE0AF021
:101000005950D9265A50DA22DE6ADD6A51C0D9FF1A
:1010100052C0DAFFDF0620EE14F05950D9265A509C
:10102000DA22DE50DE10D8B418EF88F01AEF88F01C
:1010300085EF88F020EE14F05950D9265A50DA2264
:10104000DECF53F0DDCF54F020EE10F05950D9260A
:101050005A50DA2210EE0EF05950E1265A50E22290
:1010600000EE04F0E650E926E550EA22DECFEEFF7E
:10107000DDCFEDFF20EE0EF05950D9265A50DA227E
:1010800010EE10F05950E1265A50E22200EE02F024
:10109000E650E926E550EA22DECFEEFFDDCFEDFF98
:1010A0000C0E5924486E000E5A20496E20EE01F0B5
:1010B0005350D9265450DA224850DE1807E14950DF
:1010C000DE18D8A466EF88F068EF88F078EF88F033
:1010D00020EE10F05950D9265A50DA2210EE01F0C5
:1010E0005350E1265450E222DECFE6FFDDCFE5FF8C
:1010F00020EE14F05950D9265A50DA22DE6ADD6A01
:1011000053C0D9FF54C0DAFFDF0620EE16F0595065
:10111000D9265A50DA22DE500101225DD8B093EF71
:1011200088F095EF88F09DEF88F020EE16F059508A
:10113000D9265A50DA22DF50226F20EE16F059508D
:10114000D9265A50DA22DF50486E4850090D260E33
:10115000F324D96E010EF420DA6EDECF57F0DDCF26
:1011600058F020EE04F05950D9265A50DA2257C0D0
:10117000DEFF58C0DDFF20EE04F05750D92658504E
:10118000DA2210EE06F05950E1265A50E222DECF64
:10119000E6FFDDCFE5FF020E5924486E000E5A200F
:1011A000496E20EE04F05750D9265850DA2210EE3E
:1011B00002F0DE50E126DD50E22248C0E6FF49C0E1
:1011C000E5FF020E5924486E000E5A20496E20EEAB
:1011D00004F05750D9265850DA2248C0DEFF49C0E3
:1011E000DDFF20EE16F05950D9265A50DA22DF5092
:1011F000486E4850090D250EF324496E010EF42067
:101200004A6E20EE0AF05950D9265A50DA2249C0C7
:10121000DEFF4AC0DDFF20EE16F05950D9265A50A5
:10122000DA22DF50486E4850090D250EF324D96E9E
:10123000010EF420DA6EDF2A20EE16F05950D9267E
:101240005A50DA2210EE16F01251E1261351E22222
:10125000DE50E65CD8B02FEF89F031EF89F064EF13
:1012600087F0010E506E64EF87F0010120EE16F05A
:101270001251D9261351DA22DF50486E4850090D19
:10128000250EF324D96E010EF420DA6E010EDF6410
:101290004CEF89F04EEF89F050EF89F0010E506E5F
:1012A0000001F251D8B457EF89F059EF89F060EF9F
:1012B00089F0010E506E60EF89F00101104B112B87
:1012C00050501200000E0001D96F000EDA6F000EB0
:1012D000D06FF051D8A46FEF89F071EF89F07BEFF8
:1012E00089F0D20E986FF90E996F090E9B6F3D0E23
:1012F0009A6F0CEC95F0F2CFE6FFF29E0001F0073A
:10130000F051D8A486EF89F088EF89F076EF8BF062
:1013100001012351D8B48FEF89F091EF89F076EF76
:101320008BF027EF8BF020EE06F05751D92658515D
:10133000DA22DECFD9F0DDCFDAF0000120EE14F0B2
:10134000D951D926DA51DA22DECFD3F0DDCFD4F06D
:1013500020EE10F0D951D926DA51DA2210EE0EF033
:10136000D951E126DA51E22200EE04F0E650E926F6
:10137000E550EA22DECFEEFFDDCFEDFF20EE0EF0EE
:10138000D951D926DA51DA2210EE10F0D951E126DE
:10139000DA51E22200EE02F0E650E926E550EA22B8
:1013A000DECFEEFFDDCFEDFF0C0ED925CC6F000EAA
:1013B000DA21CD6F20EE01F0D351D926D451DA22B3
:1013C000CC51DE1807E1CD51DE18D8A4EAEF89F040
:1013D000ECEF89F0FCEF89F020EE10F0D951D9261E
:1013E000DA51DA2210EE01F0D351E126D451E22293
:1013F000DECFE6FFDDCFE5FF20EE14F0D951D92690
:10140000DA51DA22DE6ADD6AD3C0D9FFD4C0DAFF4E
:10141000DF0620EE0AF0D951D926DA51DA22DECFE2
:10142000D5F0DDCFD6F020EE06F0D951D926DA512D
:10143000DA2210EE04F0D951E126DA51E22200EE70
:1014400004F0E650E926E550EA22DECFEEFFDDCFDC
:10145000EDFF20EE04F0D951D926DA51DA2210EE50
:1014600006F0D951E126DA51E22200EE02F0E65010
:10147000E926E550EA22DECFEEFFDDCFEDFF020EDA
:10148000D925CC6F000EDA21CD6F20EE01F0D551B9
:10149000D926D651DA22CC51DE1807E1CD51DE181B
:1014A000D8A455EF8AF057EF8AF067EF8AF020EE64
:1014B00006F0D951D926DA51DA2210EE01F0D551D1
:1014C000E126D651E222DECFE6FFDDCFE5FF20EEBA
:1014D0000AF0D951D926DA51DA22DE6ADD6AD5C09E
:1014E000D9FFD6C0DAFFDF0620EE16F0D951D92693
:1014F000DA51DA22DE500101225DD8B082EF8AF0A3
:1015000084EF8AF08EEF8AF0000120EE16F0D951B8
:10151000D926DA51DA22DF500101226F000120EED4
:1015200016F0D951D926DA51DA22DF50CC6FCC51DE
:10153000090D260EF324D96E010EF420DA6EDECFEB
:10154000D7F0DDCFD8F020EE04F0D951D926DA510A
:10155000DA22D7C0DEFFD8C0DDFF20EE04F0D7517D
:10156000D926D851DA2210EE06F0D951E126DA5107
:10157000E222DECFE6FFDDCFE5FF020ED925CC6FFC
:10158000000EDA21CD6F20EE04F0D751D926D851C4
:10159000DA2210EE02F0DE50E126DD50E222CCC06D
:1015A000E6FFCDC0E5FF020ED925CC6F000EDA2193
:1015B000CD6F20EE04F0D751D926D851DA22CCC015
:1015C000DEFFCDC0DDFF20EE16F0D951D926DA516D
:1015D000DA22DF50CC6FCC51090D250EF324CD6FEC
:1015E000010EF420CE6F20EE0AF0D951D926DA513F
:1015F000DA22CDC0DEFFCEC0DDFF20EE16F0D951DD
:10160000D926DA51DA22DF50CC6FCC51090D250EE4
:10161000F324D96E010EF420DA6EDF2A010120EEE8
:1016200016F01251D9261351DA22000110EE16F0ED
:10163000D951E126DA51E222DE50E65CD8A023EF50
:101640008BF025EF8BF027EF8BF0010EF26F01018D
:101650005251D8A42EEF8BF030EF8BF093EF89F03E
:101660000001D951DA11D8B438EF8BF03AEF8BF092
:101670003CEF8BF07AECB3F010C1D1F011C1D2F095
:101680000001D151D211D8B448EF8BF04AEF8BF062
:1016900069EF8BF0C1EC84F00009D8B452EF8BF005
:1016A00054EF8BF057EF8BF0010E0001F26F000149
:1016B000D107D8A0D207D151D211D8A462EF8BF0B4
:1016C00064EF8BF04AEF8BF0000E0101116F000EFA
:1016D000106F0001F251D8B470EF8BF072EF8BF005
:1016E00076EF8BF0010ED06F9DECACF0E552E7AEDB
:1016F0007CEF8BF07EEF8BF07FEF8BF0F28E0001B2
:10170000D051120000016F51800B786F6F516F251F
:101710007E6F6EAF8EEF8BF090EF8BF091EF8BF0D2
:101720007E817E51D8B497EF8BF099EF8BF0ACEFC0
:101730008BF07E29D8A49FEF8BF0A1EF8BF0A9EF5F
:101740008BF0000E6C6F000E6D6F000E6E6F000E52
:101750006F6F6E8FB4EF8BF0000E6C6F000E6D6FBD
:10176000000E6E6F000E6F6F7351800B781B7351FC
:1017700073257D6F72AFBFEF8BF0C1EF8BF0C2EFBF
:101780008BF07D817D51D8B4C8EF8BF0CAEF8BF020
:10179000DDEF8BF07D29D8A4D0EF8BF0D2EF8BF06A
:1017A000DAEF8BF0000E706F000E716F000E726F2B
:1017B000000E736F728FE5EF8BF0000E706F000EEE
:1017C000716F000E726F000E736F7D51D8B4EBEF26
:1017D0008BF0EDEF8BF0F5EF8BF07E51D8A4F3EFAB
:1017E0008BF0F5EF8BF0FFEF8BF0000E6C6F000EBF
:1017F0006D6F000E6E6F000E6F6F97EF8DF0725170
:101800006C03F3CF83F0F4CF84F08351796F7A6B5C
:101810007B6B7C6B84517F6F806B816B826B7151B2
:101820006D03F3CF83F0F4CF84F083517927000E5A
:101830007A237B237C2384517F27000E80238123FE
:10184000822370516E03F3CF83F0F4CF84F0835181
:101850007927000E7A237B237C2384517F27000E77
:101860008023812382237BC07CF07AC07BF079C007
:101870007AF0796B70516D03F3CF83F0F4CF84F07D
:101880008351792784517A23000E7B23000E7C2319
:1018900071516C03F3CF83F0F4CF84F08351792737
:1018A00084517A23000E7B23000E7C237BC07CF0C6
:1018B0007AC07BF079C07AF0796B70516C03F3CF0A
:1018C00083F0F4CF84F08351792784517A23000E7A
:1018D0007B23000E7C2372516D03F3CF83F0F4CF92
:1018E00084F083517F2784518023000E8123000ED2
:1018F000822371516E03F3CF83F0F4CF84F08351D0
:101900007F2784518023000E8123000E8223725191
:101910006E03F3CF83F0F4CF84F08351746F84515E
:10192000756F766B776B76C077F075C076F074C0A4
:1019300075F0746B74517F27755180237651812324
:101940007751822379C074F07AC075F07BC076F04D
:101950007CC077F0190EB2EF8CF0D89077337633E5
:1019600075337433E82EADEF8CF074517F277551C9
:10197000802376518123775182237BC07CF07AC00B
:101980007BF079C07AF0796B7D517EC074F0756B15
:101990007427000E7523820E7425836FFF0E752148
:1019A000846FE8EF8CF0D8907F37803781378237AB
:1019B0007CAFDDEF8CF0DFEF8CF0E0EF8CF07F811F
:1019C000D89079377A377B377C378307D8A084075C
:1019D00081AFEDEF8CF0EFEF8CF0D3EF8CF0000ED9
:1019E0007D6F7CAFF6EF8CF0F8EF8CF01CEF8DF094
:1019F000FF0E7915746FFF0E7A15756FFF0E7B154C
:101A0000766F7F0E7C15776F745175117611771193
:101A1000D8B40DEF8DF00FEF8DF013EF8DF0010EB8
:101A20007D6F1CEF8DF07FA118EF8DF01AEF8DF018
:101A30001CEF8DF00FEF8DF07D51D8B422EF8DF0BB
:101A400024EF8DF048EF8DF0010E7F27000E8023EC
:101A50008123822382A12FEF8DF031EF8DF048EFAB
:101A60008DF07FC074F080C075F081C076F082C0C8
:101A700077F07735773376337533743374C07FF00E
:101A800075C080F076C081F077C082F0834B842BE4
:101A900084BF53EF8DF0845108E18329D8A053EF20
:101AA0008DF055EF8DF05FEF8DF0000E7F6F000E23
:101AB000806F800E816F7F0E826F8DEF8DF084BFFF
:101AC0006CEF8DF0845106E18305D8B06AEF8DF09C
:101AD0006CEF8DF078EF8DF0000E7F6F000E806F51
:101AE000000E816F000E826F000E786F8DEF8DF00B
:101AF00083C07EF0FF0E7F17FF0E80177F0E8117C9
:101B0000000E82177EA187EF8DF089EF8DF08AEFAE
:101B10008DF0818FD8907E31826F785182137FC093
:101B20006CF080C06DF081C06EF082C06FF012006A
:101B30000450800B0D6E04500424136E03AEA3EF0B
:101B40008DF0A5EF8DF0A6EF8DF013801350D8B473
:101B5000ACEF8DF0AEEF8DF0C1EF8DF01328D8A46F
:101B6000B4EF8DF0B6EF8DF0BEEF8DF0000E016E8C
:101B7000000E026E000E036E000E046E038EC9EF9F
:101B80008DF0000E016E000E026E000E036E000E50
:101B9000046E0850800B0D1A08500824126E07AE10
:101BA000D4EF8DF0D6EF8DF0D7EF8DF0128012507C
:101BB000D8B4DDEF8DF0DFEF8DF0F2EF8DF012286D
:101BC000D8A4E5EF8DF0E7EF8DF0EFEF8DF0000E8C
:101BD000056E000E066E000E076E000E086E078E74
:101BE000FAEF8DF0000E056E000E066E000E076E09
:101BF000000E086E1250D8B400EF8EF002EF8EF097
:101C00000AEF8EF01350D8A408EF8EF00AEF8EF092
:101C100014EF8EF0000E016E000E026E000E036EC9
:101C2000000E046EACEF8FF007500102F3CF18F0F6
:101C3000F4CF19F018500E6E0F6A106A116A19501D
:101C4000146E156A166A176A06500202F3CF18F06E
:101C5000F4CF19F018500E26000E0F221022112278
:101C600019501426000E15221622172205500302C1
:101C7000F3CF18F0F4CF19F018500E26000E0F22F3
:101C80001022112219501426000E15221622172296
:101C900010C011F00FC010F00EC00FF00E6A05500A
:101CA0000202F3CF18F0F4CF19F018500E26195095
:101CB0000F22000E1022000E112206500102F3CF57
:101CC00018F0F4CF19F018500E2619500F22000EFC
:101CD0001022000E112210C011F00FC010F00EC023
:101CE0000FF00E6A05500102F3CF18F0F4CF19F08F
:101CF00018500E2619500F22000E1022000E11222D
:101D000007500202F3CF18F0F4CF19F01850142640
:101D100019501522000E1622000E1722065003023B
:101D2000F3CF18F0F4CF19F01850142619501522DB
:101D3000000E1622000E172207500302F3CF18F0F0
:101D4000F4CF19F01850096E19500A6E0B6A0C6A1C
:101D50000BC00CF00AC00BF009C00AF0096A095068
:101D600014260A5015220B5016220C5017220EC0B2
:101D700009F00FC00AF010C00BF011C00CF0190EE2
:101D8000C7EF8EF0D8900C320B320A320932E82EAF
:101D9000C2EF8EF0095014260A5015220B5016225D
:101DA0000C50172210C011F00FC010F00EC00FF031
:101DB0000E6A125013C009F00A6A0926000E0A22A0
:101DC000820E0924186EFF0E0A20196EFDEF8EF0A8
:101DD000D890143615361636173611AEF2EF8EF04F
:101DE000F4EF8EF0F5EF8EF01480D8900E360F36AB
:101DF000103611361806D8A0190616AE02EF8FF06D
:101E000004EF8FF0E8EF8EF0000E126E11AE0BEFC4
:101E10008FF00DEF8FF031EF8FF0FF0E0E14096E83
:101E2000FF0E0F140A6EFF0E10140B6E7F0E1114AE
:101E30000C6E09500A100B100C10D8B422EF8FF062
:101E400024EF8FF028EF8FF0010E126E31EF8FF03C
:101E500014A02DEF8FF02FEF8FF031EF8FF024EFE4
:101E60008FF01250D8B437EF8FF039EF8FF05DEF6D
:101E70008FF0010E1426000E15221622172217A02D
:101E800044EF8FF046EF8FF05DEF8FF014C009F054
:101E900015C00AF016C00BF017C00CF00C340C3251
:101EA0000B320A32093209C014F00AC015F00BC017
:101EB00016F00CC017F0184A192A19BE68EF8FF0F7
:101EC000195008E11828D8A068EF8FF06AEF8FF05A
:101ED00074EF8FF0000E146E000E156E800E166EED
:101EE0007F0E176EA2EF8FF019BE81EF8FF01950A1
:101EF00006E11804D8B07FEF8FF081EF8FF08DEFFF
:101F00008FF0000E146E000E156E000E166E000E91
:101F1000176E000E0D6EA2EF8FF018C013F0FF0EBB
:101F20001416FF0E15167F0E1616000E171613A0A8
:101F30009CEF8FF09EEF8FF09FEF8FF0168ED89072
:101F40001330176E0D50171214C001F015C002F0B7
:101F500016C003F017C004F012008C0E0001986F39
:101F6000FB0E996F0CEC95F0560E0001986FFA0E6F
:101F7000996F0CEC95F0380E0001986FFA0E996F7E
:101F80000CEC95F0560E0001986FFA0E996F0CEC60
:101F900095F0000E0001BC6FE40E986FF80E996F7B
:101FA000BCC09AF09B6B0CEC95F0B50E0001986FDD
:101FB000FF0E996FBC51090D250EF324D96E010E49
:101FC000F420DA6EDF50B96FB9519A6F9B6B0CEC4D
:101FD00095F0E80E0001986FFC0E996FBC51090D49
:101FE000280EF3249A6F010EF4209B6F0CEC95F0F1
:101FF000B80E0001986FFC0E996FBC51090D280EA8
:10200000F324D96E010EF420DA6EDECF9AF0DDCF24
:102010009BF00CEC95F00001BC51090D2A0EF32445
:10202000D96E010EF420DA6EDECFBDF0DDCFBEF04A
:10203000000E986FFD0E996FBDC09AF0BEC09BF068
:102040000CEC95F0300E0001986FFD0E996FBC51AD
:10205000090D2C0EF324D96E010EF420DA6EDECFBA
:102060009AF0DDCF9BF00CEC95F08C0E0001986F90
:10207000FB0E996F0CEC95F0D00E0001986FFC0EE2
:10208000996FBC51090D260EF324D96E010EF42070
:10209000DA6EDECF9AF0DDCF9BF00CEC95F0B80E47
:1020A0000001986FFC0E996FBC51090D260EF324A8
:1020B000D96E010EF420DA6EDECFB9F0DDCFBAF0C2
:1020C000B9C0D9FFBAC0DAFFDECF9AF0DDCF9BF0FE
:1020D0000CEC95F0000E0001986FFD0E996FBDC0DD
:1020E0009AF0BEC09BF00CEC95F0300E0001986F9A
:1020F000FD0E996FBC51090D260EF324D96E010E09
:10210000F420DA6E10EE04F0DE50E126DD50E2221B
:10211000E6CF9AF0E5CF9BF00CEC95F0180E00019D
:10212000986FFD0E996FBC51090D260EF324D96EE0
:10213000010EF420DA6E10EE06F0DE50E126DD50DE
:10214000E222E6CF9AF0E5CF9BF00CEC95F08C0EF6
:102150000001986FFB0E996F0CEC95F0010E0001D9
:10216000BB6F1FEF91F0860E986FFC0E996FBBC08E
:102170009AF09B6BBDC09CF0BEC09DF00CEC95F03E
:10218000B80E0001986FFC0E996FBDC0D9FFBEC09C
:10219000DAFFDECF9AF0DDCF9BF00CEC95F0000E6D
:1021A0000001986FFD0E996F20EE02F0BD51D92607
:1021B000BE51DA22DECF9AF0DDCF9BF00CEC95F029
:1021C000300E0001986FFD0E996F20EE04F0BD51A6
:1021D000D926BE51DA22DECF9AF0DDCF9BF00CEC8F
:1021E00095F0180E0001986FFD0E996F20EE06F025
:1021F000BD51D926BE51DA22DECF9AF0DDCF9BF059
:102200000CEC95F0480E0001986FFD0E996F20EED2
:1022100008F0BD51D926BE51DA22DECF9AF0DDCFCB
:102220009BF00CEC95F0000120EE02F0BD51D92698
:10223000BE51DA22DECFBDF0DDCFBEF0BB2BBC51EC
:10224000090D280EF324B96F010EF420BA6FB951AD
:10225000BD1907E1BA51BE19D8A431EF91F033EF9F
:1022600091F0B3EF90F08C0E986FFB0E996F0CEC21
:1022700095F0860E0001986FFC0E996FBBC09AF026
:102280009B6BBDC09CF0BEC09DF00CEC95F0B80EF1
:102290000001986FFC0E996FBDC0D9FFBEC0DAFF78
:1022A000DECF9AF0DDCF9BF00CEC95F0000E000134
:1022B000986FFD0E996F20EE02F0BD51D926BE51E8
:1022C000DA22DECF9AF0DDCF9BF00CEC95F0300EE9
:1022D0000001986FFD0E996F20EE04F0BD51D926D4
:1022E000BE51DA22DECF9AF0DDCF9BF00CEC95F0F8
:1022F000180E0001986FFD0E996F20EE06F0BD518B
:10230000D926BE51DA22DECF9AF0DDCF9BF00CEC5D
:1023100095F0480E0001986FFD0E996F20EE08F0C1
:10232000BD51D926BE51DA22DECF9AF0DDCF9BF027
:102330000CEC95F00001BC2B020EBC65A2EF91F0F5
:10234000A4EF91F0CCEF8FF012003AEF93F06CC055
:1023500071F06DC072F00C0E736FD89072337133E0
:10236000732FADEF91F00F0E7117000E7217470E1D
:102370007125F66EF80E7221F76EF86A000EF822DB
:102380006FC0D9FF70C0DAFF0800F5CFDFFF6F4BD9
:10239000702B6CC071F06DC072F072C071F0726B16
:1023A0000F0E7117000E7217470E7125F66EF80E9C
:1023B0007221F76EF86A000EF8226FC0D9FF70C064
:1023C000DAFF0800F5CFDFFF6F4B702B6CC071F0A8
:1023D0006DC072F0040E736FD89072337133732F27
:1023E000ECEF91F00F0E7117000E7217470E71256A
:1023F000F66EF80E7221F76EF86A000EF8226FC0C2
:10240000D9FF70C0DAFF0800F5CFDFFF6F4B702BEC
:102410000F0E6C15716F000E6D15726F470E7125E2
:10242000F66EF80E7221F76EF86A000EF8226FC091
:10243000D9FF70C0DAFF0800F5CFDFFF6F4B702BBC
:1024400054EF93F06CC071F06DC072F0040E736FB6
:10245000D89072337133732F28EF92F00F0E7117EB
:10246000000E7217470E7125F66EF80E7221F76E88
:10247000F86A000EF8226FC0D9FF70C0DAFF0800BA
:10248000F5CFDFFF6F4B702B0F0E6C15716F000EC9
:102490006D15726F470E7125F66EF80E7221F76E8C
:1024A000F86A000EF8226FC0D9FF70C0DAFF08008A
:1024B000F5CFDFFF6F4B702B54EF93F0000E746F6E
:1024C0006CC071F06DC072F00C0E736FD8907233E7
:1024D0007133732F66EF92F00F0E7117000E7217A3
:1024E00071517211D8B477EF92F079EF92F09DEFBD
:1024F00092F06CC071F06DC072F00C0E736FD890DA
:1025000072337133732F7FEF92F00F0E7117000E3D
:102510007217470E7125F66EF80E7221F76EF86A83
:10252000000EF8226FC0D9FF70C0DAFF0800F5CFA7
:10253000DFFF6F4B702B010E746F7405D8B4A3EFDF
:1025400092F0A5EF92F0B9EF92F06CC071F06DC00F
:1025500072F072C071F0726B0F0E7117000E72176D
:1025600071517211D8B4B7EF92F0B9EF92F0D8EF81
:1025700092F06CC071F06DC072F072C071F0726B4D
:102580000F0E7117000E7217470E7125F66EF80EBA
:102590007221F76EF86A000EF8226FC0D9FF70C082
:1025A000DAFF0800F5CFDFFF6F4B702B010E746F61
:1025B0007405D8B4DEEF92F0E0EF92F0F9EF92F00C
:1025C0006CC071F06DC072F0040E736FD8907233EE
:1025D0007133732FE6EF92F00F0E7117000E721722
:1025E00071517211D8B4F7EF92F0F9EF92F01BEF3E
:1025F00093F06CC071F06DC072F0040E736FD890E0
:1026000072337133732FFFEF92F00F0E7117000EBC
:102610007217470E7125F66EF80E7221F76EF86A82
:10262000000EF8226FC0D9FF70C0DAFF0800F5CFA6
:10263000DFFF6F4B702B0F0E6C15716F000E6D1559
:10264000726F470E7125F66EF80E7221F76EF86AFA
:10265000000EF8226FC0D9FF70C0DAFF0800F5CF76
:10266000DFFF6F4B702B6FC0D9FF70C0DAFFDF6ADE
:1026700054EF93F000016E51716F726B7251000A4A
:10268000D8B445EF93F054EF93F07151000AD8B4E9
:102690005EEF92F0020AD8B422EF92F0060AD8B4A4
:1026A000A7EF91F054EF93F06FC06CF070C06DF035
:1026B0001200EEEF94F001C006F002C007F00C0E1D
:1026C000086ED89007320632082E61EF93F00F0E95
:1026D0000616000E0716470E0624F66EF80E0720A3
:1026E000F76EF86A000EF82204C0D9FF05C0DAFFC1
:1026F0000800F5CFDFFF044A052A01C006F002C03A
:1027000007F007C006F0076A0F0E0616000E071640
:10271000470E0624F66EF80E0720F76EF86A000ED4
:10272000F82204C0D9FF05C0DAFF0800F5CFDFFFAB
:10273000044A052A01C006F002C007F0040E086E24
:10274000D89007320632082EA0EF93F00F0E06162F
:10275000000E0716470E0624F66EF80E0720F76ED9
:10276000F86A000EF82204C0D9FF05C0DAFF08009D
:10277000F5CFDFFF044A052A0F0E0114066E000E86
:102780000214076E470E0624F66EF80E0720F76E49
:10279000F86A000EF82204C0D9FF05C0DAFF08006D
:1027A000F5CFDFFF044A052A07EF95F001C006F0D8
:1027B00002C007F0040E086ED89007320632082EC9
:1027C000DCEF93F00F0E0616000E0716470E0624D8
:1027D000F66EF80E0720F76EF86A000EF82204C0B5
:1027E000D9FF05C0DAFF0800F5CFDFFF044A052A4C
:1027F0000F0E0114066E000E0214076E470E06241B
:10280000F66EF80E0720F76EF86A000EF82204C084
:10281000D9FF05C0DAFF0800F5CFDFFF044A052A1B
:1028200007EF95F0000E096E01C006F002C007F038
:102830000C0E086ED89007320632082E1AEF94F06C
:102840000F0E0616000E071606500710D8B42BEF11
:1028500094F02DEF94F051EF94F001C006F002C017
:1028600007F00C0E086ED89007320632082E33EFB0
:1028700094F00F0E0616000E0716470E0624F66E8D
:10288000F80E0720F76EF86A000EF82204C0D9FF90
:1028900005C0DAFF0800F5CFDFFF044A052A010E64
:1028A000096E0904D8B457EF94F059EF94F06DEF26
:1028B00094F001C006F002C007F007C006F0076AF6
:1028C0000F0E0616000E071606500710D8B46BEF51
:1028D00094F06DEF94F08CEF94F001C006F002C01C
:1028E00007F007C006F0076A0F0E0616000E07165F
:1028F000470E0624F66EF80E0720F76EF86A000EF3
:10290000F82204C0D9FF05C0DAFF0800F5CFDFFFC9
:10291000044A052A010E096E0904D8B492EF94F016
:1029200094EF94F0ADEF94F001C006F002C007F010
:10293000040E086ED89007320632082E9AEF94F0F3
:102940000F0E0616000E071606500710D8B4ABEF90
:1029500094F0ADEF94F0CFEF94F001C006F002C018
:1029600007F0040E086ED89007320632082EB3EF37
:1029700094F00F0E0616000E0716470E0624F66E8C
:10298000F80E0720F76EF86A000EF82204C0D9FF8F
:1029900005C0DAFF0800F5CFDFFF044A052A0F0E55
:1029A0000114066E000E0214076E470E0624F66E22
:1029B000F80E0720F76EF86A000EF82204C0D9FF5F
:1029C00005C0DAFF0800F5CFDFFF044A052A04C07E
:1029D000D9FF05C0DAFFDF6A07EF95F00350066EF6
:1029E000076A0750000AD8B4F8EF94F007EF95F0A3
:1029F0000650000AD8B412EF94F0020AD8B4D6EF09
:102A000093F0060AD8B45BEF93F007EF95F004C09B
:102A100001F005C002F01200000E0001B16F020EBD
:102A2000B26FB1C0B7F0B2C0B8F0B151B211D8B402
:102A30001CEF95F01EEF95F08CEF96F09A0EB56FA7
:102A4000000EB66F71EF96F098C0F6FF99C0F7FFD1
:102A5000000EF86E0800F550250AD8A432EF95F064
:102A600034EF95F05CEF96F0984B992B30EF96F0A1
:102A7000B5C0D9FFB6C0DAFFDF50AC6F020EB52784
:102A8000000EB623B7C06CF0B8C06DF0AC519DEC31
:102A9000B4F06CC0B7F06DC0B8F06EEF96F0B5C092
:102AA000D9FFB6C0DAFFDECFA8F0DDCFA9F0020E65
:102AB000B527000EB623A8C074F0A9C075F0B7C042
:102AC00076F0B8C077F0F2ECA8F074C0B7F075C03B
:102AD000B8F06EEF96F0B5C0D9FFB6C0DAFFDECF22
:102AE000A4F0DECFA5F0DECFA6F0DECFA7F0040E77
:102AF000B527000EB623A4C085F0A5C086F0A6C0F9
:102B000087F0A7C088F0000E8A6F020E896FB7C0E9
:102B10008BF0B8C08CF0D7ECA1F085C0B7F086C0C0
:102B2000B8F06EEF96F0B5C0D9FFB6C0DAFFDECFD1
:102B3000AAF0DDCFABF0020EB527000EB623AAC077
:102B40006FF0ABC070F0B7C071F0B8C072F0DCECE1
:102B5000B2F06FC0B7F070C0B8F06EEF96F0B5C0CD
:102B6000D9FFB6C0DAFFDECFB3F0DDCFB4F0020E8E
:102B7000B527000EB623B3C06CF0B4C06DF0000EE4
:102B80006E6FB7C06FF0B8C070F0A5EC91F06CC07C
:102B9000B7F06DC0B8F06EEF96F0B5C0D9FFB6C013
:102BA000DAFFDECFADF0DECFAEF0DECFAFF0DECFBE
:102BB000B0F0040EB527000EB623AFC0B3F0B0C01E
:102BC000B4F0B3C06DF0B4C06EF0400E7CECB0F069
:102BD000ADC0B3F0AEC0B4F0B3C06DF0B4C06EF031
:102BE0002A0E7CECB0F0ADC06CF0AEC06DF0AFC0A2
:102BF0006EF0B0C06FF0B7C070F0B8C071F0D9EC33
:102C0000AAF06CC0B7F06DC0B8F06EEF96F0250E6C
:102C10006F6F000E706FB7C071F0B8C072F0DCEC6F
:102C2000B2F06FC0B7F070C0B8F098C0F6FF99C0AE
:102C3000F7FF000EF86E0800F5500001A26FA36BBD
:102C4000A2C06FF0A3C070F0B7C071F0B8C072F04E
:102C5000DCECB2F06FC0B7F070C0B8F06EEF96F079
:102C600098C0F6FF99C0F7FF000EF86E0800F55007
:102C7000A26FA36BA351000AD8B441EF96F007EFFF
:102C800096F0A251630AD8B438EF95F0070AD8B489
:102C90004FEF95F0020AD8B46BEF95F0160AD8B44E
:102CA000CDEF95F0030AD8B493EF95F00B0AD8B4A2
:102CB000AFEF95F007EF96F0B7C06CF0B8C06DF0CD
:102CC00098C0F6FF99C0F7FF000EF86E0800F550A7
:102CD0009DECB4F06CC0B7F06DC0B8F00001984B3B
:102CE000992B98C0F6FF99C0F7FF000EF86E080008
:102CF000F5500009D8A47FEF96F081EF96F024EF0D
:102D000095F0B7C0D9FFB8C0DAFFDF6AB1C06DF087
:102D1000B2C06EF077ECB1F01200000E406E020E01
:102D2000416E40C046F041C047F040504110D8B419
:102D30009CEF96F09EEF96F00AEF98F02F0E446EFF
:102D4000000E456EEFEF97F02DC0F6FF2EC0F7FF97
:102D5000000EF86E0800F550250AD8A4B2EF96F0E0
:102D6000B4EF96F0DBEF97F02D4A2E2AAFEF97F0F5
:102D700044C0D9FF45C0DAFFDF503B6E020E442647
:102D8000000E452246C001F047C002F03B50ADECBA
:102D9000B4F001C046F002C047F0EDEF97F044C038
:102DA000D9FF45C0DAFFDECF37F0DDCF38F0020EB5
:102DB0004426000E452237C009F038C00AF046C04C
:102DC0000BF047C00CF09DECA9F009C046F00AC01A
:102DD00047F0EDEF97F044C0D9FF45C0DAFFDECFF2
:102DE00033F0DECF34F0DECF35F0DECF36F0040E38
:102DF0004426000E452233C01AF034C01BF035C003
:102E00001CF036C01DF0000E1F6E020E1E6E46C076
:102E100020F047C021F093ECA3F01AC046F01BC08D
:102E200047F0EDEF97F044C0D9FF45C0DAFFDECFA1
:102E300039F0DDCF3AF0020E4426000E452239C0AB
:102E400004F03AC005F046C006F047C007F006ECB3
:102E5000B3F004C046F005C047F0EDEF97F044C072
:102E6000D9FF45C0DAFFDECF42F0DDCF43F0020EDE
:102E70004426000E452242C001F043C002F0000E7D
:102E8000036E46C004F047C005F059EC93F001C052
:102E900046F002C047F0EDEF97F044C0D9FF45C0BF
:102EA000DAFFDECF3CF0DECF3DF0DECF3EF0DECF0E
:102EB0003FF0040E4426000E45223EC042F03FC0C3
:102EC00043F042C002F043C003F0400ED9ECB0F032
:102ED0003CC042F03DC043F042C002F043C003F0AA
:102EE0002A0ED9ECB0F03CC001F03DC002F03EC06B
:102EF00003F03FC004F046C005F047C006F008EC00
:102F0000ACF001C046F002C047F0EDEF97F0250E9F
:102F1000046E000E056E46C006F047C007F006ECD2
:102F2000B3F004C046F005C047F02DC0F6FF2EC038
:102F3000F7FF000EF86E0800F550316E326A31C0AE
:102F400004F032C005F046C006F047C007F006ECBA
:102F5000B3F004C046F005C047F0EDEF97F02DC088
:102F6000F6FF2EC0F7FF000EF86E0800F550316E28
:102F7000326A3250000AD8B4C0EF97F087EF97F06A
:102F80003150630AD8B4B8EF96F0070AD8B4CFEF3F
:102F900096F0020AD8B4EBEF96F0160AD8B44DEFCB
:102FA00097F0030AD8B413EF97F00B0AD8B42FEFB9
:102FB00097F087EF97F046C001F047C002F02DC0B0
:102FC000F6FF2EC0F7FF000EF86E0800F550ADECCE
:102FD000B4F001C046F002C047F02D4A2E2A2DC0A1
:102FE000F6FF2EC0F7FF000EF86E0800F55000093E
:102FF000D8A4FDEF97F0FFEF97F0A4EF96F046C04E
:10300000D9FF47C0DAFFDF6A40C002F041C003F0D9
:103010003FECB2F012008C0E0001986FFB0E996F1E
:103020000CEC95F05F0E0001986FFA0E996F0CECA6
:1030300095F0340E0001986FFF0E996FB9C09AF0A9
:10304000BAC09BF00CEC95F05F0E0001986FFA0E81
:10305000996F0CEC95F02D0E0001986FFE0E996F94
:10306000B9C09AF0BAC09BF00CEC95F0F30E0001D9
:10307000986FFE0E996F190EB9259A6F000EBA213E
:103080009B6F0CEC95F0010E0001986FFE0E996F8E
:1030900020EE16F0B951D926BA51DA22DF50BB6FB3
:1030A000BB519A6F9B6B0CEC95F0430E0001986F2F
:1030B000FE0E996F20EE17F0B951D926BA51DA22D7
:1030C000DECF9AF0DDCF9BF00CEC95F0B10E000155
:1030D000986FFE0E996FB9C0D9FFBAC0DAFFDECF84
:1030E0009AF0DDCF9BF00CEC95F09B0E0001986FF1
:1030F000FE0E996F20EE1DF0B951D926BA51DA2291
:10310000DECF9AF0DDCF9BF00CEC95F0C70E0001FE
:10311000986FFE0E996F020EB9259A6F000EBA21B4
:103120009B6F0CEC95F0850E0001986FFE0E996F69
:1031300020EE0AF0B951D926BA51DA22DECF9AF040
:10314000DDCF9BF00CEC95F0590E0001986FFE0E50
:10315000996F20EE08F0B951D926BA51DA22DECFA4
:103160009AF0DDCF9BF00CEC95F0170E0001986FF4
:10317000FE0E996F20EE04F0B951D926BA51DA2229
:10318000DECF9AF0DDCF9BF00CEC95F06F0E0001D6
:10319000986FFE0E996F20EE06F0B951D926BA51FC
:1031A000DA22DECF9AF0DDCF9BF00CEC95F0D30E57
:1031B0000001986FFD0E996F20EE02F0B951D926EB
:1031C000BA51DA22DECF9AF0DDCF9BF00CEC95F00D
:1031D000DD0E0001986FFE0E996F0C0EB9259A6FE7
:1031E000000EBA219B6F0CEC95F0A50E0001986FB4
:1031F000FD0E996F20EE14F0B951D926BA51DA229A
:10320000DECF9AF0DDCF9BF00CEC95F0770E00014D
:10321000986FFD0E996F20EE12F0B951D926BA5170
:10322000DA22DECF9AF0DDCF9BF00CEC95F0BC0EED
:103230000001986FFD0E996F20EE0EF0B951D9265E
:10324000BA51DA22DECF9AF0DDCF9BF00CEC95F08C
:103250008E0E0001986FFD0E996F20EE10F0B9519F
:10326000D926BA51DA22DECF9AF0DDCF9BF00CECF2
:1032700095F0090E0001986FFF0E996F20EE0CF08B
:10328000B951D926BA51DA22DECF9AF0DDCF9BF0C0
:103290000CEC95F01200390E0001986FF90E996F41
:1032A000C7C09AF0C8C09BF00CEC95F0AC0E0001C2
:1032B000986FF90E996F20EE17F0C751D926C851B3
:1032C000DA22DECF9AF0DDCF9BF00CEC95F0000116
:1032D00020EE17F0C751D926C851DA22DECF6CF0A4
:1032E000DDCF6DF0000E6F6FA50E6E6FBEC070F07B
:1032F000BFC071F0D0ECA6F0350E0001986FFC0E47
:10330000996F0CEC95F0000120EE17F0C751D9260B
:10331000C851DA22DECFCFF0DDCFD0F020EE17F0AB
:10332000C751D926C851DA22DECFCBF0DDCFCCF0A1
:10333000BE51CB27BF51CC23FF0ECB25CD6FFF0E47
:10334000CC21CE6F20EE1DF0C751D926C851DA220C
:10335000CDC0DEFFCEC0DDFFBC51BD11D8B4B3EF90
:1033600099F0B5EF99F001EF9AF0500E986FFC0EBE
:10337000996F0CEC95F0000E0001D16FD151BC2576
:10338000CB6F000EBD21CC6FCBC0F6FFCCC0F7FFDA
:10339000000EF86ED151C725CD6F000EC821CE6F3B
:1033A000190ECD25D96E000ECE21DA6E0800F5CFAC
:1033B000DFFFD151BC25CB6F000EBD21CC6FCBC040
:1033C000F6FFCCC0F7FF000EF86E0800F5500009BC
:1033D000D8A4EDEF99F0EFEF99F0F1EF99F0FAEF53
:1033E00099F0D12B030ED165F8EF99F0FAEF99F02F
:1033F000BEEF99F020EE1CF0C751D926C851DA2251
:10340000DF6A020EC46507EF9AF009EF9AF013EF36
:103410009AF0D20E986FF90E996F030E9B6FD50E2E
:103420009A6F0CEC95F0020E0001C4651AEF9AF049
:103430001CEF9AF01EEF9AF0020EC46F20EE16F009
:10344000C751D926C851DA22C4C0DFFF020EC725F2
:103450006C6F000EC8216D6FDEECB4F00C0E000135
:10346000C7256C6F000EC8216D6FDEECB4F0000153
:1034700020EE08F0C751D926C851DA22C7C0DEFFB6
:10348000C8C0DDFF030ECB6F000ECC6FC451CB5F05
:10349000000ECC5B20EE0CF0C751D926C851DA22C1
:1034A000CBC0DEFFCCC0DDFF20EE12F0C751D92625
:1034B000C851DA22C7C0DEFFC8C0DDFFCFC06CF044
:1034C000D0C06DF0B9C06EF0BAC06FF0BBC070F084
:1034D000C2C071F0C3C072F000EC9EF0C7C0D9FF4B
:1034E000C8C0DAFF00016CC0DEFF6DC0DDFFC55152
:1034F000C611D8B47EEF9AF080EF9AF088EF9AF078
:10350000C5C0D9FFC6C0DAFFC7C0DEFFC8C0DDFF37
:103510001200A3C1B9F0A4C1BAF00BEC98F0F2CF3D
:10352000E6FFF29E0101232B3B0E0001986FFB0E7C
:10353000996F23C19AF09B6B0CEC95F0010112512D
:103540001311D8A4A6EF9AF0A8EF9AF0C0EF9AF062
:10355000F80E0001986FF90E996F0CEC95F0A3C16D
:1035600012F1A4C113F101012305D8A4BAEF9AF016
:10357000BCEF9AF0E9EF9AF0BBECB1F0E9EF9AF00A
:10358000180E0001986FFA0E996F0CEC95F001017E
:103590002151D8A4CEEF9AF0D0EF9AF0E9EF9AF04B
:1035A00020EE16F01251D9261351DA2210EE16F041
:1035B000A351E126A451E222DE50E65CD8A0E3EF5D
:1035C0009AF0E5EF9AF0E9EF9AF0A3C112F1A4C1E5
:1035D00013F10101202B20EE1FF0A351D926A45195
:1035E000DA2220C1DFFF20EE16F0A351D926A45124
:1035F000DA22DE50225DD8B000EF9BF002EF9BF0A4
:103600000AEF9BF020EE16F0A351D926A451DA223E
:10361000DF50226F20EE16F0A351D926A451DA22F2
:10362000DF50A56FA551090D260EF324D96E010EAA
:10363000F420DA6EDECFA8F1DDCFA9F120EE04F0A0
:10364000A351D926A451DA22A8C1DEFFA9C1DDFF0A
:1036500020EE04F0A851D926A951DA2210EE06F086
:10366000A351E126A451E222DECFE6FFDDCFE5FF44
:10367000020EA325A56F000EA421A66F20EE04F074
:10368000A851D926A951DA2210EE02F0DE50E12627
:10369000DD50E222A5C1E6FFA6C1E5FF020EA3258B
:1036A000A56F000EA421A66F20EE04F0A851D92624
:1036B000A951DA22A5C1DEFFA6C1DDFF20EE16F07A
:1036C000A351D926A451DA22DF50A56FA551090DC7
:1036D000250EF324A66F010EF420A76F20EE0AF04A
:1036E000A351D926A451DA22A6C1DEFFA7C1DDFF6E
:1036F00020EE16F0A351D926A451DA22DF50A56F8F
:10370000A551090D250EF324D96E010EF420DA6EB1
:10371000DF2AE552E7AE8FEF9BF091EF9BF092EF3F
:103720009BF0F28E01012151D8B499EF9BF09BEFF1
:103730009BF0B2EF9BF020EE16F0A351D926A451D6
:10374000DA2210EE16F01251E1261351E222DE5079
:10375000E65CD8B0AEEF9BF0B0EF9BF0B2EF9BF021
:103760009DECACF012C1B9F013C1BAF00BEC98F0BB
:10377000000E01018E6F000E8F6FE8EC9CF01200BE
:10378000000E0001DF6F000EE06FE8ECB4F0000106
:10379000EE51EF11D8A4CFEF9BF0D1EF9BF0D3EF18
:1037A0009BF045ECAFF00001DB51DC11D8B4DBEF4E
:1037B0009BF0DDEF9BF0F2EF9BF0FA0EDB5DFF0E6E
:1037C000DC59D8B0E6EF9BF0E8EF9BF0EEEF9BF012
:1037D000060EDB27000EDC23F2EF9BF0000EDC6F01
:1037E000000EDB6FDCBFF7EF9BF0F9EF9BF0E1EF32
:1037F0009CF0DB51DC11D8B400EF9CF002EF9CF0A0
:10380000E1EF9CF0DB5101011E5D0001DC51010183
:103810001F59D8A00EEF9CF010EF9CF0E1EF9CF048
:103820006D0E0001E36F010EE46F6DC1E5F06EC136
:10383000E6F027EF9CF0E5C0E3F0E6C0E4F0E5C079
:10384000D9FFE6C0DAFFDECFE5F0DDCFE6F020EE0F
:1038500002F0E551D926E651DA22DB51DE5CDC517B
:10386000DE58D8B036EF9CF038EF9CF045EF9CF076
:10387000E5C0D9FFE6C0DAFFDE50DE10D8A443EF82
:103880009CF045EF9CF01BEF9CF0EE51E51909E12F
:10389000EF51E619D8B44FEF9CF051EF9CF0E1EFF7
:1038A0009CF0E3C0D9FFE4C0DAFFDECFDDF0DDCF6E
:1038B000DEF0050EDD25DF6F000EDE21E06FE5C0D6
:1038C000D9FFE6C0DAFFE3C0E1FFE4C0E2FFDECFEC
:1038D000E6FFDDCFE5FF20EE02F0E551D926E65107
:1038E000DA22DECFDDF0DDCFDEF0DB51DD5FDC5153
:1038F000DE5BDE5109E10B0EDD5DD8A082EF9CF0AE
:1039000084EF9CF0B2EF9CF0DB51E525E16FDC51D8
:10391000E621E26F20EE02F0E551D926E651DA22E7
:10392000DECFDDF0DDCFDEF0DB51DD5FDC51DE5BD5
:1039300020EE02F0E151D926E251DA22DDC0DEFFAD
:10394000DEC0DDFF20EE02F0E551D926E651DA2295
:10395000DBC0DEFFDCC0DDFFE1C06CF0E2C06DF07B
:10396000F4ECA0F0000120EE02F0E551D926E6517A
:10397000DA22DE5001011E5FDD501F5B1C511E5D0F
:103980001D511F59D8B0C7EF9CF0C9EF9CF0CDEF87
:103990009CF01EC11CF11FC11DF1000120EE02F0C0
:1039A000E551D926E651DA22010EDB8EE5C0D9FFBA
:1039B000E6C0DAFFDE6ADD6A01011A4B1B2BE1EF7C
:1039C0009CF062EC89F0DFC0DBF0E0C0DCF01200BC
:1039D00023C19EF101012351100DF3CFDBF0F4CF91
:1039E000DCF0C0EC9BF0DBC0A1F1DCC0A2F10F0E5B
:1039F0000001986FF90E996F0CEC95F0570E0001CD
:103A0000986FFB0E996F0CEC95F0110E0001986FFA
:103A1000F90E996F0CEC95F00101A151A211D8B4E7
:103A200014EF9DF016EF9DF0FFEF9DF0A1C187F11F
:103A3000A2C188F19EC189F1000E8A6F000E8B6FC2
:103A40008CECA7F001019E6F000EA06FE9EF9DF0D6
:103A5000580E9F6F77EF9DF0520E9F6F77EF9DF09E
:103A6000420E9F6F77EF9DF0530E9F6F77EF9DF0A3
:103A7000440E9F6F77EF9DF0000E9F6F77EF9DF0E4
:103A8000A051100DF3CF90F1F4CF91F19051A125F9
:103A9000926F9151A221936F050E9225D96E000E5F
:103AA0009321DA6EDF50946F956B9551000AD8B46C
:103AB0005CEF9DF03CEF9DF09451000AD8B428EFE4
:103AC0009DF0010AD8B42CEF9DF0030AD8B430EF72
:103AD0009DF0010AD8B434EF9DF0070AD8B438EF4E
:103AE0009DF0010AD8B43CEF9DF03CEF9DF0FB0E39
:103AF0000001986FFF0E996F0101A051100DF3CFD7
:103B000090F1F4CF91F19051A125926F9151A221A2
:103B1000936F020E9225D96E000E9321DA6EDECFDE
:103B20009AF0DDCF9BF00CEC95F0C50E0001986F7C
:103B3000FF0E996F9FC19AF09B6B0101A051100D70
:103B4000F3CF90F1F4CF91F19051A125926F915163
:103B5000A221936F060E9225D96E000E9321DA6E84
:103B6000DF50946F945100019C6F9D6B0101A05137
:103B7000100DF3CF95F1F4CF96F19551A125976FE4
:103B80009651A221986F0E0E9725D96E000E98219E
:103B9000DA6EDECF9EF0DDCF9FF0A051100DF3CF97
:103BA00099F1F4CF9AF19951A1259B6F9A51A221D5
:103BB0009C6F040E9B25D96E000E9C21DA6EDF509F
:103BC0009D6F9D510001A06FA16B0CEC95F0010160
:103BD000A02B9E51A05DD8A0F0EF9DF0F2EF9DF0DC
:103BE00040EF9DF0110E0001986FF90E996F0CECEB
:103BF00095F0A1C1DBF0A2C1DCF02CECADF012001D
:103C00006CC0D9FF6DC0DAFF110EDF6E00016C4B86
:103C10006D2B6CC0D9FF6DC0DAFF220EDF6E6C4BCE
:103C20006D2B6CC0D9FF6DC0DAFF330EDF6E6C4BAD
:103C30006D2B71C074F072C075F0766B776B6CC0D1
:103C4000D9FF6DC0DAFF74C0DFFF6C4B6D2B75C000
:103C500074F076C075F077C076F0776B6CC0D9FFE2
:103C60006DC0DAFF74C0DFFF6C4B6D2B6CC0D9FFE9
:103C70006DC0DAFF440EDF6E6C4B6D2B6CC0D9FF4C
:103C80006DC0DAFF660EDF6E6C4B6D2B6CC0D9FF1A
:103C90006DC0DAFFCC0EDF6E6C4B6D2B6CC0D9FFA4
:103CA0006DC0DAFFC00EDF6E6C4B6D2B6CC0D9FFA0
:103CB0006DC0DAFF110EDF6E6C4B6D2B6CC0D9FF3F
:103CC0006DC0DAFF220EDF6E6C4B6D2B6CC0D9FF1E
:103CD0006DC0DAFF330EDF6E6C4B6D2B6CC0D9FFFD
:103CE0006DC0DAFF440EDF6E6C4B6D2B6CC0D9FFDC
:103CF0006DC0DAFF550EDF6E6C4B6D2B6CC0D9FFBB
:103D00006DC0DAFF660EDF6E6C4B6D2B6CC0D9FF99
:103D10006DC0DAFFDF6A6C4B6D2B6CC0D9FF6DC0D4
:103D2000DAFF880EDF6E6C4B6D2B6CC0D9FF6DC057
:103D3000DAFF990EDF6E6C4B6D2B6CC0D9FF6DC036
:103D4000DAFFAA0EDF6E6C4B6D2B6CC0D9FF6DC015
:103D5000DAFFBB0EDF6E6C4B6D2B6CC0D9FF6DC0F4
:103D6000DAFFDF6A6C4B6D2B6CC0D9FF6DC0DAFFD8
:103D7000DF6A6C4B6D2B000E736F6CC0D9FF6DC08A
:103D8000DAFF73C0DFFF6C4B6D2B732B130E736563
:103D9000CCEF9EF0CEEF9EF0BDEF9EF06CC0D9FF51
:103DA0006DC0DAFF130EDF6E6C4B6D2B6CC0D9FF4C
:103DB0006DC0DAFFDF6A6C4B6D2B6E51746F6F5103
:103DC000756F7051766F776B6CC0D9FF6DC0DAFF7D
:103DD00074C0DFFF6C4B6D2B75C074F076C075F04E
:103DE00077C076F0776B6CC0D9FF6DC0DAFF74C016
:103DF000DFFF6C4B6D2B75C074F076C075F077C02B
:103E000076F0776B6CC0D9FF6DC0DAFF74C0DFFF4E
:103E10006C4B6D2B6CC0D9FF6DC0DAFF010EDF6EED
:103E20006C4B6D2B6CC06CF06DC06DF0120000011E
:103E3000DB51DC11D8B41FEF9FF021EF9FF027EF8B
:103E40009FF0DBC0E3F0DCC0E4F02BEF9FF012C189
:103E5000E3F013C1E4F0DDC0D9FFDEC0DAFFE3C058
:103E6000DEFFE4C0DDFF190EE325E16F000EE42163
:103E7000E26F20EE02F0DD51D926DE51DA22E1C0F8
:103E8000DEFFE2C0DDFF20EE16F0E351D926E4515B
:103E9000DA2210EE06F0DD51E126DE51E222DFCF1C
:103EA000E7FF20EE17F0E351D926E451DA2210EEB5
:103EB0000CF0DD51E126DE51E222DECFE6FFDDCF60
:103EC000E5FF20EE1FF0E351D926E451DA2210EE8F
:103ED00004F0DD51E126DE51E222DFCFE7FF20EEE4
:103EE00007F0DD51D926DE51DA22DF6A20EE08F034
:103EF000DD51D926DE51DA22DE6ADE6ADE6ADD6A4B
:103F0000050EE019D8B487EF9FF089EF9FF0D1EF4D
:103F10009FF0010112510001E31909E10101135160
:103F20000001E419D8A497EF9FF099EF9FF0A2EF5A
:103F30009FF020EE05F0DD51D926DE51DA22DF6A4E
:103F4000E1EF9FF020EE05F0DD51D926DE51DA22B7
:103F5000E0C0DFFF030EE019D8A4B1EF9FF0B3EF8C
:103F60009FF0E1EF9FF0E8ECB4F0000120EE14F0D8
:103F7000E351D926E451DA22DE50DE10D8B4C3EF83
:103F80009FF0C5EF9FF0CDEF9FF020EE05F0DD51E3
:103F9000D926DE51DA22020EDF6E62EC89F0E1EF03
:103FA0009FF0E3C0B9F0E4C0BAF048ECA5F000011E
:103FB000E16F20EE05F0DD51D926DE51DA22E1C0B5
:103FC000DFFF0001DF51D8B4E8EF9FF0EAEF9FF088
:103FD00003EFA0F020EE1DF0E351D926E451DA22E0
:103FE000DECF6CF0DDCF6DF02FECB3F0000120EEF2
:103FF0000EF0DD51D926DE51DA226CC0DEFF6DC035
:10400000DDFF0BEFA0F020EE0EF0DD51D926DE51E2
:10401000DA22DE6ADD6A1200000E0101826F77C1CA
:10402000D9FF78C1DAFFDF50D8B419EFA0F01BEF49
:10403000A0F0F2EFA0F077C183F178C184F120EE17
:1040400001F08351D9268451DA2210EE02F0DE50BD
:10405000E126DD50E22220EE01F08351D926845181
:10406000DA22E6CFDEFFE5CFDDFF030E83257A6F90
:10407000000E84217B6F20EE01F08351D9268451FC
:10408000DA227A51DE1807E17B51DE18D8A44BEF13
:10409000A0F04DEFA0F063EFA0F020EE01F083510F
:1040A000D9268451DA2210EE02F0DE50E126DD50EE
:1040B000E22220EE01F08351D9268451DA22E6CFA4
:1040C000DEFFE5CFDDFF20EE01F08351D9268451DC
:1040D000DA2210EE06F0DE50E126DD50E222E6CFD5
:1040E0007EF1E5CF7FF177C185F178C186F120EED1
:1040F00001F08551D9268651DA2210EE02F0DE5009
:10410000E126DD50E22220EE01F08551D9268651CC
:10411000DA22E6CFDEFFE5CFDDFF030E85257A6FDD
:10412000000E86217B6F20EE01F08551D926865145
:10413000DA227A51DE1807E17B51DE18D8A4A3EF0A
:10414000A0F0A5EFA0F0BBEFA0F020EE01F08551AC
:10415000D9268651DA2210EE02F0DE50E126DD503B
:10416000E22220EE01F08551D9268651DA22E6CFEF
:10417000DEFFE5CFDDFF20EE01F08551D926865127
:10418000DA2210EE06F0DE50E126DD50E222E6CF24
:1041900080F1E5CF81F180C1DBF081C1DCF082519B
:1041A000100DF3CF7AF1F4CF7BF17A517525000130
:1041B000DD6F01017B5176210001DE6F010EDF6FA3
:1041C00079C1E0F017EC9FF00101822B7E5180193C
:1041D00007E17F518119D8A4F0EFA0F0F2EFA0F031
:1041E00073EFA0F0825112006D0E0001766F010E88
:1041F000776F03EFA1F076C0D9FF77C0DAFFDECF8B
:1042000076F0DDCF77F076C0D9FF77C0DAFF6C515A
:10421000DE5C6D51DE58D8A010EFA1F012EFA1F0D6
:10422000FBEFA0F076C074F077C075F020EE02F0DE
:104230007651D9267751DA22DECF6EF0DDCF6FF0DE
:104240006E517425706F6F517521716F6C517019BB
:1042500007E16D517119D8A430EFA1F032EFA1F050
:104260004AEFA1F020EE02F06C51D9266D51DA220E
:10427000DECF6EF0DDCF6FF020EE02F07651D92662
:104280007751DA226E51DE266F51DD2276C06CF056
:1042900077C06DF06CC074F06DC075F076C0D9FF5A
:1042A00077C0DAFF10EE02F06C51E1266D51E22288
:1042B000E6CF70F0E5CF71F070517425726F7151D7
:1042C0007521736FDE50721907E1DE507319D8A49F
:1042D0006CEFA1F06EEFA1F0B6EFA1F076C0D9FFC0
:1042E00077C0DAFFEE51DE1809E1EF51DE18D8B4DD
:1042F0007CEFA1F07EEFA1F0ACEFA1F076C0D9FF8A
:1043000077C0DAFF10EE02F0DE50E126DD50E22247
:10431000E6CF6EF0E5CF6FF020EE02F06C51D926BB
:104320006D51DA226E51DE266F51DD2276C0D9FF43
:1043300077C0DAFFDECF6EF0DDCF6FF06EC0D9FF51
:104340006FC0DAFF6CC0E1FF6DC0E2FFDECFE6FFB9
:10435000DDCFE5FFC2EFA1F06CC0D9FF6DC0DAFF81
:10436000EEC0DEFFEFC0DDFFC2EFA1F076C0D9FFE7
:1043700077C0DAFF6CC0E1FF6DC0E2FFDECFE6FF81
:10438000DDCFE5FF6C51761909E16D517719D8B48D
:10439000CCEFA1F0CEEFA1F0D6EFA1F076C0D9FF1F
:1043A00077C0DAFF6CC0DEFF6DC0DDFF120085C094
:1043B0006CF086C06DF087C06EF088C06FF03EEC88
:1043C000AEF06CC090F06DC091F090C074F091C0F0
:1043D00075F08BC076F08CC077F0F2ECA8F074C06A
:1043E0008BF075C08CF08BC0D9FF8CC0DAFF2E0E1D
:1043F000DF6E00018B4B8C2B85C07CF086C07DF07E
:1044000087C07EF088C07FF090C06CF091C06DF0E6
:10441000000E6DBFFF0E6E6F6F6F010EB7ECA2F056
:104420006CC080F06DC081F06EC082F06FC083F010
:104430009EECB3F07CC094F07DC095F07EC096F009
:104440007FC097F0000197BF2AEFA2F028EFA2F0FB
:104450003CEFA2F094C06CF095C06DF096C06EF089
:1044600097C06FF027ECB4F06CC094F06DC095F07D
:104470006EC096F06FC097F0000E00018F6F000EB7
:104480008E6F9EEFA2F094C06CF095C06DF096C058
:104490006EF097C06FF0000E706F000E716F200EFF
:1044A000726F410E736F82EC8BF06CC094F06DC034
:1044B00095F06EC096F06FC097F094C06CF095C008
:1044C0006DF096C06EF097C06FF03EECAEF06CC031
:1044D00092F06DC093F000019251300F8BC0D9FF64
:1044E0008CC0DAFFDF6E8B4B8C2B94C07CF095C0B8
:1044F0007DF096C07EF097C07FF092C06CF093C0C4
:104500006DF0000E6DBFFF0E6E6F6F6F010EB7EC9A
:10451000A2F06CC080F06DC081F06EC082F06FC000
:1045200083F09EECB3F07CC094F07DC095F07EC02B
:1045300096F07FC097F000018E4B8F2B89518E5DD6
:104540008F51800A8D6F8A51800A8D59D8A0ABEFA8
:10455000A2F0ADEFA2F043EFA2F08BC0D9FF8CC068
:10456000DAFFDF6A8BC085F08CC086F01200000194
:10457000746F00017451D8B4C0EFA2F0C2EFA2F082
:10458000E4EFA2F06FBFC9EFA2F0C7EFA2F0E4EF33
:10459000A2F06CC070F06DC071F06EC072F06FC0B0
:1045A00073F0701F711F721F731F702B000E712329
:1045B0007223732370C076F071C077F072C078F008
:1045C00073C079F0ECEFA2F06CC076F06DC077F0BC
:1045D0006EC078F06FC079F06C516D116E116F1173
:1045E000D8A4F5EFA2F0F7EFA2F001EFA3F0000ED0
:1045F0006C6F000E6D6F000E6E6F000E6F6F92EF9E
:10460000A3F0960E756F0BEFA3F0752BD89079334E
:10461000783377337633000E7615706F000E77158A
:10462000716F000E7815726FFE0E7915736F7051F1
:10463000711172117311D8A420EFA3F022EFA3F02F
:1046400005EFA3F030EFA3F0752B010E7627000ED7
:10465000772378237923D890793378337733763377
:10466000000E7615706F000E7715716F000E7815BD
:10467000726FFF0E7915736F705171117211731192
:10468000D8A445EFA3F047EFA3F024EFA3F04FEF3A
:10469000A3F07507D890763777377837793778BFB2
:1046A00054EFA3F056EFA3F05EEFA3F0020E756196
:1046B0005CEFA3F05EEFA3F049EFA3F075B163EFF9
:1046C000A3F065EFA3F066EFA3F0789FD890753361
:1046D00075C070F0716B726B736B70C073F0726B3E
:1046E000716B706B7051761371517713725178132F
:1046F000735179137451D8B480EFA3F082EFA3F013
:104700008AEFA3F06FBF89EFA3F087EFA3F08AEFE2
:10471000A3F0798F76C06CF077C06DF078C06EF042
:1047200079C06FF012001AC001F01BC002F01CC06B
:1047300003F01DC004F0C2ECAEF001C025F002C0D1
:1047400026F025C009F026C00AF020C00BF021C0D9
:104750000CF09DECA9F009C020F00AC021F020C0A7
:10476000D9FF21C0DAFF2E0EDF6E204A212A1AC09F
:1047700011F01BC012F01CC013F01DC014F025C0B6
:1047800001F026C002F0000E02BEFF0E036E046EA2
:10479000010E6EECA4F001C015F002C016F003C0CB
:1047A00017F004C018F0E6ECB3F011C029F012C005
:1047B0002AF013C02BF014C02CF02CBEE4EFA3F0B1
:1047C000E2EFA3F0F6EFA3F029C001F02AC002F057
:1047D0002BC003F02CC004F044ECB4F001C029F06D
:1047E00002C02AF003C02BF004C02CF0000E246E8F
:1047F000000E236E55EFA4F029C001F02AC002F08C
:104800002BC003F02CC004F0000E056E000E066EE7
:10481000200E076E410E086E98EC8DF001C029F055
:1048200002C02AF003C02BF004C02CF029C001F014
:104830002AC002F02BC003F02CC004F0C2ECAEF092
:1048400001C027F002C028F02750300F20C0D9FF48
:1048500021C0DAFFDF6E204A212A29C011F02AC0C8
:1048600012F02BC013F02CC014F027C001F028C0A8
:1048700002F0000E02BEFF0E036E046E010E6EEC1F
:10488000A4F001C015F002C016F003C017F004C078
:1048900018F0E6ECB3F011C029F012C02AF013C0F2
:1048A0002BF014C02CF0234A242A1E50235C2450E1
:1048B000800A226E1F50800A2258D8A062EFA4F00E
:1048C00064EFA4F0FCEFA3F020C0D9FF21C0DAFF11
:1048D000DF6A20C01AF021C01BF01200096E0950D7
:1048E000D8B475EFA4F077EFA4F099EFA4F004BE6C
:1048F0007EEFA4F07CEFA4F099EFA4F001C005F0E6
:1049000002C006F003C007F004C008F0051E061E32
:10491000071E081E052A000E06220722082205C0CF
:104920000BF006C00CF007C00DF008C00EF0A1EFB0
:10493000A4F001C00BF002C00CF003C00DF004C0E5
:104940000EF00150021003100410D8A4AAEFA4F036
:10495000ACEFA4F0B6EFA4F0000E016E000E026EF4
:10496000000E036E000E046E47EFA5F0960E0A6E61
:10497000C0EFA4F00A2AD8900E320D320C320B325E
:10498000000E0B14056E000E0C14066E000E0D14B6
:10499000076EFE0E0E14086E055006100710081064
:1049A000D8A4D5EFA4F0D7EFA4F0BAEFA4F0E5EFC8
:1049B000A4F00A2A010E0B26000E0C220D220E2254
:1049C000D8900E320D320C320B32000E0B14056EE5
:1049D000000E0C14066E000E0D14076EFF0E0E1462
:1049E000086E0550061007100810D8A4FAEFA4F0BE
:1049F000FCEFA4F0D9EFA4F004EFA5F00A06D890DC
:104A00000B360C360D360E360DBE09EFA5F00BEF4A
:104A1000A5F013EFA5F0020E0A6011EFA5F013EF59
:104A2000A5F0FEEFA4F00AB018EFA5F01AEFA5F07C
:104A30001BEFA5F00D9ED8900A320AC005F0066A59
:104A4000076A086A05C008F0076A066A056A055021
:104A50000B1206500C1207500D1208500E1209507E
:104A6000D8B435EFA5F037EFA5F03FEFA5F004BEC1
:104A70003EEFA5F03CEFA5F03FEFA5F00E8E0BC08A
:104A800001F00CC002F00DC003F00EC004F01200E3
:104A9000B9C0C6F0BAC0C7F00001C651C711D8A44A
:104AA00054EFA5F056EFA5F060EFA5F0D20E986F89
:104AB000F90E996F050E9B6FF70E9A6F0CEC95F03F
:104AC000010112510001C61909E101011351000150
:104AD000C719D8A46EEFA5F070EFA5F074EFA5F09C
:104AE000000EC26F0CEFA6F0F2CFE6FFF29E20EEB2
:104AF0000AF0C651D926C751DA22DECFC4F0DDCF85
:104B0000C5F0ECC0BEF0EDC0BFF0EAC0C0F0EBC035
:104B1000C1F0E552E7AE8FEFA5F091EFA5F092EF6F
:104B2000A5F0F28E0001BE51C41909E1BF51C519AB
:104B3000D8B49DEFA5F09FEFA5F0ABEFA5F0C05165
:104B4000C41907E1C151C519D8A4A9EFA5F0ABEF6D
:104B5000A5F0AFEFA5F0020EC26F0CEFA6F0400E6D
:104B6000C41907E1010EC519D8A4B9EFA5F0BBEF30
:104B7000A5F0F1EFA5F020EE14F0C651D926C751EB
:104B8000DA22DE50DE10D8A4C8EFA5F0CAEFA5F0F7
:104B9000ABEFA5F0030EC26F000EC36FC351C62565
:104BA000BB6F000EC721BC6F250EBB25D96E000E52
:104BB000BC21DA6EDE04D8A4E0EFA5F0E2EFA5F0A8
:104BC000E4EFA5F0ABEFA5F0C32BC351800A7F0F34
:104BD000D8A0EDEFA5F0EFEFA5F0CEEFA5F00CEF2C
:104BE000A6F0490EC41909E1010EC519D8B4FBEFAE
:104BF000A5F0FDEFA5F006EFA6F0C451C511D8A4AD
:104C000004EFA6F006EFA6F00AEFA6F0040EC26FBE
:104C10000CEFA6F0010EC26FC25112009B8C0F0167
:104C20003985F19E700ED36E1F0E486F1F0E496FAF
:104C3000000E926E300E936E000E946E0F0E956EF7
:104C4000000E806E000E816E000E826E000E836E6E
:104C50009290929292949394898089829586958479
:104C6000000E00016D6F0A0E6C6F09ECB4F0AEEC33
:104C7000B2F08C0E00016D6FFB0E6E6F77ECB1F031
:104C80005F0E00016D6FFA0E6E6F77ECB1F01F0EC4
:104C900000016D6FFF0E6E6F77ECB1F05F0E0001DB
:104CA0006D6FFA0E6E6F77ECB1F0C7ECB4F0000EDA
:104CB0007B6E000E7A6EE00EBB6E2E0EBC6E0B0E7F
:104CC000BA6E010E0F01526F0B0E796EF28EF28CDE
:104CD000D08E9F849E949D84490E0001986FFF0E94
:104CE000996FF2CF9AF09B6BD0CF9CF09D6B0CEC40
:104CF00095F0000E0101AA6F000EAB6F000EAC6FB5
:104D0000E70EAD6FFF0EAE6F010EB06F000EAF6F0E
:104D1000000EB16F000EB26F020EB36F000EB46FD3
:104D2000000EB56F42ECA8F0000E0101AA6F000E54
:104D3000AB6F000EAC6FEB0EAD6FFF0EAE6F010EE2
:104D4000B06F000EAF6F000EB16F000EB26F020EAB
:104D5000B36F000EB46F000EB56F42ECA8F0010106
:104D6000BB6F600E0001986FFD0E996F020E9B6F76
:104D70003C0E9A6F0101BB5100019C6F9D6B9CBF63
:104D80009D070CEC95F0000E01018E6F000E8F6FE9
:104D9000E8EC9CF0BAECADF0CCEFA6F07BEF01F0C4
:104DA0006CC076F06DC077F0000170517111D8A41D
:104DB000DCEFA6F0DEEFA6F0E0EFA6F08BEFA7F0B9
:104DC00076C0D9FF77C0DAFF6EC0DFFF705176255D
:104DD000726F71517721736FFF0E7225D96EFF0EBE
:104DE0007321DA6E6EC0DFFF715107E1030E705D53
:104DF000D8B0FDEFA6F0FFEFA6F001EFA7F08BEF24
:104E0000A7F020EE01F07651D9267751DA226EC054
:104E1000DFFF20EE02F07651D9267751DA226EC0FC
:104E2000DFFF70517625726F71517721736FFE0E1F
:104E30007225D96EFF0E7321DA6E6EC0DFFF7051DE
:104E40007625726F71517721736FFD0E7225D96EC1
:104E5000FF0E7321DA6E6EC0DFFF715107E1070E9E
:104E6000705DD8B036EFA7F038EFA7F03AEFA7F0B3
:104E70008BEFA7F020EE03F07651D9267751DA2296
:104E80006EC0DFFF70517625726F71517721736F9D
:104E9000FC0E7225D96EFF0E7321DA6E6EC0DFFF35
:104EA000715107E1090E705DD8B059EFA7F05BEFC3
:104EB000A7F05DEFA7F08BEFA7F076C072F077C098
:104EC00073F0721F731F724B732B030E7215746F86
:104ED000756B74517627755177237451705F7551D6
:104EE000715BFC0E7017FF0E711782EFA7F076C092
:104EF000D9FF77C0DAFF6EC0DFFF7007D8A0710757
:104F0000764B772B70517111D8A489EFA7F08BEFF6
:104F1000A7F077EFA7F01200000E01018D6F030ECE
:104F20008C6FE8ECB4F001012351895DD8A09BEFB0
:104F3000A7F09DEFA7F03DEFA8F08C078D51100D65
:104F4000F3CFE5F0F4CFE6F00001E551010187254C
:104F5000756F0001E65101018821766F8C51090DB2
:104F6000250EF324776F010EF420786F010E796F10
:104F70000CECA0F001018D278C51D8A4C2EFA7F052
:104F8000C4EFA7F09DEFA7F08D51100DF3CFE5F022
:104F9000F4CFE6F00001E55101018725756F0001AE
:104FA000E65101018821766FECC077F1EDC078F110
:104FB000020E796F0CECA0F001018D278D51100DC0
:104FC000F3CFE5F0F4CFE6F00001E55101018725CC
:104FD000756F0001E65101018821766FEAC077F113
:104FE000EBC078F1020E796F0CECA0F001018D2777
:104FF0008D51100DF3CFE5F0F4CFE6F00001E5514F
:1050000001018725756F0001E65101018821766F46
:10501000490E776F010E786F040E796F0CECA0F0DB
